{
  "_format": "hh-sol-artifact-1",
  "contractName": "MyToken",
  "sourceName": "contracts/NFT.sol",
  "abi": [
    {
      "inputs": [],
      "stateMutability": "nonpayable",
      "type": "constructor"
    },
    {
      "anonymous": false,
      "inputs": [
        {
          "indexed": true,
          "internalType": "address",
          "name": "owner",
          "type": "address"
        },
        {
          "indexed": true,
          "internalType": "address",
          "name": "approved",
          "type": "address"
        },
        {
          "indexed": true,
          "internalType": "uint256",
          "name": "tokenId",
          "type": "uint256"
        }
      ],
      "name": "Approval",
      "type": "event"
    },
    {
      "anonymous": false,
      "inputs": [
        {
          "indexed": true,
          "internalType": "address",
          "name": "owner",
          "type": "address"
        },
        {
          "indexed": true,
          "internalType": "address",
          "name": "operator",
          "type": "address"
        },
        {
          "indexed": false,
          "internalType": "bool",
          "name": "approved",
          "type": "bool"
        }
      ],
      "name": "ApprovalForAll",
      "type": "event"
    },
    {
      "anonymous": false,
      "inputs": [
        {
          "indexed": true,
          "internalType": "address",
          "name": "previousOwner",
          "type": "address"
        },
        {
          "indexed": true,
          "internalType": "address",
          "name": "newOwner",
          "type": "address"
        }
      ],
      "name": "OwnershipTransferred",
      "type": "event"
    },
    {
      "anonymous": false,
      "inputs": [
        {
          "indexed": true,
          "internalType": "address",
          "name": "from",
          "type": "address"
        },
        {
          "indexed": true,
          "internalType": "address",
          "name": "to",
          "type": "address"
        },
        {
          "indexed": true,
          "internalType": "uint256",
          "name": "tokenId",
          "type": "uint256"
        }
      ],
      "name": "Transfer",
      "type": "event"
    },
    {
      "inputs": [
        {
          "internalType": "address",
          "name": "to",
          "type": "address"
        },
        {
          "internalType": "uint256",
          "name": "tokenId",
          "type": "uint256"
        }
      ],
      "name": "approve",
      "outputs": [],
      "stateMutability": "nonpayable",
      "type": "function"
    },
    {
      "inputs": [
        {
          "internalType": "address",
          "name": "owner",
          "type": "address"
        }
      ],
      "name": "balanceOf",
      "outputs": [
        {
          "internalType": "uint256",
          "name": "",
          "type": "uint256"
        }
      ],
      "stateMutability": "view",
      "type": "function"
    },
    {
      "inputs": [
        {
          "internalType": "uint256",
          "name": "tokenId",
          "type": "uint256"
        }
      ],
      "name": "getApproved",
      "outputs": [
        {
          "internalType": "address",
          "name": "",
          "type": "address"
        }
      ],
      "stateMutability": "view",
      "type": "function"
    },
    {
      "inputs": [
        {
          "internalType": "address",
          "name": "owner",
          "type": "address"
        },
        {
          "internalType": "address",
          "name": "operator",
          "type": "address"
        }
      ],
      "name": "isApprovedForAll",
      "outputs": [
        {
          "internalType": "bool",
          "name": "",
          "type": "bool"
        }
      ],
      "stateMutability": "view",
      "type": "function"
    },
    {
      "inputs": [],
      "name": "name",
      "outputs": [
        {
          "internalType": "string",
          "name": "",
          "type": "string"
        }
      ],
      "stateMutability": "view",
      "type": "function"
    },
    {
      "inputs": [],
      "name": "owner",
      "outputs": [
        {
          "internalType": "address",
          "name": "",
          "type": "address"
        }
      ],
      "stateMutability": "view",
      "type": "function"
    },
    {
      "inputs": [
        {
          "internalType": "uint256",
          "name": "tokenId",
          "type": "uint256"
        }
      ],
      "name": "ownerOf",
      "outputs": [
        {
          "internalType": "address",
          "name": "",
          "type": "address"
        }
      ],
      "stateMutability": "view",
      "type": "function"
    },
    {
      "inputs": [],
      "name": "renounceOwnership",
      "outputs": [],
      "stateMutability": "nonpayable",
      "type": "function"
    },
    {
      "inputs": [
        {
          "internalType": "address",
          "name": "to",
          "type": "address"
        },
        {
          "internalType": "uint256",
          "name": "tokenId",
          "type": "uint256"
        },
        {
          "internalType": "string",
          "name": "uri",
          "type": "string"
        }
      ],
      "name": "safeMint",
      "outputs": [],
      "stateMutability": "nonpayable",
      "type": "function"
    },
    {
      "inputs": [
        {
          "internalType": "address",
          "name": "from",
          "type": "address"
        },
        {
          "internalType": "address",
          "name": "to",
          "type": "address"
        },
        {
          "internalType": "uint256",
          "name": "tokenId",
          "type": "uint256"
        }
      ],
      "name": "safeTransferFrom",
      "outputs": [],
      "stateMutability": "nonpayable",
      "type": "function"
    },
    {
      "inputs": [
        {
          "internalType": "address",
          "name": "from",
          "type": "address"
        },
        {
          "internalType": "address",
          "name": "to",
          "type": "address"
        },
        {
          "internalType": "uint256",
          "name": "tokenId",
          "type": "uint256"
        },
        {
          "internalType": "bytes",
          "name": "data",
          "type": "bytes"
        }
      ],
      "name": "safeTransferFrom",
      "outputs": [],
      "stateMutability": "nonpayable",
      "type": "function"
    },
    {
      "inputs": [
        {
          "internalType": "address",
          "name": "operator",
          "type": "address"
        },
        {
          "internalType": "bool",
          "name": "approved",
          "type": "bool"
        }
      ],
      "name": "setApprovalForAll",
      "outputs": [],
      "stateMutability": "nonpayable",
      "type": "function"
    },
    {
      "inputs": [
        {
          "internalType": "bytes4",
          "name": "interfaceId",
          "type": "bytes4"
        }
      ],
      "name": "supportsInterface",
      "outputs": [
        {
          "internalType": "bool",
          "name": "",
          "type": "bool"
        }
      ],
      "stateMutability": "view",
      "type": "function"
    },
    {
      "inputs": [],
      "name": "symbol",
      "outputs": [
        {
          "internalType": "string",
          "name": "",
          "type": "string"
        }
      ],
      "stateMutability": "view",
      "type": "function"
    },
    {
      "inputs": [
        {
          "internalType": "uint256",
          "name": "tokenId",
          "type": "uint256"
        }
      ],
      "name": "tokenURI",
      "outputs": [
        {
          "internalType": "string",
          "name": "",
          "type": "string"
        }
      ],
      "stateMutability": "view",
      "type": "function"
    },
    {
      "inputs": [
        {
          "internalType": "address",
          "name": "from",
          "type": "address"
        },
        {
          "internalType": "address",
          "name": "to",
          "type": "address"
        },
        {
          "internalType": "uint256",
          "name": "tokenId",
          "type": "uint256"
        }
      ],
      "name": "transferFrom",
      "outputs": [],
      "stateMutability": "nonpayable",
      "type": "function"
    },
    {
      "inputs": [
        {
          "internalType": "address",
          "name": "newOwner",
          "type": "address"
        }
      ],
      "name": "transferOwnership",
      "outputs": [],
      "stateMutability": "nonpayable",
      "type": "function"
    }
  ],
  "bytecode": "0x60806040523480156200001157600080fd5b506040518060400160405280600781526020017f4d79546f6b656e000000000000000000000000000000000000000000000000008152506040518060400160405280600381526020017f4d544b0000000000000000000000000000000000000000000000000000000000815250816000908051906020019062000096929190620001a6565b508060019080519060200190620000af929190620001a6565b505050620000d2620000c6620000d860201b60201c565b620000e060201b60201c565b620002bb565b600033905090565b6000600760009054906101000a900473ffffffffffffffffffffffffffffffffffffffff16905081600760006101000a81548173ffffffffffffffffffffffffffffffffffffffff021916908373ffffffffffffffffffffffffffffffffffffffff1602179055508173ffffffffffffffffffffffffffffffffffffffff168173ffffffffffffffffffffffffffffffffffffffff167f8be0079c531659141344cd1fd0a4f28419497f9722a3daafe3b4186f6b6457e060405160405180910390a35050565b828054620001b49062000256565b90600052602060002090601f016020900481019282620001d8576000855562000224565b82601f10620001f357805160ff191683800117855562000224565b8280016001018555821562000224579182015b828111156200022357825182559160200191906001019062000206565b5b50905062000233919062000237565b5090565b5b808211156200025257600081600090555060010162000238565b5090565b600060028204905060018216806200026f57607f821691505b602082108114156200028657620002856200028c565b5b50919050565b7f4e487b7100000000000000000000000000000000000000000000000000000000600052602260045260246000fd5b612c6080620002cb6000396000f3fe608060405234801561001057600080fd5b506004361061010b5760003560e01c8063715018a6116100a2578063b88d4fde11610071578063b88d4fde146102a4578063c87b56dd146102c0578063cd279c7c146102f0578063e985e9c51461030c578063f2fde38b1461033c5761010b565b8063715018a6146102425780638da5cb5b1461024c57806395d89b411461026a578063a22cb465146102885761010b565b806323b872dd116100de57806323b872dd146101aa57806342842e0e146101c65780636352211e146101e257806370a08231146102125761010b565b806301ffc9a71461011057806306fdde0314610140578063081812fc1461015e578063095ea7b31461018e575b600080fd5b61012a60048036038101906101259190611e2e565b610358565b60405161013791906121fa565b60405180910390f35b61014861043a565b6040516101559190612215565b60405180910390f35b61017860048036038101906101739190611e88565b6104cc565b6040516101859190612193565b60405180910390f35b6101a860048036038101906101a39190611d7f565b610512565b005b6101c460048036038101906101bf9190611c69565b61062a565b005b6101e060048036038101906101db9190611c69565b61068a565b005b6101fc60048036038101906101f79190611e88565b6106aa565b6040516102099190612193565b60405180910390f35b61022c60048036038101906102279190611bfc565b61075c565b60405161023991906123f7565b60405180910390f35b61024a610814565b005b610254610828565b6040516102619190612193565b60405180910390f35b610272610852565b60405161027f9190612215565b60405180910390f35b6102a2600480360381019061029d9190611d3f565b6108e4565b005b6102be60048036038101906102b99190611cbc565b6108fa565b005b6102da60048036038101906102d59190611e88565b61095c565b6040516102e79190612215565b60405180910390f35b61030a60048036038101906103059190611dbf565b61096e565b005b61032660048036038101906103219190611c29565b61098f565b60405161033391906121fa565b60405180910390f35b61035660048036038101906103519190611bfc565b610a23565b005b60007f80ac58cd000000000000000000000000000000000000000000000000000000007bffffffffffffffffffffffffffffffffffffffffffffffffffffffff1916827bffffffffffffffffffffffffffffffffffffffffffffffffffffffff1916148061042357507f5b5e139f000000000000000000000000000000000000000000000000000000007bffffffffffffffffffffffffffffffffffffffffffffffffffffffff1916827bffffffffffffffffffffffffffffffffffffffffffffffffffffffff1916145b80610433575061043282610aa7565b5b9050919050565b6060600080546104499061264d565b80601f01602080910402602001604051908101604052809291908181526020018280546104759061264d565b80156104c25780601f10610497576101008083540402835291602001916104c2565b820191906000526020600020905b8154815290600101906020018083116104a557829003601f168201915b5050505050905090565b60006104d782610b11565b6004600083815260200190815260200160002060009054906101000a900473ffffffffffffffffffffffffffffffffffffffff169050919050565b600061051d826106aa565b90508073ffffffffffffffffffffffffffffffffffffffff168373ffffffffffffffffffffffffffffffffffffffff16141561058e576040517f08c379a0000000000000000000000000000000000000000000000000000000008152600401610585906123b7565b60405180910390fd5b8073ffffffffffffffffffffffffffffffffffffffff166105ad610b5c565b73ffffffffffffffffffffffffffffffffffffffff1614806105dc57506105db816105d6610b5c565b61098f565b5b61061b576040517f08c379a000000000000000000000000000000000000000000000000000000000815260040161061290612337565b60405180910390fd5b6106258383610b64565b505050565b61063b610635610b5c565b82610c1d565b61067a576040517f08c379a0000000000000000000000000000000000000000000000000000000008152600401610671906123d7565b60405180910390fd5b610685838383610cb2565b505050565b6106a5838383604051806020016040528060008152506108fa565b505050565b6000806002600084815260200190815260200160002060009054906101000a900473ffffffffffffffffffffffffffffffffffffffff169050600073ffffffffffffffffffffffffffffffffffffffff168173ffffffffffffffffffffffffffffffffffffffff161415610753576040517f08c379a000000000000000000000000000000000000000000000000000000000815260040161074a90612397565b60405180910390fd5b80915050919050565b60008073ffffffffffffffffffffffffffffffffffffffff168273ffffffffffffffffffffffffffffffffffffffff1614156107cd576040517f08c379a00000000000000000000000000000000000000000000000000000000081526004016107c4906122f7565b60405180910390fd5b600360008373ffffffffffffffffffffffffffffffffffffffff1673ffffffffffffffffffffffffffffffffffffffff168152602001908152602001600020549050919050565b61081c610f19565b6108266000610f97565b565b6000600760009054906101000a900473ffffffffffffffffffffffffffffffffffffffff16905090565b6060600180546108619061264d565b80601f016020809104026020016040519081016040528092919081815260200182805461088d9061264d565b80156108da5780601f106108af576101008083540402835291602001916108da565b820191906000526020600020905b8154815290600101906020018083116108bd57829003601f168201915b5050505050905090565b6108f66108ef610b5c565b838361105d565b5050565b61090b610905610b5c565b83610c1d565b61094a576040517f08c379a0000000000000000000000000000000000000000000000000000000008152600401610941906123d7565b60405180910390fd5b610956848484846111ca565b50505050565b606061096782611226565b9050919050565b610976610f19565b6109808383611339565b61098a8282611357565b505050565b6000600560008473ffffffffffffffffffffffffffffffffffffffff1673ffffffffffffffffffffffffffffffffffffffff16815260200190815260200160002060008373ffffffffffffffffffffffffffffffffffffffff1673ffffffffffffffffffffffffffffffffffffffff16815260200190815260200160002060009054906101000a900460ff16905092915050565b610a2b610f19565b600073ffffffffffffffffffffffffffffffffffffffff168173ffffffffffffffffffffffffffffffffffffffff161415610a9b576040517f08c379a0000000000000000000000000000000000000000000000000000000008152600401610a9290612257565b60405180910390fd5b610aa481610f97565b50565b60007f01ffc9a7000000000000000000000000000000000000000000000000000000007bffffffffffffffffffffffffffffffffffffffffffffffffffffffff1916827bffffffffffffffffffffffffffffffffffffffffffffffffffffffff1916149050919050565b610b1a816113cb565b610b59576040517f08c379a0000000000000000000000000000000000000000000000000000000008152600401610b5090612397565b60405180910390fd5b50565b600033905090565b816004600083815260200190815260200160002060006101000a81548173ffffffffffffffffffffffffffffffffffffffff021916908373ffffffffffffffffffffffffffffffffffffffff160217905550808273ffffffffffffffffffffffffffffffffffffffff16610bd7836106aa565b73ffffffffffffffffffffffffffffffffffffffff167f8c5be1e5ebec7d5bd14f71427d1e84f3dd0314c0f7b2291e5b200ac8c7c3b92560405160405180910390a45050565b600080610c29836106aa565b90508073ffffffffffffffffffffffffffffffffffffffff168473ffffffffffffffffffffffffffffffffffffffff161480610c6b5750610c6a818561098f565b5b80610ca957508373ffffffffffffffffffffffffffffffffffffffff16610c91846104cc565b73ffffffffffffffffffffffffffffffffffffffff16145b91505092915050565b8273ffffffffffffffffffffffffffffffffffffffff16610cd2826106aa565b73ffffffffffffffffffffffffffffffffffffffff1614610d28576040517f08c379a0000000000000000000000000000000000000000000000000000000008152600401610d1f90612277565b60405180910390fd5b600073ffffffffffffffffffffffffffffffffffffffff168273ffffffffffffffffffffffffffffffffffffffff161415610d98576040517f08c379a0000000000000000000000000000000000000000000000000000000008152600401610d8f906122b7565b60405180910390fd5b610da3838383611437565b610dae600082610b64565b6001600360008573ffffffffffffffffffffffffffffffffffffffff1673ffffffffffffffffffffffffffffffffffffffff1681526020019081526020016000206000828254610dfe9190612563565b925050819055506001600360008473ffffffffffffffffffffffffffffffffffffffff1673ffffffffffffffffffffffffffffffffffffffff1681526020019081526020016000206000828254610e5591906124dc565b92505081905550816002600083815260200190815260200160002060006101000a81548173ffffffffffffffffffffffffffffffffffffffff021916908373ffffffffffffffffffffffffffffffffffffffff160217905550808273ffffffffffffffffffffffffffffffffffffffff168473ffffffffffffffffffffffffffffffffffffffff167fddf252ad1be2c89b69c2b068fc378daa952ba7f163c4a11628f55a4df523b3ef60405160405180910390a4610f1483838361143c565b505050565b610f21610b5c565b73ffffffffffffffffffffffffffffffffffffffff16610f3f610828565b73ffffffffffffffffffffffffffffffffffffffff1614610f95576040517f08c379a0000000000000000000000000000000000000000000000000000000008152600401610f8c90612377565b60405180910390fd5b565b6000600760009054906101000a900473ffffffffffffffffffffffffffffffffffffffff16905081600760006101000a81548173ffffffffffffffffffffffffffffffffffffffff021916908373ffffffffffffffffffffffffffffffffffffffff1602179055508173ffffffffffffffffffffffffffffffffffffffff168173ffffffffffffffffffffffffffffffffffffffff167f8be0079c531659141344cd1fd0a4f28419497f9722a3daafe3b4186f6b6457e060405160405180910390a35050565b8173ffffffffffffffffffffffffffffffffffffffff168373ffffffffffffffffffffffffffffffffffffffff1614156110cc576040517f08c379a00000000000000000000000000000000000000000000000000000000081526004016110c3906122d7565b60405180910390fd5b80600560008573ffffffffffffffffffffffffffffffffffffffff1673ffffffffffffffffffffffffffffffffffffffff16815260200190815260200160002060008473ffffffffffffffffffffffffffffffffffffffff1673ffffffffffffffffffffffffffffffffffffffff16815260200190815260200160002060006101000a81548160ff0219169083151502179055508173ffffffffffffffffffffffffffffffffffffffff168373ffffffffffffffffffffffffffffffffffffffff167f17307eab39ab6107e8899845ad3d59bd9653f200f220920489ca2b5937696c31836040516111bd91906121fa565b60405180910390a3505050565b6111d5848484610cb2565b6111e184848484611441565b611220576040517f08c379a000000000000000000000000000000000000000000000000000000000815260040161121790612237565b60405180910390fd5b50505050565b606061123182610b11565b60006006600084815260200190815260200160002080546112519061264d565b80601f016020809104026020016040519081016040528092919081815260200182805461127d9061264d565b80156112ca5780601f1061129f576101008083540402835291602001916112ca565b820191906000526020600020905b8154815290600101906020018083116112ad57829003601f168201915b5050505050905060006112db6115d8565b90506000815114156112f1578192505050611334565b60008251111561132657808260405160200161130e92919061216f565b60405160208183030381529060405292505050611334565b61132f846115ef565b925050505b919050565b611353828260405180602001604052806000815250611657565b5050565b611360826113cb565b61139f576040517f08c379a000000000000000000000000000000000000000000000000000000000815260040161139690612317565b60405180910390fd5b806006600084815260200190815260200160002090805190602001906113c6929190611a10565b505050565b60008073ffffffffffffffffffffffffffffffffffffffff166002600084815260200190815260200160002060009054906101000a900473ffffffffffffffffffffffffffffffffffffffff1673ffffffffffffffffffffffffffffffffffffffff1614159050919050565b505050565b505050565b60006114628473ffffffffffffffffffffffffffffffffffffffff166116b2565b156115cb578373ffffffffffffffffffffffffffffffffffffffff1663150b7a0261148b610b5c565b8786866040518563ffffffff1660e01b81526004016114ad94939291906121ae565b602060405180830381600087803b1580156114c757600080fd5b505af19250505080156114f857506040513d601f19601f820116820180604052508101906114f59190611e5b565b60015b61157b573d8060008114611528576040519150601f19603f3d011682016040523d82523d6000602084013e61152d565b606091505b50600081511415611573576040517f08c379a000000000000000000000000000000000000000000000000000000000815260040161156a90612237565b60405180910390fd5b805181602001fd5b63150b7a0260e01b7bffffffffffffffffffffffffffffffffffffffffffffffffffffffff1916817bffffffffffffffffffffffffffffffffffffffffffffffffffffffff1916149150506115d0565b600190505b949350505050565b606060405180602001604052806000815250905090565b60606115fa82610b11565b60006116046115d8565b90506000815111611624576040518060200160405280600081525061164f565b8061162e846116d5565b60405160200161163f92919061216f565b6040516020818303038152906040525b915050919050565b6116618383611836565b61166e6000848484611441565b6116ad576040517f08c379a00000000000000000000000000000000000000000000000000000000081526004016116a490612237565b60405180910390fd5b505050565b6000808273ffffffffffffffffffffffffffffffffffffffff163b119050919050565b6060600082141561171d576040518060400160405280600181526020017f30000000000000000000000000000000000000000000000000000000000000008152509050611831565b600082905060005b6000821461174f578080611738906126b0565b915050600a826117489190612532565b9150611725565b60008167ffffffffffffffff81111561176b5761176a6127e6565b5b6040519080825280601f01601f19166020018201604052801561179d5781602001600182028036833780820191505090505b5090505b6000851461182a576001826117b69190612563565b9150600a856117c591906126f9565b60306117d191906124dc565b60f81b8183815181106117e7576117e66127b7565b5b60200101907effffffffffffffffffffffffffffffffffffffffffffffffffffffffffffff1916908160001a905350600a856118239190612532565b94506117a1565b8093505050505b919050565b600073ffffffffffffffffffffffffffffffffffffffff168273ffffffffffffffffffffffffffffffffffffffff1614156118a6576040517f08c379a000000000000000000000000000000000000000000000000000000000815260040161189d90612357565b60405180910390fd5b6118af816113cb565b156118ef576040517f08c379a00000000000000000000000000000000000000000000000000000000081526004016118e690612297565b60405180910390fd5b6118fb60008383611437565b6001600360008473ffffffffffffffffffffffffffffffffffffffff1673ffffffffffffffffffffffffffffffffffffffff168152602001908152602001600020600082825461194b91906124dc565b92505081905550816002600083815260200190815260200160002060006101000a81548173ffffffffffffffffffffffffffffffffffffffff021916908373ffffffffffffffffffffffffffffffffffffffff160217905550808273ffffffffffffffffffffffffffffffffffffffff16600073ffffffffffffffffffffffffffffffffffffffff167fddf252ad1be2c89b69c2b068fc378daa952ba7f163c4a11628f55a4df523b3ef60405160405180910390a4611a0c6000838361143c565b5050565b828054611a1c9061264d565b90600052602060002090601f016020900481019282611a3e5760008555611a85565b82601f10611a5757805160ff1916838001178555611a85565b82800160010185558215611a85579182015b82811115611a84578251825591602001919060010190611a69565b5b509050611a929190611a96565b5090565b5b80821115611aaf576000816000905550600101611a97565b5090565b6000611ac6611ac184612437565b612412565b905082815260208101848484011115611ae257611ae161281a565b5b611aed84828561260b565b509392505050565b6000611b08611b0384612468565b612412565b905082815260208101848484011115611b2457611b2361281a565b5b611b2f84828561260b565b509392505050565b600081359050611b4681612bce565b92915050565b600081359050611b5b81612be5565b92915050565b600081359050611b7081612bfc565b92915050565b600081519050611b8581612bfc565b92915050565b600082601f830112611ba057611b9f612815565b5b8135611bb0848260208601611ab3565b91505092915050565b600082601f830112611bce57611bcd612815565b5b8135611bde848260208601611af5565b91505092915050565b600081359050611bf681612c13565b92915050565b600060208284031215611c1257611c11612824565b5b6000611c2084828501611b37565b91505092915050565b60008060408385031215611c4057611c3f612824565b5b6000611c4e85828601611b37565b9250506020611c5f85828601611b37565b9150509250929050565b600080600060608486031215611c8257611c81612824565b5b6000611c9086828701611b37565b9350506020611ca186828701611b37565b9250506040611cb286828701611be7565b9150509250925092565b60008060008060808587031215611cd657611cd5612824565b5b6000611ce487828801611b37565b9450506020611cf587828801611b37565b9350506040611d0687828801611be7565b925050606085013567ffffffffffffffff811115611d2757611d2661281f565b5b611d3387828801611b8b565b91505092959194509250565b60008060408385031215611d5657611d55612824565b5b6000611d6485828601611b37565b9250506020611d7585828601611b4c565b9150509250929050565b60008060408385031215611d9657611d95612824565b5b6000611da485828601611b37565b9250506020611db585828601611be7565b9150509250929050565b600080600060608486031215611dd857611dd7612824565b5b6000611de686828701611b37565b9350506020611df786828701611be7565b925050604084013567ffffffffffffffff811115611e1857611e1761281f565b5b611e2486828701611bb9565b9150509250925092565b600060208284031215611e4457611e43612824565b5b6000611e5284828501611b61565b91505092915050565b600060208284031215611e7157611e70612824565b5b6000611e7f84828501611b76565b91505092915050565b600060208284031215611e9e57611e9d612824565b5b6000611eac84828501611be7565b91505092915050565b611ebe81612597565b82525050565b611ecd816125a9565b82525050565b6000611ede82612499565b611ee881856124af565b9350611ef881856020860161261a565b611f0181612829565b840191505092915050565b6000611f17826124a4565b611f2181856124c0565b9350611f3181856020860161261a565b611f3a81612829565b840191505092915050565b6000611f50826124a4565b611f5a81856124d1565b9350611f6a81856020860161261a565b80840191505092915050565b6000611f836032836124c0565b9150611f8e8261283a565b604082019050919050565b6000611fa66026836124c0565b9150611fb182612889565b604082019050919050565b6000611fc96025836124c0565b9150611fd4826128d8565b604082019050919050565b6000611fec601c836124c0565b9150611ff782612927565b602082019050919050565b600061200f6024836124c0565b915061201a82612950565b604082019050919050565b60006120326019836124c0565b915061203d8261299f565b602082019050919050565b60006120556029836124c0565b9150612060826129c8565b604082019050919050565b6000612078602e836124c0565b915061208382612a17565b604082019050919050565b600061209b603e836124c0565b91506120a682612a66565b604082019050919050565b60006120be6020836124c0565b91506120c982612ab5565b602082019050919050565b60006120e16020836124c0565b91506120ec82612ade565b602082019050919050565b60006121046018836124c0565b915061210f82612b07565b602082019050919050565b60006121276021836124c0565b915061213282612b30565b604082019050919050565b600061214a602e836124c0565b915061215582612b7f565b604082019050919050565b61216981612601565b82525050565b600061217b8285611f45565b91506121878284611f45565b91508190509392505050565b60006020820190506121a86000830184611eb5565b92915050565b60006080820190506121c36000830187611eb5565b6121d06020830186611eb5565b6121dd6040830185612160565b81810360608301526121ef8184611ed3565b905095945050505050565b600060208201905061220f6000830184611ec4565b92915050565b6000602082019050818103600083015261222f8184611f0c565b905092915050565b6000602082019050818103600083015261225081611f76565b9050919050565b6000602082019050818103600083015261227081611f99565b9050919050565b6000602082019050818103600083015261229081611fbc565b9050919050565b600060208201905081810360008301526122b081611fdf565b9050919050565b600060208201905081810360008301526122d081612002565b9050919050565b600060208201905081810360008301526122f081612025565b9050919050565b6000602082019050818103600083015261231081612048565b9050919050565b600060208201905081810360008301526123308161206b565b9050919050565b600060208201905081810360008301526123508161208e565b9050919050565b60006020820190508181036000830152612370816120b1565b9050919050565b60006020820190508181036000830152612390816120d4565b9050919050565b600060208201905081810360008301526123b0816120f7565b9050919050565b600060208201905081810360008301526123d08161211a565b9050919050565b600060208201905081810360008301526123f08161213d565b9050919050565b600060208201905061240c6000830184612160565b92915050565b600061241c61242d565b9050612428828261267f565b919050565b6000604051905090565b600067ffffffffffffffff821115612452576124516127e6565b5b61245b82612829565b9050602081019050919050565b600067ffffffffffffffff821115612483576124826127e6565b5b61248c82612829565b9050602081019050919050565b600081519050919050565b600081519050919050565b600082825260208201905092915050565b600082825260208201905092915050565b600081905092915050565b60006124e782612601565b91506124f283612601565b9250827fffffffffffffffffffffffffffffffffffffffffffffffffffffffffffffffff038211156125275761252661272a565b5b828201905092915050565b600061253d82612601565b915061254883612601565b92508261255857612557612759565b5b828204905092915050565b600061256e82612601565b915061257983612601565b92508282101561258c5761258b61272a565b5b828203905092915050565b60006125a2826125e1565b9050919050565b60008115159050919050565b60007fffffffff0000000000000000000000000000000000000000000000000000000082169050919050565b600073ffffffffffffffffffffffffffffffffffffffff82169050919050565b6000819050919050565b82818337600083830152505050565b60005b8381101561263857808201518184015260208101905061261d565b83811115612647576000848401525b50505050565b6000600282049050600182168061266557607f821691505b6020821081141561267957612678612788565b5b50919050565b61268882612829565b810181811067ffffffffffffffff821117156126a7576126a66127e6565b5b80604052505050565b60006126bb82612601565b91507fffffffffffffffffffffffffffffffffffffffffffffffffffffffffffffffff8214156126ee576126ed61272a565b5b600182019050919050565b600061270482612601565b915061270f83612601565b92508261271f5761271e612759565b5b828206905092915050565b7f4e487b7100000000000000000000000000000000000000000000000000000000600052601160045260246000fd5b7f4e487b7100000000000000000000000000000000000000000000000000000000600052601260045260246000fd5b7f4e487b7100000000000000000000000000000000000000000000000000000000600052602260045260246000fd5b7f4e487b7100000000000000000000000000000000000000000000000000000000600052603260045260246000fd5b7f4e487b7100000000000000000000000000000000000000000000000000000000600052604160045260246000fd5b600080fd5b600080fd5b600080fd5b600080fd5b6000601f19601f8301169050919050565b7f4552433732313a207472616e7366657220746f206e6f6e20455243373231526560008201527f63656976657220696d706c656d656e7465720000000000000000000000000000602082015250565b7f4f776e61626c653a206e6577206f776e657220697320746865207a65726f206160008201527f6464726573730000000000000000000000000000000000000000000000000000602082015250565b7f4552433732313a207472616e736665722066726f6d20696e636f72726563742060008201527f6f776e6572000000000000000000000000000000000000000000000000000000602082015250565b7f4552433732313a20746f6b656e20616c7265616479206d696e74656400000000600082015250565b7f4552433732313a207472616e7366657220746f20746865207a65726f2061646460008201527f7265737300000000000000000000000000000000000000000000000000000000602082015250565b7f4552433732313a20617070726f766520746f2063616c6c657200000000000000600082015250565b7f4552433732313a2061646472657373207a65726f206973206e6f74206120766160008201527f6c6964206f776e65720000000000000000000000000000000000000000000000602082015250565b7f45524337323155524953746f726167653a2055524920736574206f66206e6f6e60008201527f6578697374656e7420746f6b656e000000000000000000000000000000000000602082015250565b7f4552433732313a20617070726f76652063616c6c6572206973206e6f7420746f60008201527f6b656e206f776e6572206e6f7220617070726f76656420666f7220616c6c0000602082015250565b7f4552433732313a206d696e7420746f20746865207a65726f2061646472657373600082015250565b7f4f776e61626c653a2063616c6c6572206973206e6f7420746865206f776e6572600082015250565b7f4552433732313a20696e76616c696420746f6b656e2049440000000000000000600082015250565b7f4552433732313a20617070726f76616c20746f2063757272656e74206f776e6560008201527f7200000000000000000000000000000000000000000000000000000000000000602082015250565b7f4552433732313a2063616c6c6572206973206e6f7420746f6b656e206f776e6560008201527f72206e6f7220617070726f766564000000000000000000000000000000000000602082015250565b612bd781612597565b8114612be257600080fd5b50565b612bee816125a9565b8114612bf957600080fd5b50565b612c05816125b5565b8114612c1057600080fd5b50565b612c1c81612601565b8114612c2757600080fd5b5056fea2646970667358221220084a39f869ed57f87990e7ca88a945923e44acc4d7b270664c8329d188db9cdb64736f6c63430008060033",
  "linkReferences": {},
  "deployedLinkReferences": {}
}