{"contracts/Escrow.sol":{"Escrow":{"abi":[{"anonymous":false,"inputs":[{"indexed":true,"internalType":"address","name":"_from","type":"address"},{"indexed":true,"internalType":"address","name":"_to","type":"address"},{"indexed":false,"internalType":"uint256","name":"_amount","type":"uint256"}],"name":"ContractCreated","type":"event"},{"anonymous":false,"inputs":[{"indexed":true,"internalType":"address","name":"previousOwner","type":"address"},{"indexed":true,"internalType":"address","name":"newOwner","type":"address"}],"name":"OwnershipTransferred","type":"event"},{"inputs":[],"name":"account_info","outputs":[{"components":[{"internalType":"address","name":"client","type":"address"},{"internalType":"address","name":"freelancer","type":"address"}],"internalType":"struct Escrow.Parties","name":"parties","type":"tuple"},{"internalType":"uint256","name":"amount","type":"uint256"},{"internalType":"string","name":"content_id","type":"string"},{"internalType":"enum Escrow.Status","name":"status","type":"uint8"}],"stateMutability":"view","type":"function"},{"inputs":[],"name":"disputer","outputs":[{"internalType":"address payable","name":"","type":"address"}],"stateMutability":"view","type":"function"},{"inputs":[{"internalType":"bytes32","name":"_messageHash","type":"bytes32"}],"name":"getEthSignedMessageHash","outputs":[{"internalType":"bytes32","name":"","type":"bytes32"}],"stateMutability":"pure","type":"function"},{"inputs":[{"internalType":"address","name":"_to","type":"address"},{"internalType":"string","name":"_msg","type":"string"},{"internalType":"uint256","name":"_timestamp","type":"uint256"}],"name":"getMessageHash","outputs":[{"internalType":"bytes32","name":"","type":"bytes32"}],"stateMutability":"view","type":"function"},{"inputs":[{"internalType":"address","name":"_client","type":"address"},{"internalType":"address","name":"_freelancer","type":"address"},{"internalType":"uint256","name":"_amount","type":"uint256"},{"internalType":"string","name":"cid","type":"string"},{"internalType":"string","name":"_msg","type":"string"},{"internalType":"bytes","name":"_clientSig","type":"bytes"},{"internalType":"uint256","name":"_clientSigTimestamp","type":"uint256"},{"internalType":"bytes","name":"_freelancerSig","type":"bytes"},{"internalType":"uint256","name":"_freelancerSigTimestamp","type":"uint256"}],"name":"initialize","outputs":[],"stateMutability":"payable","type":"function"},{"inputs":[],"name":"owner","outputs":[{"internalType":"address","name":"","type":"address"}],"stateMutability":"view","type":"function"},{"inputs":[{"internalType":"bytes32","name":"_ethSignedMessageHash","type":"bytes32"},{"internalType":"bytes","name":"_signature","type":"bytes"}],"name":"recoverSigner","outputs":[{"internalType":"address","name":"","type":"address"}],"stateMutability":"pure","type":"function"},{"inputs":[],"name":"renounceOwnership","outputs":[],"stateMutability":"nonpayable","type":"function"},{"inputs":[{"internalType":"address","name":"_client","type":"address"},{"internalType":"address","name":"_freelancer","type":"address"},{"internalType":"address payable","name":"_disputer","type":"address"},{"internalType":"string","name":"_msg","type":"string"},{"internalType":"bytes","name":"_clientSig","type":"bytes"},{"internalType":"uint256","name":"_clientSigTimestamp","type":"uint256"},{"internalType":"bytes","name":"_freelancerSig","type":"bytes"},{"internalType":"uint256","name":"_freelancerSigTimestamp","type":"uint256"}],"name":"set_disputer","outputs":[],"stateMutability":"nonpayable","type":"function"},{"inputs":[{"internalType":"address","name":"_addr1","type":"address"},{"internalType":"uint256","name":"_amount1","type":"uint256"},{"internalType":"address","name":"_addr2","type":"address"},{"internalType":"uint256","name":"_amount2","type":"uint256"}],"name":"settle_dispute","outputs":[],"stateMutability":"nonpayable","type":"function"},{"inputs":[{"internalType":"bytes","name":"sig","type":"bytes"}],"name":"splitSignature","outputs":[{"internalType":"bytes32","name":"r","type":"bytes32"},{"internalType":"bytes32","name":"s","type":"bytes32"},{"internalType":"uint8","name":"v","type":"uint8"}],"stateMutability":"pure","type":"function"},{"inputs":[{"internalType":"address","name":"newOwner","type":"address"}],"name":"transferOwnership","outputs":[],"stateMutability":"nonpayable","type":"function"},{"inputs":[{"internalType":"enum Escrow.Status","name":"_status","type":"uint8"}],"name":"update_work_status","outputs":[],"stateMutability":"nonpayable","type":"function"},{"inputs":[{"internalType":"address","name":"_to","type":"address"},{"internalType":"string","name":"_msg","type":"string"},{"internalType":"uint256","name":"_timestamp","type":"uint256"},{"internalType":"bytes","name":"_signature","type":"bytes"}],"name":"verify","outputs":[{"internalType":"bool","name":"","type":"bool"}],"stateMutability":"view","type":"function"},{"inputs":[],"name":"withdraw","outputs":[],"stateMutability":"nonpayable","type":"function"}],"evm":{"bytecode":{"linkReferences":{},"object":"60806040523480156200001157600080fd5b5062000032620000266200003860201b60201c565b6200004060201b60201c565b62000106565b600033905090565b6000603360009054906101000a900473ffffffffffffffffffffffffffffffffffffffff16905081603360006101000a81548173ffffffffffffffffffffffffffffffffffffffff021916908373ffffffffffffffffffffffffffffffffffffffff1602179055508173ffffffffffffffffffffffffffffffffffffffff168173ffffffffffffffffffffffffffffffffffffffff167f8be0079c531659141344cd1fd0a4f28419497f9722a3daafe3b4186f6b6457e060405160405180910390a35050565b61327d80620001166000396000f3fe6080604052600436106100e85760003560e01c8063715018a61161008a578063a7bb580311610059578063a7bb5803146102c4578063cd4c670714610303578063f2fde38b1461032c578063fa54080114610355576100e8565b8063715018a61461021c5780638da5cb5b146102335780639798b8901461025e57806397aba7f914610287576100e8565b80632d1d2418116100c65780632d1d24181461019057806332d4b991146101be5780633ccfd60b146101da5780636ac56103146101f1576100e8565b806307546f1a146100ed578063082d8f291461012a5780631576f06014610167575b600080fd5b3480156100f957600080fd5b50610114600480360381019061010f9190611dd9565b610392565b6040516101219190612549565b60405180910390f35b34801561013657600080fd5b50610151600480360381019061014c9190611d6a565b610477565b60405161015e9190612564565b60405180910390f35b34801561017357600080fd5b5061018e60048036038101906101899190611e78565b6104ad565b005b34801561019c57600080fd5b506101a5610aab565b6040516101b594939291906128db565b60405180910390f35b6101d860048036038101906101d39190611c30565b610c14565b005b3480156101e657600080fd5b506101ef610f61565b005b3480156101fd57600080fd5b506102066110b9565b604051610213919061252e565b60405180910390f35b34801561022857600080fd5b506102316110df565b005b34801561023f57600080fd5b506102486110f3565b6040516102559190612513565b60405180910390f35b34801561026a57600080fd5b5061028560048036038101906102809190611fb1565b61111d565b005b34801561029357600080fd5b506102ae60048036038101906102a99190611f0c565b6113b1565b6040516102bb9190612513565b60405180910390f35b3480156102d057600080fd5b506102eb60048036038101906102e69190611f68565b611420565b6040516102fa9392919061257f565b60405180910390f35b34801561030f57600080fd5b5061032a60048036038101906103259190611b26565b611488565b005b34801561033857600080fd5b50610353600480360381019061034e9190611af9565b61170d565b005b34801561036157600080fd5b5061037c60048036038101906103779190611edf565b611791565b6040516103899190612564565b60405180910390f35b6000806103a0868686610477565b905060006103ad82611791565b90508673ffffffffffffffffffffffffffffffffffffffff166103d082866113b1565b73ffffffffffffffffffffffffffffffffffffffff1614610426576040517f08c379a000000000000000000000000000000000000000000000000000000000815260040161041d906127bb565b60405180910390fd5b42851015610469576040517f08c379a0000000000000000000000000000000000000000000000000000000008152600401610460906128bb565b60405180910390fd5b600192505050949350505050565b600083838360405160200161048e9392919061249f565b6040516020818303038152906040528051906020012090509392505050565b603460009054906101000a900473ffffffffffffffffffffffffffffffffffffffff1673ffffffffffffffffffffffffffffffffffffffff163373ffffffffffffffffffffffffffffffffffffffff161461053d576040517f08c379a00000000000000000000000000000000000000000000000000000000081526004016105349061263b565b60405180910390fd5b6002808111156105505761054f612ce1565b5b603560040160009054906101000a900460ff16600281111561057557610574612ce1565b5b146105b5576040517f08c379a00000000000000000000000000000000000000000000000000000000081526004016105ac9061287b565b60405180910390fd5b603560000160000160009054906101000a900473ffffffffffffffffffffffffffffffffffffffff1673ffffffffffffffffffffffffffffffffffffffff168473ffffffffffffffffffffffffffffffffffffffff16148061066a5750603560000160010160009054906101000a900473ffffffffffffffffffffffffffffffffffffffff1673ffffffffffffffffffffffffffffffffffffffff168473ffffffffffffffffffffffffffffffffffffffff16145b6106a9576040517f08c379a00000000000000000000000000000000000000000000000000000000081526004016106a0906126fb565b60405180910390fd5b603560000160000160009054906101000a900473ffffffffffffffffffffffffffffffffffffffff1673ffffffffffffffffffffffffffffffffffffffff168273ffffffffffffffffffffffffffffffffffffffff16148061075e5750603560000160010160009054906101000a900473ffffffffffffffffffffffffffffffffffffffff1673ffffffffffffffffffffffffffffffffffffffff168273ffffffffffffffffffffffffffffffffffffffff16145b61079d576040517f08c379a0000000000000000000000000000000000000000000000000000000008152600401610794906126fb565b60405180910390fd5b60356002015481846107af91906129fb565b146107ef576040517f08c379a00000000000000000000000000000000000000000000000000000000081526004016107e6906127db565b60405180910390fd5b600060646003856108009190612a82565b61080a9190612a51565b90506000606460038661081d9190612a82565b6108279190612a51565b9050603560020154838661083b91906129fb565b1461087b576040517f08c379a00000000000000000000000000000000000000000000000000000000081526004016108729061279b565b60405180910390fd5b60008673ffffffffffffffffffffffffffffffffffffffff1683876108a09190612adc565b6040516108ac906124fe565b60006040518083038185875af1925050503d80600081146108e9576040519150601f19603f3d011682016040523d82523d6000602084013e6108ee565b606091505b5050905080610932576040517f08c379a00000000000000000000000000000000000000000000000000000000081526004016109299061273b565b60405180910390fd5b60008573ffffffffffffffffffffffffffffffffffffffff1683866109579190612adc565b604051610963906124fe565b60006040518083038185875af1925050503d80600081146109a0576040519150601f19603f3d011682016040523d82523d6000602084013e6109a5565b606091505b50509050806109e9576040517f08c379a00000000000000000000000000000000000000000000000000000000081526004016109e09061273b565b60405180910390fd5b60003373ffffffffffffffffffffffffffffffffffffffff168486610a0e91906129fb565b604051610a1a906124fe565b60006040518083038185875af1925050503d8060008114610a57576040519150601f19603f3d011682016040523d82523d6000602084013e610a5c565b606091505b5050905080610aa0576040517f08c379a0000000000000000000000000000000000000000000000000000000008152600401610a979061273b565b60405180910390fd5b505050505050505050565b6035806000016040518060400160405290816000820160009054906101000a900473ffffffffffffffffffffffffffffffffffffffff1673ffffffffffffffffffffffffffffffffffffffff1673ffffffffffffffffffffffffffffffffffffffff1681526020016001820160009054906101000a900473ffffffffffffffffffffffffffffffffffffffff1673ffffffffffffffffffffffffffffffffffffffff1673ffffffffffffffffffffffffffffffffffffffff168152505090806002015490806003018054610b7e90612be8565b80601f0160208091040260200160405190810160405280929190818152602001828054610baa90612be8565b8015610bf75780601f10610bcc57610100808354040283529160200191610bf7565b820191906000526020600020905b815481529060010190602001808311610bda57829003601f168201915b5050505050908060040160009054906101000a900460ff16905084565b610c2089868587610392565b610c5f576040517f08c379a0000000000000000000000000000000000000000000000000000000008152600401610c569061269b565b60405180910390fd5b610c6b88868385610392565b610caa576040517f08c379a0000000000000000000000000000000000000000000000000000000008152600401610ca19061281b565b60405180910390fd5b8773ffffffffffffffffffffffffffffffffffffffff168973ffffffffffffffffffffffffffffffffffffffff161415610d19576040517f08c379a0000000000000000000000000000000000000000000000000000000008152600401610d10906125fb565b60405180910390fd5b600073ffffffffffffffffffffffffffffffffffffffff168973ffffffffffffffffffffffffffffffffffffffff1614158015610d835750600073ffffffffffffffffffffffffffffffffffffffff168873ffffffffffffffffffffffffffffffffffffffff1614155b610dc2576040517f08c379a0000000000000000000000000000000000000000000000000000000008152600401610db99061261b565b60405180910390fd5b863410158015610dd25750600087115b610e11576040517f08c379a0000000000000000000000000000000000000000000000000000000008152600401610e08906126db565b60405180910390fd5b88603560000160000160006101000a81548173ffffffffffffffffffffffffffffffffffffffff021916908373ffffffffffffffffffffffffffffffffffffffff16021790555087603560000160010160006101000a81548173ffffffffffffffffffffffffffffffffffffffff021916908373ffffffffffffffffffffffffffffffffffffffff1602179055508560356003019080519060200190610eb892919061190d565b50346035600201819055506000603560040160006101000a81548160ff02191690836002811115610eec57610eeb612ce1565b5b02179055508773ffffffffffffffffffffffffffffffffffffffff168973ffffffffffffffffffffffffffffffffffffffff167f77594c7fa34419efb1eaaabf29a576f56c88a9b7877b9c55a53c74da44ad609e34604051610f4e9190612927565b60405180910390a3505050505050505050565b60016002811115610f7557610f74612ce1565b5b603560040160009054906101000a900460ff166002811115610f9a57610f99612ce1565b5b14610fda576040517f08c379a0000000000000000000000000000000000000000000000000000000008152600401610fd19061275b565b60405180910390fd5b600080603560000160010160009054906101000a900473ffffffffffffffffffffffffffffffffffffffff1673ffffffffffffffffffffffffffffffffffffffff1660356002015460405161102e906124fe565b60006040518083038185875af1925050503d806000811461106b576040519150601f19603f3d011682016040523d82523d6000602084013e611070565b606091505b5091509150816110b5576040517f08c379a00000000000000000000000000000000000000000000000000000000081526004016110ac9061273b565b60405180910390fd5b5050565b603460009054906101000a900473ffffffffffffffffffffffffffffffffffffffff1681565b6110e76117c1565b6110f1600061183f565b565b6000603360009054906101000a900473ffffffffffffffffffffffffffffffffffffffff16905090565b603560000160000160009054906101000a900473ffffffffffffffffffffffffffffffffffffffff1673ffffffffffffffffffffffffffffffffffffffff163373ffffffffffffffffffffffffffffffffffffffff1614806111d25750603560000160010160009054906101000a900473ffffffffffffffffffffffffffffffffffffffff1673ffffffffffffffffffffffffffffffffffffffff163373ffffffffffffffffffffffffffffffffffffffff16145b611211576040517f08c379a00000000000000000000000000000000000000000000000000000000081526004016112089061267b565b60405180910390fd5b60028081111561122457611223612ce1565b5b603560040160009054906101000a900460ff16600281111561124957611248612ce1565b5b141561128a576040517f08c379a00000000000000000000000000000000000000000000000000000000081526004016112819061277b565b60405180910390fd5b3373ffffffffffffffffffffffffffffffffffffffff16603560000160000160009054906101000a900473ffffffffffffffffffffffffffffffffffffffff1673ffffffffffffffffffffffffffffffffffffffff1614156113185780603560040160006101000a81548160ff0219169083600281111561130e5761130d612ce1565b5b02179055506113ae565b6001600281111561132c5761132b612ce1565b5b81600281111561133f5761133e612ce1565b5b1415611380576040517f08c379a00000000000000000000000000000000000000000000000000000000081526004016113779061285b565b60405180910390fd5b80603560040160006101000a81548160ff021916908360028111156113a8576113a7612ce1565b5b02179055505b50565b6000806000806113c085611420565b925092509250600186828585604051600081526020016040526040516113e994939291906125b6565b6020604051602081039080840390855afa15801561140b573d6000803e3d6000fd5b50505060206040510351935050505092915050565b60008060006041845114611469576040517f08c379a00000000000000000000000000000000000000000000000000000000081526004016114609061289b565b60405180910390fd5b6020840151925060408401519150606084015160001a90509193909250565b8773ffffffffffffffffffffffffffffffffffffffff16603560000160000160009054906101000a900473ffffffffffffffffffffffffffffffffffffffff1673ffffffffffffffffffffffffffffffffffffffff161461151e576040517f08c379a00000000000000000000000000000000000000000000000000000000081526004016115159061265b565b60405180910390fd5b61152a88868587610392565b611569576040517f08c379a00000000000000000000000000000000000000000000000000000000081526004016115609061269b565b60405180910390fd5b8673ffffffffffffffffffffffffffffffffffffffff16603560000160010160009054906101000a900473ffffffffffffffffffffffffffffffffffffffff1673ffffffffffffffffffffffffffffffffffffffff16146115ff576040517f08c379a00000000000000000000000000000000000000000000000000000000081526004016115f6906127fb565b60405180910390fd5b61160b87868385610392565b61164a576040517f08c379a00000000000000000000000000000000000000000000000000000000081526004016116419061281b565b60405180910390fd5b60028081111561165d5761165c612ce1565b5b603560040160009054906101000a900460ff16600281111561168257611681612ce1565b5b146116c2576040517f08c379a00000000000000000000000000000000000000000000000000000000081526004016116b99061271b565b60405180910390fd5b85603460006101000a81548173ffffffffffffffffffffffffffffffffffffffff021916908373ffffffffffffffffffffffffffffffffffffffff1602179055505050505050505050565b6117156117c1565b600073ffffffffffffffffffffffffffffffffffffffff168173ffffffffffffffffffffffffffffffffffffffff161415611785576040517f08c379a000000000000000000000000000000000000000000000000000000000815260040161177c906126bb565b60405180910390fd5b61178e8161183f565b50565b6000816040516020016117a491906124d8565b604051602081830303815290604052805190602001209050919050565b6117c9611905565b73ffffffffffffffffffffffffffffffffffffffff166117e76110f3565b73ffffffffffffffffffffffffffffffffffffffff161461183d576040517f08c379a00000000000000000000000000000000000000000000000000000000081526004016118349061283b565b60405180910390fd5b565b6000603360009054906101000a900473ffffffffffffffffffffffffffffffffffffffff16905081603360006101000a81548173ffffffffffffffffffffffffffffffffffffffff021916908373ffffffffffffffffffffffffffffffffffffffff1602179055508173ffffffffffffffffffffffffffffffffffffffff168173ffffffffffffffffffffffffffffffffffffffff167f8be0079c531659141344cd1fd0a4f28419497f9722a3daafe3b4186f6b6457e060405160405180910390a35050565b600033905090565b82805461191990612be8565b90600052602060002090601f01602090048101928261193b5760008555611982565b82601f1061195457805160ff1916838001178555611982565b82800160010185558215611982579182015b82811115611981578251825591602001919060010190611966565b5b50905061198f9190611993565b5090565b5b808211156119ac576000816000905550600101611994565b5090565b60006119c36119be84612967565b612942565b9050828152602081018484840111156119df576119de612d73565b5b6119ea848285612ba6565b509392505050565b6000611a05611a0084612998565b612942565b905082815260208101848484011115611a2157611a20612d73565b5b611a2c848285612ba6565b509392505050565b600081359050611a43816131db565b92915050565b600081359050611a58816131f2565b92915050565b600081359050611a6d81613209565b92915050565b600082601f830112611a8857611a87612d6e565b5b8135611a988482602086016119b0565b91505092915050565b600081359050611ab081613220565b92915050565b600082601f830112611acb57611aca612d6e565b5b8135611adb8482602086016119f2565b91505092915050565b600081359050611af381613230565b92915050565b600060208284031215611b0f57611b0e612d7d565b5b6000611b1d84828501611a34565b91505092915050565b600080600080600080600080610100898b031215611b4757611b46612d7d565b5b6000611b558b828c01611a34565b9850506020611b668b828c01611a34565b9750506040611b778b828c01611a49565b965050606089013567ffffffffffffffff811115611b9857611b97612d78565b5b611ba48b828c01611ab6565b955050608089013567ffffffffffffffff811115611bc557611bc4612d78565b5b611bd18b828c01611a73565b94505060a0611be28b828c01611ae4565b93505060c089013567ffffffffffffffff811115611c0357611c02612d78565b5b611c0f8b828c01611a73565b92505060e0611c208b828c01611ae4565b9150509295985092959890939650565b60008060008060008060008060006101208a8c031215611c5357611c52612d7d565b5b6000611c618c828d01611a34565b9950506020611c728c828d01611a34565b9850506040611c838c828d01611ae4565b97505060608a013567ffffffffffffffff811115611ca457611ca3612d78565b5b611cb08c828d01611ab6565b96505060808a013567ffffffffffffffff811115611cd157611cd0612d78565b5b611cdd8c828d01611ab6565b95505060a08a013567ffffffffffffffff811115611cfe57611cfd612d78565b5b611d0a8c828d01611a73565b94505060c0611d1b8c828d01611ae4565b93505060e08a013567ffffffffffffffff811115611d3c57611d3b612d78565b5b611d488c828d01611a73565b925050610100611d5a8c828d01611ae4565b9150509295985092959850929598565b600080600060608486031215611d8357611d82612d7d565b5b6000611d9186828701611a34565b935050602084013567ffffffffffffffff811115611db257611db1612d78565b5b611dbe86828701611ab6565b9250506040611dcf86828701611ae4565b9150509250925092565b60008060008060808587031215611df357611df2612d7d565b5b6000611e0187828801611a34565b945050602085013567ffffffffffffffff811115611e2257611e21612d78565b5b611e2e87828801611ab6565b9350506040611e3f87828801611ae4565b925050606085013567ffffffffffffffff811115611e6057611e5f612d78565b5b611e6c87828801611a73565b91505092959194509250565b60008060008060808587031215611e9257611e91612d7d565b5b6000611ea087828801611a34565b9450506020611eb187828801611ae4565b9350506040611ec287828801611a34565b9250506060611ed387828801611ae4565b91505092959194509250565b600060208284031215611ef557611ef4612d7d565b5b6000611f0384828501611a5e565b91505092915050565b60008060408385031215611f2357611f22612d7d565b5b6000611f3185828601611a5e565b925050602083013567ffffffffffffffff811115611f5257611f51612d78565b5b611f5e85828601611a73565b9150509250929050565b600060208284031215611f7e57611f7d612d7d565b5b600082013567ffffffffffffffff811115611f9c57611f9b612d78565b5b611fa884828501611a73565b91505092915050565b600060208284031215611fc757611fc6612d7d565b5b6000611fd584828501611aa1565b91505092915050565b611fe781612b22565b82525050565b611ff681612b10565b82525050565b61200581612b10565b82525050565b61201c61201782612b10565b612c4b565b82525050565b61202b81612b34565b82525050565b61203a81612b40565b82525050565b61205161204c82612b40565b612c5d565b82525050565b61206081612b94565b82525050565b6000612071826129c9565b61207b81856129df565b935061208b818560208601612bb5565b61209481612d82565b840191505092915050565b60006120aa826129c9565b6120b481856129f0565b93506120c4818560208601612bb5565b80840191505092915050565b60006120dd6017836129df565b91506120e882612da0565b602082019050919050565b60006121006017836129df565b915061210b82612dc9565b602082019050919050565b6000612123600c836129df565b915061212e82612df2565b602082019050919050565b60006121466013836129df565b915061215182612e1b565b602082019050919050565b60006121696011836129df565b915061217482612e44565b602082019050919050565b600061218c601c836129f0565b915061219782612e6d565b601c82019050919050565b60006121af6016836129df565b91506121ba82612e96565b602082019050919050565b60006121d26026836129df565b91506121dd82612ebf565b604082019050919050565b60006121f5600d836129df565b915061220082612f0e565b602082019050919050565b6000612218600f836129df565b915061222382612f37565b602082019050919050565b600061223b600c836129df565b915061224682612f60565b602082019050919050565b600061225e6014836129df565b915061226982612f89565b602082019050919050565b6000612281600f836129df565b915061228c82612fb2565b602082019050919050565b60006122a46011836129df565b91506122af82612fdb565b602082019050919050565b60006122c76011836129df565b91506122d282613004565b602082019050919050565b60006122ea6017836129df565b91506122f58261302d565b602082019050919050565b600061230d600f836129df565b915061231882613056565b602082019050919050565b60006123306017836129df565b915061233b8261307f565b602082019050919050565b6000612353601a836129df565b915061235e826130a8565b602082019050919050565b60006123766020836129df565b9150612381826130d1565b602082019050919050565b60006123996022836129df565b91506123a4826130fa565b604082019050919050565b60006123bc6000836129d4565b91506123c782613149565b600082019050919050565b60006123df600e836129df565b91506123ea8261314c565b602082019050919050565b60006124026018836129df565b915061240d82613175565b602082019050919050565b60006124256011836129df565b91506124308261319e565b602082019050919050565b6040820160008201516124516000850182611fed565b5060208201516124646020850182611fed565b50505050565b61247381612b7d565b82525050565b61248a61248582612b7d565b612c79565b82525050565b61249981612b87565b82525050565b60006124ab828661200b565b6014820191506124bb828561209f565b91506124c78284612479565b602082019150819050949350505050565b60006124e38261217f565b91506124ef8284612040565b60208201915081905092915050565b6000612509826123af565b9150819050919050565b60006020820190506125286000830184611ffc565b92915050565b60006020820190506125436000830184611fde565b92915050565b600060208201905061255e6000830184612022565b92915050565b60006020820190506125796000830184612031565b92915050565b60006060820190506125946000830186612031565b6125a16020830185612031565b6125ae6040830184612490565b949350505050565b60006080820190506125cb6000830187612031565b6125d86020830186612490565b6125e56040830185612031565b6125f26060830184612031565b95945050505050565b60006020820190508181036000830152612614816120d0565b9050919050565b60006020820190508181036000830152612634816120f3565b9050919050565b6000602082019050818103600083015261265481612116565b9050919050565b6000602082019050818103600083015261267481612139565b9050919050565b600060208201905081810360008301526126948161215c565b9050919050565b600060208201905081810360008301526126b4816121a2565b9050919050565b600060208201905081810360008301526126d4816121c5565b9050919050565b600060208201905081810360008301526126f4816121e8565b9050919050565b600060208201905081810360008301526127148161220b565b9050919050565b600060208201905081810360008301526127348161222e565b9050919050565b6000602082019050818103600083015261275481612251565b9050919050565b6000602082019050818103600083015261277481612274565b9050919050565b6000602082019050818103600083015261279481612297565b9050919050565b600060208201905081810360008301526127b4816122ba565b9050919050565b600060208201905081810360008301526127d4816122dd565b9050919050565b600060208201905081810360008301526127f481612300565b9050919050565b6000602082019050818103600083015261281481612323565b9050919050565b6000602082019050818103600083015261283481612346565b9050919050565b6000602082019050818103600083015261285481612369565b9050919050565b600060208201905081810360008301526128748161238c565b9050919050565b60006020820190508181036000830152612894816123d2565b9050919050565b600060208201905081810360008301526128b4816123f5565b9050919050565b600060208201905081810360008301526128d481612418565b9050919050565b600060a0820190506128f0600083018761243b565b6128fd604083018661246a565b818103606083015261290f8185612066565b905061291e6080830184612057565b95945050505050565b600060208201905061293c600083018461246a565b92915050565b600061294c61295d565b90506129588282612c1a565b919050565b6000604051905090565b600067ffffffffffffffff82111561298257612981612d3f565b5b61298b82612d82565b9050602081019050919050565b600067ffffffffffffffff8211156129b3576129b2612d3f565b5b6129bc82612d82565b9050602081019050919050565b600081519050919050565b600081905092915050565b600082825260208201905092915050565b600081905092915050565b6000612a0682612b7d565b9150612a1183612b7d565b9250827fffffffffffffffffffffffffffffffffffffffffffffffffffffffffffffffff03821115612a4657612a45612c83565b5b828201905092915050565b6000612a5c82612b7d565b9150612a6783612b7d565b925082612a7757612a76612cb2565b5b828204905092915050565b6000612a8d82612b7d565b9150612a9883612b7d565b9250817fffffffffffffffffffffffffffffffffffffffffffffffffffffffffffffffff0483118215151615612ad157612ad0612c83565b5b828202905092915050565b6000612ae782612b7d565b9150612af283612b7d565b925082821015612b0557612b04612c83565b5b828203905092915050565b6000612b1b82612b5d565b9050919050565b6000612b2d82612b5d565b9050919050565b60008115159050919050565b6000819050919050565b6000819050612b58826131c7565b919050565b600073ffffffffffffffffffffffffffffffffffffffff82169050919050565b6000819050919050565b600060ff82169050919050565b6000612b9f82612b4a565b9050919050565b82818337600083830152505050565b60005b83811015612bd3578082015181840152602081019050612bb8565b83811115612be2576000848401525b50505050565b60006002820490506001821680612c0057607f821691505b60208210811415612c1457612c13612d10565b5b50919050565b612c2382612d82565b810181811067ffffffffffffffff82111715612c4257612c41612d3f565b5b80604052505050565b6000612c5682612c67565b9050919050565b6000819050919050565b6000612c7282612d93565b9050919050565b6000819050919050565b7f4e487b7100000000000000000000000000000000000000000000000000000000600052601160045260246000fd5b7f4e487b7100000000000000000000000000000000000000000000000000000000600052601260045260246000fd5b7f4e487b7100000000000000000000000000000000000000000000000000000000600052602160045260246000fd5b7f4e487b7100000000000000000000000000000000000000000000000000000000600052602260045260246000fd5b7f4e487b7100000000000000000000000000000000000000000000000000000000600052604160045260246000fd5b600080fd5b600080fd5b600080fd5b600080fd5b6000601f19601f8301169050919050565b60008160601b9050919050565b7f616464726573732063616e27742062652073616d652021000000000000000000600082015250565b7f6164647265737365732063616e2774206265207a65726f000000000000000000600082015250565b7f6e6f742064697370757465720000000000000000000000000000000000000000600082015250565b7f6e6f7420746865207265616c20636c69656e7400000000000000000000000000600082015250565b7f4e6f7420612076616c6964207061727479000000000000000000000000000000600082015250565b7f19457468657265756d205369676e6564204d6573736167653a0a333200000000600082015250565b7f436c69656e74206973206e6f74206167726565696e6700000000000000000000600082015250565b7f4f776e61626c653a206e6577206f776e657220697320746865207a65726f206160008201527f6464726573730000000000000000000000000000000000000000000000000000602082015250565b7f63616e2774206265206c65737300000000000000000000000000000000000000600082015250565b7f4e6f742076616c69642050617274790000000000000000000000000000000000600082015250565b7f4e6f742044697370757465640000000000000000000000000000000000000000600082015250565b7f4661696c656420746f2073656e64204574686572000000000000000000000000600082015250565b7f4e6f74206d61726b656420646f6e650000000000000000000000000000000000600082015250565b7f4d61726b65642064697370757465642021000000000000000000000000000000600082015250565b7f4e6f742076616c696420416d6f756e7473000000000000000000000000000000600082015250565b7f6e6f7420746865206f726967696e616c207369676e6572000000000000000000600082015250565b7f616d6f756e742065786365656465640000000000000000000000000000000000600082015250565b7f6e6f7420746865207265616c20667265656c616e636572000000000000000000600082015250565b7f667265656c616e636572206973206e6f74206167726565696e67000000000000600082015250565b7f4f776e61626c653a2063616c6c6572206973206e6f7420746865206f776e6572600082015250565b7f6f6e6c7920636c69656e742063616e206d61726b2074686520776f726b20646f60008201527f6e65000000000000000000000000000000000000000000000000000000000000602082015250565b50565b7f4e6f7420696e2064697370757465000000000000000000000000000000000000600082015250565b7f696e76616c6964207369676e6174757265206c656e6774680000000000000000600082015250565b7f7369676e61747572652065787069726564000000000000000000000000000000600082015250565b600381106131d8576131d7612ce1565b5b50565b6131e481612b10565b81146131ef57600080fd5b50565b6131fb81612b22565b811461320657600080fd5b50565b61321281612b40565b811461321d57600080fd5b50565b6003811061322d57600080fd5b50565b61323981612b7d565b811461324457600080fd5b5056fea2646970667358221220d0e1ff5e4bde91bff1cafb976414035498178b135130240f069456724ece6b2a64736f6c63430008060033","opcodes":"PUSH1 0x80 PUSH1 0x40 MSTORE CALLVALUE DUP1 ISZERO PUSH3 0x11 JUMPI PUSH1 0x0 DUP1 REVERT JUMPDEST POP PUSH3 0x32 PUSH3 0x26 PUSH3 0x38 PUSH1 0x20 SHL PUSH1 0x20 SHR JUMP JUMPDEST PUSH3 0x40 PUSH1 0x20 SHL PUSH1 0x20 SHR JUMP JUMPDEST PUSH3 0x106 JUMP JUMPDEST PUSH1 0x0 CALLER SWAP1 POP SWAP1 JUMP JUMPDEST PUSH1 0x0 PUSH1 0x33 PUSH1 0x0 SWAP1 SLOAD SWAP1 PUSH2 0x100 EXP SWAP1 DIV PUSH20 0xFFFFFFFFFFFFFFFFFFFFFFFFFFFFFFFFFFFFFFFF AND SWAP1 POP DUP2 PUSH1 0x33 PUSH1 0x0 PUSH2 0x100 EXP DUP2 SLOAD DUP2 PUSH20 0xFFFFFFFFFFFFFFFFFFFFFFFFFFFFFFFFFFFFFFFF MUL NOT AND SWAP1 DUP4 PUSH20 0xFFFFFFFFFFFFFFFFFFFFFFFFFFFFFFFFFFFFFFFF AND MUL OR SWAP1 SSTORE POP DUP2 PUSH20 0xFFFFFFFFFFFFFFFFFFFFFFFFFFFFFFFFFFFFFFFF AND DUP2 PUSH20 0xFFFFFFFFFFFFFFFFFFFFFFFFFFFFFFFFFFFFFFFF AND PUSH32 0x8BE0079C531659141344CD1FD0A4F28419497F9722A3DAAFE3B4186F6B6457E0 PUSH1 0x40 MLOAD PUSH1 0x40 MLOAD DUP1 SWAP2 SUB SWAP1 LOG3 POP POP JUMP JUMPDEST PUSH2 0x327D DUP1 PUSH3 0x116 PUSH1 0x0 CODECOPY PUSH1 0x0 RETURN INVALID PUSH1 0x80 PUSH1 0x40 MSTORE PUSH1 0x4 CALLDATASIZE LT PUSH2 0xE8 JUMPI PUSH1 0x0 CALLDATALOAD PUSH1 0xE0 SHR DUP1 PUSH4 0x715018A6 GT PUSH2 0x8A JUMPI DUP1 PUSH4 0xA7BB5803 GT PUSH2 0x59 JUMPI DUP1 PUSH4 0xA7BB5803 EQ PUSH2 0x2C4 JUMPI DUP1 PUSH4 0xCD4C6707 EQ PUSH2 0x303 JUMPI DUP1 PUSH4 0xF2FDE38B EQ PUSH2 0x32C JUMPI DUP1 PUSH4 0xFA540801 EQ PUSH2 0x355 JUMPI PUSH2 0xE8 JUMP JUMPDEST DUP1 PUSH4 0x715018A6 EQ PUSH2 0x21C JUMPI DUP1 PUSH4 0x8DA5CB5B EQ PUSH2 0x233 JUMPI DUP1 PUSH4 0x9798B890 EQ PUSH2 0x25E JUMPI DUP1 PUSH4 0x97ABA7F9 EQ PUSH2 0x287 JUMPI PUSH2 0xE8 JUMP JUMPDEST DUP1 PUSH4 0x2D1D2418 GT PUSH2 0xC6 JUMPI DUP1 PUSH4 0x2D1D2418 EQ PUSH2 0x190 JUMPI DUP1 PUSH4 0x32D4B991 EQ PUSH2 0x1BE JUMPI DUP1 PUSH4 0x3CCFD60B EQ PUSH2 0x1DA JUMPI DUP1 PUSH4 0x6AC56103 EQ PUSH2 0x1F1 JUMPI PUSH2 0xE8 JUMP JUMPDEST DUP1 PUSH4 0x7546F1A EQ PUSH2 0xED JUMPI DUP1 PUSH4 0x82D8F29 EQ PUSH2 0x12A JUMPI DUP1 PUSH4 0x1576F060 EQ PUSH2 0x167 JUMPI JUMPDEST PUSH1 0x0 DUP1 REVERT JUMPDEST CALLVALUE DUP1 ISZERO PUSH2 0xF9 JUMPI PUSH1 0x0 DUP1 REVERT JUMPDEST POP PUSH2 0x114 PUSH1 0x4 DUP1 CALLDATASIZE SUB DUP2 ADD SWAP1 PUSH2 0x10F SWAP2 SWAP1 PUSH2 0x1DD9 JUMP JUMPDEST PUSH2 0x392 JUMP JUMPDEST PUSH1 0x40 MLOAD PUSH2 0x121 SWAP2 SWAP1 PUSH2 0x2549 JUMP JUMPDEST PUSH1 0x40 MLOAD DUP1 SWAP2 SUB SWAP1 RETURN JUMPDEST CALLVALUE DUP1 ISZERO PUSH2 0x136 JUMPI PUSH1 0x0 DUP1 REVERT JUMPDEST POP PUSH2 0x151 PUSH1 0x4 DUP1 CALLDATASIZE SUB DUP2 ADD SWAP1 PUSH2 0x14C SWAP2 SWAP1 PUSH2 0x1D6A JUMP JUMPDEST PUSH2 0x477 JUMP JUMPDEST PUSH1 0x40 MLOAD PUSH2 0x15E SWAP2 SWAP1 PUSH2 0x2564 JUMP JUMPDEST PUSH1 0x40 MLOAD DUP1 SWAP2 SUB SWAP1 RETURN JUMPDEST CALLVALUE DUP1 ISZERO PUSH2 0x173 JUMPI PUSH1 0x0 DUP1 REVERT JUMPDEST POP PUSH2 0x18E PUSH1 0x4 DUP1 CALLDATASIZE SUB DUP2 ADD SWAP1 PUSH2 0x189 SWAP2 SWAP1 PUSH2 0x1E78 JUMP JUMPDEST PUSH2 0x4AD JUMP JUMPDEST STOP JUMPDEST CALLVALUE DUP1 ISZERO PUSH2 0x19C JUMPI PUSH1 0x0 DUP1 REVERT JUMPDEST POP PUSH2 0x1A5 PUSH2 0xAAB JUMP JUMPDEST PUSH1 0x40 MLOAD PUSH2 0x1B5 SWAP5 SWAP4 SWAP3 SWAP2 SWAP1 PUSH2 0x28DB JUMP JUMPDEST PUSH1 0x40 MLOAD DUP1 SWAP2 SUB SWAP1 RETURN JUMPDEST PUSH2 0x1D8 PUSH1 0x4 DUP1 CALLDATASIZE SUB DUP2 ADD SWAP1 PUSH2 0x1D3 SWAP2 SWAP1 PUSH2 0x1C30 JUMP JUMPDEST PUSH2 0xC14 JUMP JUMPDEST STOP JUMPDEST CALLVALUE DUP1 ISZERO PUSH2 0x1E6 JUMPI PUSH1 0x0 DUP1 REVERT JUMPDEST POP PUSH2 0x1EF PUSH2 0xF61 JUMP JUMPDEST STOP JUMPDEST CALLVALUE DUP1 ISZERO PUSH2 0x1FD JUMPI PUSH1 0x0 DUP1 REVERT JUMPDEST POP PUSH2 0x206 PUSH2 0x10B9 JUMP JUMPDEST PUSH1 0x40 MLOAD PUSH2 0x213 SWAP2 SWAP1 PUSH2 0x252E JUMP JUMPDEST PUSH1 0x40 MLOAD DUP1 SWAP2 SUB SWAP1 RETURN JUMPDEST CALLVALUE DUP1 ISZERO PUSH2 0x228 JUMPI PUSH1 0x0 DUP1 REVERT JUMPDEST POP PUSH2 0x231 PUSH2 0x10DF JUMP JUMPDEST STOP JUMPDEST CALLVALUE DUP1 ISZERO PUSH2 0x23F JUMPI PUSH1 0x0 DUP1 REVERT JUMPDEST POP PUSH2 0x248 PUSH2 0x10F3 JUMP JUMPDEST PUSH1 0x40 MLOAD PUSH2 0x255 SWAP2 SWAP1 PUSH2 0x2513 JUMP JUMPDEST PUSH1 0x40 MLOAD DUP1 SWAP2 SUB SWAP1 RETURN JUMPDEST CALLVALUE DUP1 ISZERO PUSH2 0x26A JUMPI PUSH1 0x0 DUP1 REVERT JUMPDEST POP PUSH2 0x285 PUSH1 0x4 DUP1 CALLDATASIZE SUB DUP2 ADD SWAP1 PUSH2 0x280 SWAP2 SWAP1 PUSH2 0x1FB1 JUMP JUMPDEST PUSH2 0x111D JUMP JUMPDEST STOP JUMPDEST CALLVALUE DUP1 ISZERO PUSH2 0x293 JUMPI PUSH1 0x0 DUP1 REVERT JUMPDEST POP PUSH2 0x2AE PUSH1 0x4 DUP1 CALLDATASIZE SUB DUP2 ADD SWAP1 PUSH2 0x2A9 SWAP2 SWAP1 PUSH2 0x1F0C JUMP JUMPDEST PUSH2 0x13B1 JUMP JUMPDEST PUSH1 0x40 MLOAD PUSH2 0x2BB SWAP2 SWAP1 PUSH2 0x2513 JUMP JUMPDEST PUSH1 0x40 MLOAD DUP1 SWAP2 SUB SWAP1 RETURN JUMPDEST CALLVALUE DUP1 ISZERO PUSH2 0x2D0 JUMPI PUSH1 0x0 DUP1 REVERT JUMPDEST POP PUSH2 0x2EB PUSH1 0x4 DUP1 CALLDATASIZE SUB DUP2 ADD SWAP1 PUSH2 0x2E6 SWAP2 SWAP1 PUSH2 0x1F68 JUMP JUMPDEST PUSH2 0x1420 JUMP JUMPDEST PUSH1 0x40 MLOAD PUSH2 0x2FA SWAP4 SWAP3 SWAP2 SWAP1 PUSH2 0x257F JUMP JUMPDEST PUSH1 0x40 MLOAD DUP1 SWAP2 SUB SWAP1 RETURN JUMPDEST CALLVALUE DUP1 ISZERO PUSH2 0x30F JUMPI PUSH1 0x0 DUP1 REVERT JUMPDEST POP PUSH2 0x32A PUSH1 0x4 DUP1 CALLDATASIZE SUB DUP2 ADD SWAP1 PUSH2 0x325 SWAP2 SWAP1 PUSH2 0x1B26 JUMP JUMPDEST PUSH2 0x1488 JUMP JUMPDEST STOP JUMPDEST CALLVALUE DUP1 ISZERO PUSH2 0x338 JUMPI PUSH1 0x0 DUP1 REVERT JUMPDEST POP PUSH2 0x353 PUSH1 0x4 DUP1 CALLDATASIZE SUB DUP2 ADD SWAP1 PUSH2 0x34E SWAP2 SWAP1 PUSH2 0x1AF9 JUMP JUMPDEST PUSH2 0x170D JUMP JUMPDEST STOP JUMPDEST CALLVALUE DUP1 ISZERO PUSH2 0x361 JUMPI PUSH1 0x0 DUP1 REVERT JUMPDEST POP PUSH2 0x37C PUSH1 0x4 DUP1 CALLDATASIZE SUB DUP2 ADD SWAP1 PUSH2 0x377 SWAP2 SWAP1 PUSH2 0x1EDF JUMP JUMPDEST PUSH2 0x1791 JUMP JUMPDEST PUSH1 0x40 MLOAD PUSH2 0x389 SWAP2 SWAP1 PUSH2 0x2564 JUMP JUMPDEST PUSH1 0x40 MLOAD DUP1 SWAP2 SUB SWAP1 RETURN JUMPDEST PUSH1 0x0 DUP1 PUSH2 0x3A0 DUP7 DUP7 DUP7 PUSH2 0x477 JUMP JUMPDEST SWAP1 POP PUSH1 0x0 PUSH2 0x3AD DUP3 PUSH2 0x1791 JUMP JUMPDEST SWAP1 POP DUP7 PUSH20 0xFFFFFFFFFFFFFFFFFFFFFFFFFFFFFFFFFFFFFFFF AND PUSH2 0x3D0 DUP3 DUP7 PUSH2 0x13B1 JUMP JUMPDEST PUSH20 0xFFFFFFFFFFFFFFFFFFFFFFFFFFFFFFFFFFFFFFFF AND EQ PUSH2 0x426 JUMPI PUSH1 0x40 MLOAD PUSH32 0x8C379A000000000000000000000000000000000000000000000000000000000 DUP2 MSTORE PUSH1 0x4 ADD PUSH2 0x41D SWAP1 PUSH2 0x27BB JUMP JUMPDEST PUSH1 0x40 MLOAD DUP1 SWAP2 SUB SWAP1 REVERT JUMPDEST TIMESTAMP DUP6 LT ISZERO PUSH2 0x469 JUMPI PUSH1 0x40 MLOAD PUSH32 0x8C379A000000000000000000000000000000000000000000000000000000000 DUP2 MSTORE PUSH1 0x4 ADD PUSH2 0x460 SWAP1 PUSH2 0x28BB JUMP JUMPDEST PUSH1 0x40 MLOAD DUP1 SWAP2 SUB SWAP1 REVERT JUMPDEST PUSH1 0x1 SWAP3 POP POP POP SWAP5 SWAP4 POP POP POP POP JUMP JUMPDEST PUSH1 0x0 DUP4 DUP4 DUP4 PUSH1 0x40 MLOAD PUSH1 0x20 ADD PUSH2 0x48E SWAP4 SWAP3 SWAP2 SWAP1 PUSH2 0x249F JUMP JUMPDEST PUSH1 0x40 MLOAD PUSH1 0x20 DUP2 DUP4 SUB SUB DUP2 MSTORE SWAP1 PUSH1 0x40 MSTORE DUP1 MLOAD SWAP1 PUSH1 0x20 ADD KECCAK256 SWAP1 POP SWAP4 SWAP3 POP POP POP JUMP JUMPDEST PUSH1 0x34 PUSH1 0x0 SWAP1 SLOAD SWAP1 PUSH2 0x100 EXP SWAP1 DIV PUSH20 0xFFFFFFFFFFFFFFFFFFFFFFFFFFFFFFFFFFFFFFFF AND PUSH20 0xFFFFFFFFFFFFFFFFFFFFFFFFFFFFFFFFFFFFFFFF AND CALLER PUSH20 0xFFFFFFFFFFFFFFFFFFFFFFFFFFFFFFFFFFFFFFFF AND EQ PUSH2 0x53D JUMPI PUSH1 0x40 MLOAD PUSH32 0x8C379A000000000000000000000000000000000000000000000000000000000 DUP2 MSTORE PUSH1 0x4 ADD PUSH2 0x534 SWAP1 PUSH2 0x263B JUMP JUMPDEST PUSH1 0x40 MLOAD DUP1 SWAP2 SUB SWAP1 REVERT JUMPDEST PUSH1 0x2 DUP1 DUP2 GT ISZERO PUSH2 0x550 JUMPI PUSH2 0x54F PUSH2 0x2CE1 JUMP JUMPDEST JUMPDEST PUSH1 0x35 PUSH1 0x4 ADD PUSH1 0x0 SWAP1 SLOAD SWAP1 PUSH2 0x100 EXP SWAP1 DIV PUSH1 0xFF AND PUSH1 0x2 DUP2 GT ISZERO PUSH2 0x575 JUMPI PUSH2 0x574 PUSH2 0x2CE1 JUMP JUMPDEST JUMPDEST EQ PUSH2 0x5B5 JUMPI PUSH1 0x40 MLOAD PUSH32 0x8C379A000000000000000000000000000000000000000000000000000000000 DUP2 MSTORE PUSH1 0x4 ADD PUSH2 0x5AC SWAP1 PUSH2 0x287B JUMP JUMPDEST PUSH1 0x40 MLOAD DUP1 SWAP2 SUB SWAP1 REVERT JUMPDEST PUSH1 0x35 PUSH1 0x0 ADD PUSH1 0x0 ADD PUSH1 0x0 SWAP1 SLOAD SWAP1 PUSH2 0x100 EXP SWAP1 DIV PUSH20 0xFFFFFFFFFFFFFFFFFFFFFFFFFFFFFFFFFFFFFFFF AND PUSH20 0xFFFFFFFFFFFFFFFFFFFFFFFFFFFFFFFFFFFFFFFF AND DUP5 PUSH20 0xFFFFFFFFFFFFFFFFFFFFFFFFFFFFFFFFFFFFFFFF AND EQ DUP1 PUSH2 0x66A JUMPI POP PUSH1 0x35 PUSH1 0x0 ADD PUSH1 0x1 ADD PUSH1 0x0 SWAP1 SLOAD SWAP1 PUSH2 0x100 EXP SWAP1 DIV PUSH20 0xFFFFFFFFFFFFFFFFFFFFFFFFFFFFFFFFFFFFFFFF AND PUSH20 0xFFFFFFFFFFFFFFFFFFFFFFFFFFFFFFFFFFFFFFFF AND DUP5 PUSH20 0xFFFFFFFFFFFFFFFFFFFFFFFFFFFFFFFFFFFFFFFF AND EQ JUMPDEST PUSH2 0x6A9 JUMPI PUSH1 0x40 MLOAD PUSH32 0x8C379A000000000000000000000000000000000000000000000000000000000 DUP2 MSTORE PUSH1 0x4 ADD PUSH2 0x6A0 SWAP1 PUSH2 0x26FB JUMP JUMPDEST PUSH1 0x40 MLOAD DUP1 SWAP2 SUB SWAP1 REVERT JUMPDEST PUSH1 0x35 PUSH1 0x0 ADD PUSH1 0x0 ADD PUSH1 0x0 SWAP1 SLOAD SWAP1 PUSH2 0x100 EXP SWAP1 DIV PUSH20 0xFFFFFFFFFFFFFFFFFFFFFFFFFFFFFFFFFFFFFFFF AND PUSH20 0xFFFFFFFFFFFFFFFFFFFFFFFFFFFFFFFFFFFFFFFF AND DUP3 PUSH20 0xFFFFFFFFFFFFFFFFFFFFFFFFFFFFFFFFFFFFFFFF AND EQ DUP1 PUSH2 0x75E JUMPI POP PUSH1 0x35 PUSH1 0x0 ADD PUSH1 0x1 ADD PUSH1 0x0 SWAP1 SLOAD SWAP1 PUSH2 0x100 EXP SWAP1 DIV PUSH20 0xFFFFFFFFFFFFFFFFFFFFFFFFFFFFFFFFFFFFFFFF AND PUSH20 0xFFFFFFFFFFFFFFFFFFFFFFFFFFFFFFFFFFFFFFFF AND DUP3 PUSH20 0xFFFFFFFFFFFFFFFFFFFFFFFFFFFFFFFFFFFFFFFF AND EQ JUMPDEST PUSH2 0x79D JUMPI PUSH1 0x40 MLOAD PUSH32 0x8C379A000000000000000000000000000000000000000000000000000000000 DUP2 MSTORE PUSH1 0x4 ADD PUSH2 0x794 SWAP1 PUSH2 0x26FB JUMP JUMPDEST PUSH1 0x40 MLOAD DUP1 SWAP2 SUB SWAP1 REVERT JUMPDEST PUSH1 0x35 PUSH1 0x2 ADD SLOAD DUP2 DUP5 PUSH2 0x7AF SWAP2 SWAP1 PUSH2 0x29FB JUMP JUMPDEST EQ PUSH2 0x7EF JUMPI PUSH1 0x40 MLOAD PUSH32 0x8C379A000000000000000000000000000000000000000000000000000000000 DUP2 MSTORE PUSH1 0x4 ADD PUSH2 0x7E6 SWAP1 PUSH2 0x27DB JUMP JUMPDEST PUSH1 0x40 MLOAD DUP1 SWAP2 SUB SWAP1 REVERT JUMPDEST PUSH1 0x0 PUSH1 0x64 PUSH1 0x3 DUP6 PUSH2 0x800 SWAP2 SWAP1 PUSH2 0x2A82 JUMP JUMPDEST PUSH2 0x80A SWAP2 SWAP1 PUSH2 0x2A51 JUMP JUMPDEST SWAP1 POP PUSH1 0x0 PUSH1 0x64 PUSH1 0x3 DUP7 PUSH2 0x81D SWAP2 SWAP1 PUSH2 0x2A82 JUMP JUMPDEST PUSH2 0x827 SWAP2 SWAP1 PUSH2 0x2A51 JUMP JUMPDEST SWAP1 POP PUSH1 0x35 PUSH1 0x2 ADD SLOAD DUP4 DUP7 PUSH2 0x83B SWAP2 SWAP1 PUSH2 0x29FB JUMP JUMPDEST EQ PUSH2 0x87B JUMPI PUSH1 0x40 MLOAD PUSH32 0x8C379A000000000000000000000000000000000000000000000000000000000 DUP2 MSTORE PUSH1 0x4 ADD PUSH2 0x872 SWAP1 PUSH2 0x279B JUMP JUMPDEST PUSH1 0x40 MLOAD DUP1 SWAP2 SUB SWAP1 REVERT JUMPDEST PUSH1 0x0 DUP7 PUSH20 0xFFFFFFFFFFFFFFFFFFFFFFFFFFFFFFFFFFFFFFFF AND DUP4 DUP8 PUSH2 0x8A0 SWAP2 SWAP1 PUSH2 0x2ADC JUMP JUMPDEST PUSH1 0x40 MLOAD PUSH2 0x8AC SWAP1 PUSH2 0x24FE JUMP JUMPDEST PUSH1 0x0 PUSH1 0x40 MLOAD DUP1 DUP4 SUB DUP2 DUP6 DUP8 GAS CALL SWAP3 POP POP POP RETURNDATASIZE DUP1 PUSH1 0x0 DUP2 EQ PUSH2 0x8E9 JUMPI PUSH1 0x40 MLOAD SWAP2 POP PUSH1 0x1F NOT PUSH1 0x3F RETURNDATASIZE ADD AND DUP3 ADD PUSH1 0x40 MSTORE RETURNDATASIZE DUP3 MSTORE RETURNDATASIZE PUSH1 0x0 PUSH1 0x20 DUP5 ADD RETURNDATACOPY PUSH2 0x8EE JUMP JUMPDEST PUSH1 0x60 SWAP2 POP JUMPDEST POP POP SWAP1 POP DUP1 PUSH2 0x932 JUMPI PUSH1 0x40 MLOAD PUSH32 0x8C379A000000000000000000000000000000000000000000000000000000000 DUP2 MSTORE PUSH1 0x4 ADD PUSH2 0x929 SWAP1 PUSH2 0x273B JUMP JUMPDEST PUSH1 0x40 MLOAD DUP1 SWAP2 SUB SWAP1 REVERT JUMPDEST PUSH1 0x0 DUP6 PUSH20 0xFFFFFFFFFFFFFFFFFFFFFFFFFFFFFFFFFFFFFFFF AND DUP4 DUP7 PUSH2 0x957 SWAP2 SWAP1 PUSH2 0x2ADC JUMP JUMPDEST PUSH1 0x40 MLOAD PUSH2 0x963 SWAP1 PUSH2 0x24FE JUMP JUMPDEST PUSH1 0x0 PUSH1 0x40 MLOAD DUP1 DUP4 SUB DUP2 DUP6 DUP8 GAS CALL SWAP3 POP POP POP RETURNDATASIZE DUP1 PUSH1 0x0 DUP2 EQ PUSH2 0x9A0 JUMPI PUSH1 0x40 MLOAD SWAP2 POP PUSH1 0x1F NOT PUSH1 0x3F RETURNDATASIZE ADD AND DUP3 ADD PUSH1 0x40 MSTORE RETURNDATASIZE DUP3 MSTORE RETURNDATASIZE PUSH1 0x0 PUSH1 0x20 DUP5 ADD RETURNDATACOPY PUSH2 0x9A5 JUMP JUMPDEST PUSH1 0x60 SWAP2 POP JUMPDEST POP POP SWAP1 POP DUP1 PUSH2 0x9E9 JUMPI PUSH1 0x40 MLOAD PUSH32 0x8C379A000000000000000000000000000000000000000000000000000000000 DUP2 MSTORE PUSH1 0x4 ADD PUSH2 0x9E0 SWAP1 PUSH2 0x273B JUMP JUMPDEST PUSH1 0x40 MLOAD DUP1 SWAP2 SUB SWAP1 REVERT JUMPDEST PUSH1 0x0 CALLER PUSH20 0xFFFFFFFFFFFFFFFFFFFFFFFFFFFFFFFFFFFFFFFF AND DUP5 DUP7 PUSH2 0xA0E SWAP2 SWAP1 PUSH2 0x29FB JUMP JUMPDEST PUSH1 0x40 MLOAD PUSH2 0xA1A SWAP1 PUSH2 0x24FE JUMP JUMPDEST PUSH1 0x0 PUSH1 0x40 MLOAD DUP1 DUP4 SUB DUP2 DUP6 DUP8 GAS CALL SWAP3 POP POP POP RETURNDATASIZE DUP1 PUSH1 0x0 DUP2 EQ PUSH2 0xA57 JUMPI PUSH1 0x40 MLOAD SWAP2 POP PUSH1 0x1F NOT PUSH1 0x3F RETURNDATASIZE ADD AND DUP3 ADD PUSH1 0x40 MSTORE RETURNDATASIZE DUP3 MSTORE RETURNDATASIZE PUSH1 0x0 PUSH1 0x20 DUP5 ADD RETURNDATACOPY PUSH2 0xA5C JUMP JUMPDEST PUSH1 0x60 SWAP2 POP JUMPDEST POP POP SWAP1 POP DUP1 PUSH2 0xAA0 JUMPI PUSH1 0x40 MLOAD PUSH32 0x8C379A000000000000000000000000000000000000000000000000000000000 DUP2 MSTORE PUSH1 0x4 ADD PUSH2 0xA97 SWAP1 PUSH2 0x273B JUMP JUMPDEST PUSH1 0x40 MLOAD DUP1 SWAP2 SUB SWAP1 REVERT JUMPDEST POP POP POP POP POP POP POP POP POP JUMP JUMPDEST PUSH1 0x35 DUP1 PUSH1 0x0 ADD PUSH1 0x40 MLOAD DUP1 PUSH1 0x40 ADD PUSH1 0x40 MSTORE SWAP1 DUP2 PUSH1 0x0 DUP3 ADD PUSH1 0x0 SWAP1 SLOAD SWAP1 PUSH2 0x100 EXP SWAP1 DIV PUSH20 0xFFFFFFFFFFFFFFFFFFFFFFFFFFFFFFFFFFFFFFFF AND PUSH20 0xFFFFFFFFFFFFFFFFFFFFFFFFFFFFFFFFFFFFFFFF AND PUSH20 0xFFFFFFFFFFFFFFFFFFFFFFFFFFFFFFFFFFFFFFFF AND DUP2 MSTORE PUSH1 0x20 ADD PUSH1 0x1 DUP3 ADD PUSH1 0x0 SWAP1 SLOAD SWAP1 PUSH2 0x100 EXP SWAP1 DIV PUSH20 0xFFFFFFFFFFFFFFFFFFFFFFFFFFFFFFFFFFFFFFFF AND PUSH20 0xFFFFFFFFFFFFFFFFFFFFFFFFFFFFFFFFFFFFFFFF AND PUSH20 0xFFFFFFFFFFFFFFFFFFFFFFFFFFFFFFFFFFFFFFFF AND DUP2 MSTORE POP POP SWAP1 DUP1 PUSH1 0x2 ADD SLOAD SWAP1 DUP1 PUSH1 0x3 ADD DUP1 SLOAD PUSH2 0xB7E SWAP1 PUSH2 0x2BE8 JUMP JUMPDEST DUP1 PUSH1 0x1F ADD PUSH1 0x20 DUP1 SWAP2 DIV MUL PUSH1 0x20 ADD PUSH1 0x40 MLOAD SWAP1 DUP2 ADD PUSH1 0x40 MSTORE DUP1 SWAP3 SWAP2 SWAP1 DUP2 DUP2 MSTORE PUSH1 0x20 ADD DUP3 DUP1 SLOAD PUSH2 0xBAA SWAP1 PUSH2 0x2BE8 JUMP JUMPDEST DUP1 ISZERO PUSH2 0xBF7 JUMPI DUP1 PUSH1 0x1F LT PUSH2 0xBCC JUMPI PUSH2 0x100 DUP1 DUP4 SLOAD DIV MUL DUP4 MSTORE SWAP2 PUSH1 0x20 ADD SWAP2 PUSH2 0xBF7 JUMP JUMPDEST DUP3 ADD SWAP2 SWAP1 PUSH1 0x0 MSTORE PUSH1 0x20 PUSH1 0x0 KECCAK256 SWAP1 JUMPDEST DUP2 SLOAD DUP2 MSTORE SWAP1 PUSH1 0x1 ADD SWAP1 PUSH1 0x20 ADD DUP1 DUP4 GT PUSH2 0xBDA JUMPI DUP3 SWAP1 SUB PUSH1 0x1F AND DUP3 ADD SWAP2 JUMPDEST POP POP POP POP POP SWAP1 DUP1 PUSH1 0x4 ADD PUSH1 0x0 SWAP1 SLOAD SWAP1 PUSH2 0x100 EXP SWAP1 DIV PUSH1 0xFF AND SWAP1 POP DUP5 JUMP JUMPDEST PUSH2 0xC20 DUP10 DUP7 DUP6 DUP8 PUSH2 0x392 JUMP JUMPDEST PUSH2 0xC5F JUMPI PUSH1 0x40 MLOAD PUSH32 0x8C379A000000000000000000000000000000000000000000000000000000000 DUP2 MSTORE PUSH1 0x4 ADD PUSH2 0xC56 SWAP1 PUSH2 0x269B JUMP JUMPDEST PUSH1 0x40 MLOAD DUP1 SWAP2 SUB SWAP1 REVERT JUMPDEST PUSH2 0xC6B DUP9 DUP7 DUP4 DUP6 PUSH2 0x392 JUMP JUMPDEST PUSH2 0xCAA JUMPI PUSH1 0x40 MLOAD PUSH32 0x8C379A000000000000000000000000000000000000000000000000000000000 DUP2 MSTORE PUSH1 0x4 ADD PUSH2 0xCA1 SWAP1 PUSH2 0x281B JUMP JUMPDEST PUSH1 0x40 MLOAD DUP1 SWAP2 SUB SWAP1 REVERT JUMPDEST DUP8 PUSH20 0xFFFFFFFFFFFFFFFFFFFFFFFFFFFFFFFFFFFFFFFF AND DUP10 PUSH20 0xFFFFFFFFFFFFFFFFFFFFFFFFFFFFFFFFFFFFFFFF AND EQ ISZERO PUSH2 0xD19 JUMPI PUSH1 0x40 MLOAD PUSH32 0x8C379A000000000000000000000000000000000000000000000000000000000 DUP2 MSTORE PUSH1 0x4 ADD PUSH2 0xD10 SWAP1 PUSH2 0x25FB JUMP JUMPDEST PUSH1 0x40 MLOAD DUP1 SWAP2 SUB SWAP1 REVERT JUMPDEST PUSH1 0x0 PUSH20 0xFFFFFFFFFFFFFFFFFFFFFFFFFFFFFFFFFFFFFFFF AND DUP10 PUSH20 0xFFFFFFFFFFFFFFFFFFFFFFFFFFFFFFFFFFFFFFFF AND EQ ISZERO DUP1 ISZERO PUSH2 0xD83 JUMPI POP PUSH1 0x0 PUSH20 0xFFFFFFFFFFFFFFFFFFFFFFFFFFFFFFFFFFFFFFFF AND DUP9 PUSH20 0xFFFFFFFFFFFFFFFFFFFFFFFFFFFFFFFFFFFFFFFF AND EQ ISZERO JUMPDEST PUSH2 0xDC2 JUMPI PUSH1 0x40 MLOAD PUSH32 0x8C379A000000000000000000000000000000000000000000000000000000000 DUP2 MSTORE PUSH1 0x4 ADD PUSH2 0xDB9 SWAP1 PUSH2 0x261B JUMP JUMPDEST PUSH1 0x40 MLOAD DUP1 SWAP2 SUB SWAP1 REVERT JUMPDEST DUP7 CALLVALUE LT ISZERO DUP1 ISZERO PUSH2 0xDD2 JUMPI POP PUSH1 0x0 DUP8 GT JUMPDEST PUSH2 0xE11 JUMPI PUSH1 0x40 MLOAD PUSH32 0x8C379A000000000000000000000000000000000000000000000000000000000 DUP2 MSTORE PUSH1 0x4 ADD PUSH2 0xE08 SWAP1 PUSH2 0x26DB JUMP JUMPDEST PUSH1 0x40 MLOAD DUP1 SWAP2 SUB SWAP1 REVERT JUMPDEST DUP9 PUSH1 0x35 PUSH1 0x0 ADD PUSH1 0x0 ADD PUSH1 0x0 PUSH2 0x100 EXP DUP2 SLOAD DUP2 PUSH20 0xFFFFFFFFFFFFFFFFFFFFFFFFFFFFFFFFFFFFFFFF MUL NOT AND SWAP1 DUP4 PUSH20 0xFFFFFFFFFFFFFFFFFFFFFFFFFFFFFFFFFFFFFFFF AND MUL OR SWAP1 SSTORE POP DUP8 PUSH1 0x35 PUSH1 0x0 ADD PUSH1 0x1 ADD PUSH1 0x0 PUSH2 0x100 EXP DUP2 SLOAD DUP2 PUSH20 0xFFFFFFFFFFFFFFFFFFFFFFFFFFFFFFFFFFFFFFFF MUL NOT AND SWAP1 DUP4 PUSH20 0xFFFFFFFFFFFFFFFFFFFFFFFFFFFFFFFFFFFFFFFF AND MUL OR SWAP1 SSTORE POP DUP6 PUSH1 0x35 PUSH1 0x3 ADD SWAP1 DUP1 MLOAD SWAP1 PUSH1 0x20 ADD SWAP1 PUSH2 0xEB8 SWAP3 SWAP2 SWAP1 PUSH2 0x190D JUMP JUMPDEST POP CALLVALUE PUSH1 0x35 PUSH1 0x2 ADD DUP2 SWAP1 SSTORE POP PUSH1 0x0 PUSH1 0x35 PUSH1 0x4 ADD PUSH1 0x0 PUSH2 0x100 EXP DUP2 SLOAD DUP2 PUSH1 0xFF MUL NOT AND SWAP1 DUP4 PUSH1 0x2 DUP2 GT ISZERO PUSH2 0xEEC JUMPI PUSH2 0xEEB PUSH2 0x2CE1 JUMP JUMPDEST JUMPDEST MUL OR SWAP1 SSTORE POP DUP8 PUSH20 0xFFFFFFFFFFFFFFFFFFFFFFFFFFFFFFFFFFFFFFFF AND DUP10 PUSH20 0xFFFFFFFFFFFFFFFFFFFFFFFFFFFFFFFFFFFFFFFF AND PUSH32 0x77594C7FA34419EFB1EAAABF29A576F56C88A9B7877B9C55A53C74DA44AD609E CALLVALUE PUSH1 0x40 MLOAD PUSH2 0xF4E SWAP2 SWAP1 PUSH2 0x2927 JUMP JUMPDEST PUSH1 0x40 MLOAD DUP1 SWAP2 SUB SWAP1 LOG3 POP POP POP POP POP POP POP POP POP JUMP JUMPDEST PUSH1 0x1 PUSH1 0x2 DUP2 GT ISZERO PUSH2 0xF75 JUMPI PUSH2 0xF74 PUSH2 0x2CE1 JUMP JUMPDEST JUMPDEST PUSH1 0x35 PUSH1 0x4 ADD PUSH1 0x0 SWAP1 SLOAD SWAP1 PUSH2 0x100 EXP SWAP1 DIV PUSH1 0xFF AND PUSH1 0x2 DUP2 GT ISZERO PUSH2 0xF9A JUMPI PUSH2 0xF99 PUSH2 0x2CE1 JUMP JUMPDEST JUMPDEST EQ PUSH2 0xFDA JUMPI PUSH1 0x40 MLOAD PUSH32 0x8C379A000000000000000000000000000000000000000000000000000000000 DUP2 MSTORE PUSH1 0x4 ADD PUSH2 0xFD1 SWAP1 PUSH2 0x275B JUMP JUMPDEST PUSH1 0x40 MLOAD DUP1 SWAP2 SUB SWAP1 REVERT JUMPDEST PUSH1 0x0 DUP1 PUSH1 0x35 PUSH1 0x0 ADD PUSH1 0x1 ADD PUSH1 0x0 SWAP1 SLOAD SWAP1 PUSH2 0x100 EXP SWAP1 DIV PUSH20 0xFFFFFFFFFFFFFFFFFFFFFFFFFFFFFFFFFFFFFFFF AND PUSH20 0xFFFFFFFFFFFFFFFFFFFFFFFFFFFFFFFFFFFFFFFF AND PUSH1 0x35 PUSH1 0x2 ADD SLOAD PUSH1 0x40 MLOAD PUSH2 0x102E SWAP1 PUSH2 0x24FE JUMP JUMPDEST PUSH1 0x0 PUSH1 0x40 MLOAD DUP1 DUP4 SUB DUP2 DUP6 DUP8 GAS CALL SWAP3 POP POP POP RETURNDATASIZE DUP1 PUSH1 0x0 DUP2 EQ PUSH2 0x106B JUMPI PUSH1 0x40 MLOAD SWAP2 POP PUSH1 0x1F NOT PUSH1 0x3F RETURNDATASIZE ADD AND DUP3 ADD PUSH1 0x40 MSTORE RETURNDATASIZE DUP3 MSTORE RETURNDATASIZE PUSH1 0x0 PUSH1 0x20 DUP5 ADD RETURNDATACOPY PUSH2 0x1070 JUMP JUMPDEST PUSH1 0x60 SWAP2 POP JUMPDEST POP SWAP2 POP SWAP2 POP DUP2 PUSH2 0x10B5 JUMPI PUSH1 0x40 MLOAD PUSH32 0x8C379A000000000000000000000000000000000000000000000000000000000 DUP2 MSTORE PUSH1 0x4 ADD PUSH2 0x10AC SWAP1 PUSH2 0x273B JUMP JUMPDEST PUSH1 0x40 MLOAD DUP1 SWAP2 SUB SWAP1 REVERT JUMPDEST POP POP JUMP JUMPDEST PUSH1 0x34 PUSH1 0x0 SWAP1 SLOAD SWAP1 PUSH2 0x100 EXP SWAP1 DIV PUSH20 0xFFFFFFFFFFFFFFFFFFFFFFFFFFFFFFFFFFFFFFFF AND DUP2 JUMP JUMPDEST PUSH2 0x10E7 PUSH2 0x17C1 JUMP JUMPDEST PUSH2 0x10F1 PUSH1 0x0 PUSH2 0x183F JUMP JUMPDEST JUMP JUMPDEST PUSH1 0x0 PUSH1 0x33 PUSH1 0x0 SWAP1 SLOAD SWAP1 PUSH2 0x100 EXP SWAP1 DIV PUSH20 0xFFFFFFFFFFFFFFFFFFFFFFFFFFFFFFFFFFFFFFFF AND SWAP1 POP SWAP1 JUMP JUMPDEST PUSH1 0x35 PUSH1 0x0 ADD PUSH1 0x0 ADD PUSH1 0x0 SWAP1 SLOAD SWAP1 PUSH2 0x100 EXP SWAP1 DIV PUSH20 0xFFFFFFFFFFFFFFFFFFFFFFFFFFFFFFFFFFFFFFFF AND PUSH20 0xFFFFFFFFFFFFFFFFFFFFFFFFFFFFFFFFFFFFFFFF AND CALLER PUSH20 0xFFFFFFFFFFFFFFFFFFFFFFFFFFFFFFFFFFFFFFFF AND EQ DUP1 PUSH2 0x11D2 JUMPI POP PUSH1 0x35 PUSH1 0x0 ADD PUSH1 0x1 ADD PUSH1 0x0 SWAP1 SLOAD SWAP1 PUSH2 0x100 EXP SWAP1 DIV PUSH20 0xFFFFFFFFFFFFFFFFFFFFFFFFFFFFFFFFFFFFFFFF AND PUSH20 0xFFFFFFFFFFFFFFFFFFFFFFFFFFFFFFFFFFFFFFFF AND CALLER PUSH20 0xFFFFFFFFFFFFFFFFFFFFFFFFFFFFFFFFFFFFFFFF AND EQ JUMPDEST PUSH2 0x1211 JUMPI PUSH1 0x40 MLOAD PUSH32 0x8C379A000000000000000000000000000000000000000000000000000000000 DUP2 MSTORE PUSH1 0x4 ADD PUSH2 0x1208 SWAP1 PUSH2 0x267B JUMP JUMPDEST PUSH1 0x40 MLOAD DUP1 SWAP2 SUB SWAP1 REVERT JUMPDEST PUSH1 0x2 DUP1 DUP2 GT ISZERO PUSH2 0x1224 JUMPI PUSH2 0x1223 PUSH2 0x2CE1 JUMP JUMPDEST JUMPDEST PUSH1 0x35 PUSH1 0x4 ADD PUSH1 0x0 SWAP1 SLOAD SWAP1 PUSH2 0x100 EXP SWAP1 DIV PUSH1 0xFF AND PUSH1 0x2 DUP2 GT ISZERO PUSH2 0x1249 JUMPI PUSH2 0x1248 PUSH2 0x2CE1 JUMP JUMPDEST JUMPDEST EQ ISZERO PUSH2 0x128A JUMPI PUSH1 0x40 MLOAD PUSH32 0x8C379A000000000000000000000000000000000000000000000000000000000 DUP2 MSTORE PUSH1 0x4 ADD PUSH2 0x1281 SWAP1 PUSH2 0x277B JUMP JUMPDEST PUSH1 0x40 MLOAD DUP1 SWAP2 SUB SWAP1 REVERT JUMPDEST CALLER PUSH20 0xFFFFFFFFFFFFFFFFFFFFFFFFFFFFFFFFFFFFFFFF AND PUSH1 0x35 PUSH1 0x0 ADD PUSH1 0x0 ADD PUSH1 0x0 SWAP1 SLOAD SWAP1 PUSH2 0x100 EXP SWAP1 DIV PUSH20 0xFFFFFFFFFFFFFFFFFFFFFFFFFFFFFFFFFFFFFFFF AND PUSH20 0xFFFFFFFFFFFFFFFFFFFFFFFFFFFFFFFFFFFFFFFF AND EQ ISZERO PUSH2 0x1318 JUMPI DUP1 PUSH1 0x35 PUSH1 0x4 ADD PUSH1 0x0 PUSH2 0x100 EXP DUP2 SLOAD DUP2 PUSH1 0xFF MUL NOT AND SWAP1 DUP4 PUSH1 0x2 DUP2 GT ISZERO PUSH2 0x130E JUMPI PUSH2 0x130D PUSH2 0x2CE1 JUMP JUMPDEST JUMPDEST MUL OR SWAP1 SSTORE POP PUSH2 0x13AE JUMP JUMPDEST PUSH1 0x1 PUSH1 0x2 DUP2 GT ISZERO PUSH2 0x132C JUMPI PUSH2 0x132B PUSH2 0x2CE1 JUMP JUMPDEST JUMPDEST DUP2 PUSH1 0x2 DUP2 GT ISZERO PUSH2 0x133F JUMPI PUSH2 0x133E PUSH2 0x2CE1 JUMP JUMPDEST JUMPDEST EQ ISZERO PUSH2 0x1380 JUMPI PUSH1 0x40 MLOAD PUSH32 0x8C379A000000000000000000000000000000000000000000000000000000000 DUP2 MSTORE PUSH1 0x4 ADD PUSH2 0x1377 SWAP1 PUSH2 0x285B JUMP JUMPDEST PUSH1 0x40 MLOAD DUP1 SWAP2 SUB SWAP1 REVERT JUMPDEST DUP1 PUSH1 0x35 PUSH1 0x4 ADD PUSH1 0x0 PUSH2 0x100 EXP DUP2 SLOAD DUP2 PUSH1 0xFF MUL NOT AND SWAP1 DUP4 PUSH1 0x2 DUP2 GT ISZERO PUSH2 0x13A8 JUMPI PUSH2 0x13A7 PUSH2 0x2CE1 JUMP JUMPDEST JUMPDEST MUL OR SWAP1 SSTORE POP JUMPDEST POP JUMP JUMPDEST PUSH1 0x0 DUP1 PUSH1 0x0 DUP1 PUSH2 0x13C0 DUP6 PUSH2 0x1420 JUMP JUMPDEST SWAP3 POP SWAP3 POP SWAP3 POP PUSH1 0x1 DUP7 DUP3 DUP6 DUP6 PUSH1 0x40 MLOAD PUSH1 0x0 DUP2 MSTORE PUSH1 0x20 ADD PUSH1 0x40 MSTORE PUSH1 0x40 MLOAD PUSH2 0x13E9 SWAP5 SWAP4 SWAP3 SWAP2 SWAP1 PUSH2 0x25B6 JUMP JUMPDEST PUSH1 0x20 PUSH1 0x40 MLOAD PUSH1 0x20 DUP2 SUB SWAP1 DUP1 DUP5 SUB SWAP1 DUP6 GAS STATICCALL ISZERO DUP1 ISZERO PUSH2 0x140B JUMPI RETURNDATASIZE PUSH1 0x0 DUP1 RETURNDATACOPY RETURNDATASIZE PUSH1 0x0 REVERT JUMPDEST POP POP POP PUSH1 0x20 PUSH1 0x40 MLOAD SUB MLOAD SWAP4 POP POP POP POP SWAP3 SWAP2 POP POP JUMP JUMPDEST PUSH1 0x0 DUP1 PUSH1 0x0 PUSH1 0x41 DUP5 MLOAD EQ PUSH2 0x1469 JUMPI PUSH1 0x40 MLOAD PUSH32 0x8C379A000000000000000000000000000000000000000000000000000000000 DUP2 MSTORE PUSH1 0x4 ADD PUSH2 0x1460 SWAP1 PUSH2 0x289B JUMP JUMPDEST PUSH1 0x40 MLOAD DUP1 SWAP2 SUB SWAP1 REVERT JUMPDEST PUSH1 0x20 DUP5 ADD MLOAD SWAP3 POP PUSH1 0x40 DUP5 ADD MLOAD SWAP2 POP PUSH1 0x60 DUP5 ADD MLOAD PUSH1 0x0 BYTE SWAP1 POP SWAP2 SWAP4 SWAP1 SWAP3 POP JUMP JUMPDEST DUP8 PUSH20 0xFFFFFFFFFFFFFFFFFFFFFFFFFFFFFFFFFFFFFFFF AND PUSH1 0x35 PUSH1 0x0 ADD PUSH1 0x0 ADD PUSH1 0x0 SWAP1 SLOAD SWAP1 PUSH2 0x100 EXP SWAP1 DIV PUSH20 0xFFFFFFFFFFFFFFFFFFFFFFFFFFFFFFFFFFFFFFFF AND PUSH20 0xFFFFFFFFFFFFFFFFFFFFFFFFFFFFFFFFFFFFFFFF AND EQ PUSH2 0x151E JUMPI PUSH1 0x40 MLOAD PUSH32 0x8C379A000000000000000000000000000000000000000000000000000000000 DUP2 MSTORE PUSH1 0x4 ADD PUSH2 0x1515 SWAP1 PUSH2 0x265B JUMP JUMPDEST PUSH1 0x40 MLOAD DUP1 SWAP2 SUB SWAP1 REVERT JUMPDEST PUSH2 0x152A DUP9 DUP7 DUP6 DUP8 PUSH2 0x392 JUMP JUMPDEST PUSH2 0x1569 JUMPI PUSH1 0x40 MLOAD PUSH32 0x8C379A000000000000000000000000000000000000000000000000000000000 DUP2 MSTORE PUSH1 0x4 ADD PUSH2 0x1560 SWAP1 PUSH2 0x269B JUMP JUMPDEST PUSH1 0x40 MLOAD DUP1 SWAP2 SUB SWAP1 REVERT JUMPDEST DUP7 PUSH20 0xFFFFFFFFFFFFFFFFFFFFFFFFFFFFFFFFFFFFFFFF AND PUSH1 0x35 PUSH1 0x0 ADD PUSH1 0x1 ADD PUSH1 0x0 SWAP1 SLOAD SWAP1 PUSH2 0x100 EXP SWAP1 DIV PUSH20 0xFFFFFFFFFFFFFFFFFFFFFFFFFFFFFFFFFFFFFFFF AND PUSH20 0xFFFFFFFFFFFFFFFFFFFFFFFFFFFFFFFFFFFFFFFF AND EQ PUSH2 0x15FF JUMPI PUSH1 0x40 MLOAD PUSH32 0x8C379A000000000000000000000000000000000000000000000000000000000 DUP2 MSTORE PUSH1 0x4 ADD PUSH2 0x15F6 SWAP1 PUSH2 0x27FB JUMP JUMPDEST PUSH1 0x40 MLOAD DUP1 SWAP2 SUB SWAP1 REVERT JUMPDEST PUSH2 0x160B DUP8 DUP7 DUP4 DUP6 PUSH2 0x392 JUMP JUMPDEST PUSH2 0x164A JUMPI PUSH1 0x40 MLOAD PUSH32 0x8C379A000000000000000000000000000000000000000000000000000000000 DUP2 MSTORE PUSH1 0x4 ADD PUSH2 0x1641 SWAP1 PUSH2 0x281B JUMP JUMPDEST PUSH1 0x40 MLOAD DUP1 SWAP2 SUB SWAP1 REVERT JUMPDEST PUSH1 0x2 DUP1 DUP2 GT ISZERO PUSH2 0x165D JUMPI PUSH2 0x165C PUSH2 0x2CE1 JUMP JUMPDEST JUMPDEST PUSH1 0x35 PUSH1 0x4 ADD PUSH1 0x0 SWAP1 SLOAD SWAP1 PUSH2 0x100 EXP SWAP1 DIV PUSH1 0xFF AND PUSH1 0x2 DUP2 GT ISZERO PUSH2 0x1682 JUMPI PUSH2 0x1681 PUSH2 0x2CE1 JUMP JUMPDEST JUMPDEST EQ PUSH2 0x16C2 JUMPI PUSH1 0x40 MLOAD PUSH32 0x8C379A000000000000000000000000000000000000000000000000000000000 DUP2 MSTORE PUSH1 0x4 ADD PUSH2 0x16B9 SWAP1 PUSH2 0x271B JUMP JUMPDEST PUSH1 0x40 MLOAD DUP1 SWAP2 SUB SWAP1 REVERT JUMPDEST DUP6 PUSH1 0x34 PUSH1 0x0 PUSH2 0x100 EXP DUP2 SLOAD DUP2 PUSH20 0xFFFFFFFFFFFFFFFFFFFFFFFFFFFFFFFFFFFFFFFF MUL NOT AND SWAP1 DUP4 PUSH20 0xFFFFFFFFFFFFFFFFFFFFFFFFFFFFFFFFFFFFFFFF AND MUL OR SWAP1 SSTORE POP POP POP POP POP POP POP POP POP JUMP JUMPDEST PUSH2 0x1715 PUSH2 0x17C1 JUMP JUMPDEST PUSH1 0x0 PUSH20 0xFFFFFFFFFFFFFFFFFFFFFFFFFFFFFFFFFFFFFFFF AND DUP2 PUSH20 0xFFFFFFFFFFFFFFFFFFFFFFFFFFFFFFFFFFFFFFFF AND EQ ISZERO PUSH2 0x1785 JUMPI PUSH1 0x40 MLOAD PUSH32 0x8C379A000000000000000000000000000000000000000000000000000000000 DUP2 MSTORE PUSH1 0x4 ADD PUSH2 0x177C SWAP1 PUSH2 0x26BB JUMP JUMPDEST PUSH1 0x40 MLOAD DUP1 SWAP2 SUB SWAP1 REVERT JUMPDEST PUSH2 0x178E DUP2 PUSH2 0x183F JUMP JUMPDEST POP JUMP JUMPDEST PUSH1 0x0 DUP2 PUSH1 0x40 MLOAD PUSH1 0x20 ADD PUSH2 0x17A4 SWAP2 SWAP1 PUSH2 0x24D8 JUMP JUMPDEST PUSH1 0x40 MLOAD PUSH1 0x20 DUP2 DUP4 SUB SUB DUP2 MSTORE SWAP1 PUSH1 0x40 MSTORE DUP1 MLOAD SWAP1 PUSH1 0x20 ADD KECCAK256 SWAP1 POP SWAP2 SWAP1 POP JUMP JUMPDEST PUSH2 0x17C9 PUSH2 0x1905 JUMP JUMPDEST PUSH20 0xFFFFFFFFFFFFFFFFFFFFFFFFFFFFFFFFFFFFFFFF AND PUSH2 0x17E7 PUSH2 0x10F3 JUMP JUMPDEST PUSH20 0xFFFFFFFFFFFFFFFFFFFFFFFFFFFFFFFFFFFFFFFF AND EQ PUSH2 0x183D JUMPI PUSH1 0x40 MLOAD PUSH32 0x8C379A000000000000000000000000000000000000000000000000000000000 DUP2 MSTORE PUSH1 0x4 ADD PUSH2 0x1834 SWAP1 PUSH2 0x283B JUMP JUMPDEST PUSH1 0x40 MLOAD DUP1 SWAP2 SUB SWAP1 REVERT JUMPDEST JUMP JUMPDEST PUSH1 0x0 PUSH1 0x33 PUSH1 0x0 SWAP1 SLOAD SWAP1 PUSH2 0x100 EXP SWAP1 DIV PUSH20 0xFFFFFFFFFFFFFFFFFFFFFFFFFFFFFFFFFFFFFFFF AND SWAP1 POP DUP2 PUSH1 0x33 PUSH1 0x0 PUSH2 0x100 EXP DUP2 SLOAD DUP2 PUSH20 0xFFFFFFFFFFFFFFFFFFFFFFFFFFFFFFFFFFFFFFFF MUL NOT AND SWAP1 DUP4 PUSH20 0xFFFFFFFFFFFFFFFFFFFFFFFFFFFFFFFFFFFFFFFF AND MUL OR SWAP1 SSTORE POP DUP2 PUSH20 0xFFFFFFFFFFFFFFFFFFFFFFFFFFFFFFFFFFFFFFFF AND DUP2 PUSH20 0xFFFFFFFFFFFFFFFFFFFFFFFFFFFFFFFFFFFFFFFF AND PUSH32 0x8BE0079C531659141344CD1FD0A4F28419497F9722A3DAAFE3B4186F6B6457E0 PUSH1 0x40 MLOAD PUSH1 0x40 MLOAD DUP1 SWAP2 SUB SWAP1 LOG3 POP POP JUMP JUMPDEST PUSH1 0x0 CALLER SWAP1 POP SWAP1 JUMP JUMPDEST DUP3 DUP1 SLOAD PUSH2 0x1919 SWAP1 PUSH2 0x2BE8 JUMP JUMPDEST SWAP1 PUSH1 0x0 MSTORE PUSH1 0x20 PUSH1 0x0 KECCAK256 SWAP1 PUSH1 0x1F ADD PUSH1 0x20 SWAP1 DIV DUP2 ADD SWAP3 DUP3 PUSH2 0x193B JUMPI PUSH1 0x0 DUP6 SSTORE PUSH2 0x1982 JUMP JUMPDEST DUP3 PUSH1 0x1F LT PUSH2 0x1954 JUMPI DUP1 MLOAD PUSH1 0xFF NOT AND DUP4 DUP1 ADD OR DUP6 SSTORE PUSH2 0x1982 JUMP JUMPDEST DUP3 DUP1 ADD PUSH1 0x1 ADD DUP6 SSTORE DUP3 ISZERO PUSH2 0x1982 JUMPI SWAP2 DUP3 ADD JUMPDEST DUP3 DUP2 GT ISZERO PUSH2 0x1981 JUMPI DUP3 MLOAD DUP3 SSTORE SWAP2 PUSH1 0x20 ADD SWAP2 SWAP1 PUSH1 0x1 ADD SWAP1 PUSH2 0x1966 JUMP JUMPDEST JUMPDEST POP SWAP1 POP PUSH2 0x198F SWAP2 SWAP1 PUSH2 0x1993 JUMP JUMPDEST POP SWAP1 JUMP JUMPDEST JUMPDEST DUP1 DUP3 GT ISZERO PUSH2 0x19AC JUMPI PUSH1 0x0 DUP2 PUSH1 0x0 SWAP1 SSTORE POP PUSH1 0x1 ADD PUSH2 0x1994 JUMP JUMPDEST POP SWAP1 JUMP JUMPDEST PUSH1 0x0 PUSH2 0x19C3 PUSH2 0x19BE DUP5 PUSH2 0x2967 JUMP JUMPDEST PUSH2 0x2942 JUMP JUMPDEST SWAP1 POP DUP3 DUP2 MSTORE PUSH1 0x20 DUP2 ADD DUP5 DUP5 DUP5 ADD GT ISZERO PUSH2 0x19DF JUMPI PUSH2 0x19DE PUSH2 0x2D73 JUMP JUMPDEST JUMPDEST PUSH2 0x19EA DUP5 DUP3 DUP6 PUSH2 0x2BA6 JUMP JUMPDEST POP SWAP4 SWAP3 POP POP POP JUMP JUMPDEST PUSH1 0x0 PUSH2 0x1A05 PUSH2 0x1A00 DUP5 PUSH2 0x2998 JUMP JUMPDEST PUSH2 0x2942 JUMP JUMPDEST SWAP1 POP DUP3 DUP2 MSTORE PUSH1 0x20 DUP2 ADD DUP5 DUP5 DUP5 ADD GT ISZERO PUSH2 0x1A21 JUMPI PUSH2 0x1A20 PUSH2 0x2D73 JUMP JUMPDEST JUMPDEST PUSH2 0x1A2C DUP5 DUP3 DUP6 PUSH2 0x2BA6 JUMP JUMPDEST POP SWAP4 SWAP3 POP POP POP JUMP JUMPDEST PUSH1 0x0 DUP2 CALLDATALOAD SWAP1 POP PUSH2 0x1A43 DUP2 PUSH2 0x31DB JUMP JUMPDEST SWAP3 SWAP2 POP POP JUMP JUMPDEST PUSH1 0x0 DUP2 CALLDATALOAD SWAP1 POP PUSH2 0x1A58 DUP2 PUSH2 0x31F2 JUMP JUMPDEST SWAP3 SWAP2 POP POP JUMP JUMPDEST PUSH1 0x0 DUP2 CALLDATALOAD SWAP1 POP PUSH2 0x1A6D DUP2 PUSH2 0x3209 JUMP JUMPDEST SWAP3 SWAP2 POP POP JUMP JUMPDEST PUSH1 0x0 DUP3 PUSH1 0x1F DUP4 ADD SLT PUSH2 0x1A88 JUMPI PUSH2 0x1A87 PUSH2 0x2D6E JUMP JUMPDEST JUMPDEST DUP2 CALLDATALOAD PUSH2 0x1A98 DUP5 DUP3 PUSH1 0x20 DUP7 ADD PUSH2 0x19B0 JUMP JUMPDEST SWAP2 POP POP SWAP3 SWAP2 POP POP JUMP JUMPDEST PUSH1 0x0 DUP2 CALLDATALOAD SWAP1 POP PUSH2 0x1AB0 DUP2 PUSH2 0x3220 JUMP JUMPDEST SWAP3 SWAP2 POP POP JUMP JUMPDEST PUSH1 0x0 DUP3 PUSH1 0x1F DUP4 ADD SLT PUSH2 0x1ACB JUMPI PUSH2 0x1ACA PUSH2 0x2D6E JUMP JUMPDEST JUMPDEST DUP2 CALLDATALOAD PUSH2 0x1ADB DUP5 DUP3 PUSH1 0x20 DUP7 ADD PUSH2 0x19F2 JUMP JUMPDEST SWAP2 POP POP SWAP3 SWAP2 POP POP JUMP JUMPDEST PUSH1 0x0 DUP2 CALLDATALOAD SWAP1 POP PUSH2 0x1AF3 DUP2 PUSH2 0x3230 JUMP JUMPDEST SWAP3 SWAP2 POP POP JUMP JUMPDEST PUSH1 0x0 PUSH1 0x20 DUP3 DUP5 SUB SLT ISZERO PUSH2 0x1B0F JUMPI PUSH2 0x1B0E PUSH2 0x2D7D JUMP JUMPDEST JUMPDEST PUSH1 0x0 PUSH2 0x1B1D DUP5 DUP3 DUP6 ADD PUSH2 0x1A34 JUMP JUMPDEST SWAP2 POP POP SWAP3 SWAP2 POP POP JUMP JUMPDEST PUSH1 0x0 DUP1 PUSH1 0x0 DUP1 PUSH1 0x0 DUP1 PUSH1 0x0 DUP1 PUSH2 0x100 DUP10 DUP12 SUB SLT ISZERO PUSH2 0x1B47 JUMPI PUSH2 0x1B46 PUSH2 0x2D7D JUMP JUMPDEST JUMPDEST PUSH1 0x0 PUSH2 0x1B55 DUP12 DUP3 DUP13 ADD PUSH2 0x1A34 JUMP JUMPDEST SWAP9 POP POP PUSH1 0x20 PUSH2 0x1B66 DUP12 DUP3 DUP13 ADD PUSH2 0x1A34 JUMP JUMPDEST SWAP8 POP POP PUSH1 0x40 PUSH2 0x1B77 DUP12 DUP3 DUP13 ADD PUSH2 0x1A49 JUMP JUMPDEST SWAP7 POP POP PUSH1 0x60 DUP10 ADD CALLDATALOAD PUSH8 0xFFFFFFFFFFFFFFFF DUP2 GT ISZERO PUSH2 0x1B98 JUMPI PUSH2 0x1B97 PUSH2 0x2D78 JUMP JUMPDEST JUMPDEST PUSH2 0x1BA4 DUP12 DUP3 DUP13 ADD PUSH2 0x1AB6 JUMP JUMPDEST SWAP6 POP POP PUSH1 0x80 DUP10 ADD CALLDATALOAD PUSH8 0xFFFFFFFFFFFFFFFF DUP2 GT ISZERO PUSH2 0x1BC5 JUMPI PUSH2 0x1BC4 PUSH2 0x2D78 JUMP JUMPDEST JUMPDEST PUSH2 0x1BD1 DUP12 DUP3 DUP13 ADD PUSH2 0x1A73 JUMP JUMPDEST SWAP5 POP POP PUSH1 0xA0 PUSH2 0x1BE2 DUP12 DUP3 DUP13 ADD PUSH2 0x1AE4 JUMP JUMPDEST SWAP4 POP POP PUSH1 0xC0 DUP10 ADD CALLDATALOAD PUSH8 0xFFFFFFFFFFFFFFFF DUP2 GT ISZERO PUSH2 0x1C03 JUMPI PUSH2 0x1C02 PUSH2 0x2D78 JUMP JUMPDEST JUMPDEST PUSH2 0x1C0F DUP12 DUP3 DUP13 ADD PUSH2 0x1A73 JUMP JUMPDEST SWAP3 POP POP PUSH1 0xE0 PUSH2 0x1C20 DUP12 DUP3 DUP13 ADD PUSH2 0x1AE4 JUMP JUMPDEST SWAP2 POP POP SWAP3 SWAP6 SWAP9 POP SWAP3 SWAP6 SWAP9 SWAP1 SWAP4 SWAP7 POP JUMP JUMPDEST PUSH1 0x0 DUP1 PUSH1 0x0 DUP1 PUSH1 0x0 DUP1 PUSH1 0x0 DUP1 PUSH1 0x0 PUSH2 0x120 DUP11 DUP13 SUB SLT ISZERO PUSH2 0x1C53 JUMPI PUSH2 0x1C52 PUSH2 0x2D7D JUMP JUMPDEST JUMPDEST PUSH1 0x0 PUSH2 0x1C61 DUP13 DUP3 DUP14 ADD PUSH2 0x1A34 JUMP JUMPDEST SWAP10 POP POP PUSH1 0x20 PUSH2 0x1C72 DUP13 DUP3 DUP14 ADD PUSH2 0x1A34 JUMP JUMPDEST SWAP9 POP POP PUSH1 0x40 PUSH2 0x1C83 DUP13 DUP3 DUP14 ADD PUSH2 0x1AE4 JUMP JUMPDEST SWAP8 POP POP PUSH1 0x60 DUP11 ADD CALLDATALOAD PUSH8 0xFFFFFFFFFFFFFFFF DUP2 GT ISZERO PUSH2 0x1CA4 JUMPI PUSH2 0x1CA3 PUSH2 0x2D78 JUMP JUMPDEST JUMPDEST PUSH2 0x1CB0 DUP13 DUP3 DUP14 ADD PUSH2 0x1AB6 JUMP JUMPDEST SWAP7 POP POP PUSH1 0x80 DUP11 ADD CALLDATALOAD PUSH8 0xFFFFFFFFFFFFFFFF DUP2 GT ISZERO PUSH2 0x1CD1 JUMPI PUSH2 0x1CD0 PUSH2 0x2D78 JUMP JUMPDEST JUMPDEST PUSH2 0x1CDD DUP13 DUP3 DUP14 ADD PUSH2 0x1AB6 JUMP JUMPDEST SWAP6 POP POP PUSH1 0xA0 DUP11 ADD CALLDATALOAD PUSH8 0xFFFFFFFFFFFFFFFF DUP2 GT ISZERO PUSH2 0x1CFE JUMPI PUSH2 0x1CFD PUSH2 0x2D78 JUMP JUMPDEST JUMPDEST PUSH2 0x1D0A DUP13 DUP3 DUP14 ADD PUSH2 0x1A73 JUMP JUMPDEST SWAP5 POP POP PUSH1 0xC0 PUSH2 0x1D1B DUP13 DUP3 DUP14 ADD PUSH2 0x1AE4 JUMP JUMPDEST SWAP4 POP POP PUSH1 0xE0 DUP11 ADD CALLDATALOAD PUSH8 0xFFFFFFFFFFFFFFFF DUP2 GT ISZERO PUSH2 0x1D3C JUMPI PUSH2 0x1D3B PUSH2 0x2D78 JUMP JUMPDEST JUMPDEST PUSH2 0x1D48 DUP13 DUP3 DUP14 ADD PUSH2 0x1A73 JUMP JUMPDEST SWAP3 POP POP PUSH2 0x100 PUSH2 0x1D5A DUP13 DUP3 DUP14 ADD PUSH2 0x1AE4 JUMP JUMPDEST SWAP2 POP POP SWAP3 SWAP6 SWAP9 POP SWAP3 SWAP6 SWAP9 POP SWAP3 SWAP6 SWAP9 JUMP JUMPDEST PUSH1 0x0 DUP1 PUSH1 0x0 PUSH1 0x60 DUP5 DUP7 SUB SLT ISZERO PUSH2 0x1D83 JUMPI PUSH2 0x1D82 PUSH2 0x2D7D JUMP JUMPDEST JUMPDEST PUSH1 0x0 PUSH2 0x1D91 DUP7 DUP3 DUP8 ADD PUSH2 0x1A34 JUMP JUMPDEST SWAP4 POP POP PUSH1 0x20 DUP5 ADD CALLDATALOAD PUSH8 0xFFFFFFFFFFFFFFFF DUP2 GT ISZERO PUSH2 0x1DB2 JUMPI PUSH2 0x1DB1 PUSH2 0x2D78 JUMP JUMPDEST JUMPDEST PUSH2 0x1DBE DUP7 DUP3 DUP8 ADD PUSH2 0x1AB6 JUMP JUMPDEST SWAP3 POP POP PUSH1 0x40 PUSH2 0x1DCF DUP7 DUP3 DUP8 ADD PUSH2 0x1AE4 JUMP JUMPDEST SWAP2 POP POP SWAP3 POP SWAP3 POP SWAP3 JUMP JUMPDEST PUSH1 0x0 DUP1 PUSH1 0x0 DUP1 PUSH1 0x80 DUP6 DUP8 SUB SLT ISZERO PUSH2 0x1DF3 JUMPI PUSH2 0x1DF2 PUSH2 0x2D7D JUMP JUMPDEST JUMPDEST PUSH1 0x0 PUSH2 0x1E01 DUP8 DUP3 DUP9 ADD PUSH2 0x1A34 JUMP JUMPDEST SWAP5 POP POP PUSH1 0x20 DUP6 ADD CALLDATALOAD PUSH8 0xFFFFFFFFFFFFFFFF DUP2 GT ISZERO PUSH2 0x1E22 JUMPI PUSH2 0x1E21 PUSH2 0x2D78 JUMP JUMPDEST JUMPDEST PUSH2 0x1E2E DUP8 DUP3 DUP9 ADD PUSH2 0x1AB6 JUMP JUMPDEST SWAP4 POP POP PUSH1 0x40 PUSH2 0x1E3F DUP8 DUP3 DUP9 ADD PUSH2 0x1AE4 JUMP JUMPDEST SWAP3 POP POP PUSH1 0x60 DUP6 ADD CALLDATALOAD PUSH8 0xFFFFFFFFFFFFFFFF DUP2 GT ISZERO PUSH2 0x1E60 JUMPI PUSH2 0x1E5F PUSH2 0x2D78 JUMP JUMPDEST JUMPDEST PUSH2 0x1E6C DUP8 DUP3 DUP9 ADD PUSH2 0x1A73 JUMP JUMPDEST SWAP2 POP POP SWAP3 SWAP6 SWAP2 SWAP5 POP SWAP3 POP JUMP JUMPDEST PUSH1 0x0 DUP1 PUSH1 0x0 DUP1 PUSH1 0x80 DUP6 DUP8 SUB SLT ISZERO PUSH2 0x1E92 JUMPI PUSH2 0x1E91 PUSH2 0x2D7D JUMP JUMPDEST JUMPDEST PUSH1 0x0 PUSH2 0x1EA0 DUP8 DUP3 DUP9 ADD PUSH2 0x1A34 JUMP JUMPDEST SWAP5 POP POP PUSH1 0x20 PUSH2 0x1EB1 DUP8 DUP3 DUP9 ADD PUSH2 0x1AE4 JUMP JUMPDEST SWAP4 POP POP PUSH1 0x40 PUSH2 0x1EC2 DUP8 DUP3 DUP9 ADD PUSH2 0x1A34 JUMP JUMPDEST SWAP3 POP POP PUSH1 0x60 PUSH2 0x1ED3 DUP8 DUP3 DUP9 ADD PUSH2 0x1AE4 JUMP JUMPDEST SWAP2 POP POP SWAP3 SWAP6 SWAP2 SWAP5 POP SWAP3 POP JUMP JUMPDEST PUSH1 0x0 PUSH1 0x20 DUP3 DUP5 SUB SLT ISZERO PUSH2 0x1EF5 JUMPI PUSH2 0x1EF4 PUSH2 0x2D7D JUMP JUMPDEST JUMPDEST PUSH1 0x0 PUSH2 0x1F03 DUP5 DUP3 DUP6 ADD PUSH2 0x1A5E JUMP JUMPDEST SWAP2 POP POP SWAP3 SWAP2 POP POP JUMP JUMPDEST PUSH1 0x0 DUP1 PUSH1 0x40 DUP4 DUP6 SUB SLT ISZERO PUSH2 0x1F23 JUMPI PUSH2 0x1F22 PUSH2 0x2D7D JUMP JUMPDEST JUMPDEST PUSH1 0x0 PUSH2 0x1F31 DUP6 DUP3 DUP7 ADD PUSH2 0x1A5E JUMP JUMPDEST SWAP3 POP POP PUSH1 0x20 DUP4 ADD CALLDATALOAD PUSH8 0xFFFFFFFFFFFFFFFF DUP2 GT ISZERO PUSH2 0x1F52 JUMPI PUSH2 0x1F51 PUSH2 0x2D78 JUMP JUMPDEST JUMPDEST PUSH2 0x1F5E DUP6 DUP3 DUP7 ADD PUSH2 0x1A73 JUMP JUMPDEST SWAP2 POP POP SWAP3 POP SWAP3 SWAP1 POP JUMP JUMPDEST PUSH1 0x0 PUSH1 0x20 DUP3 DUP5 SUB SLT ISZERO PUSH2 0x1F7E JUMPI PUSH2 0x1F7D PUSH2 0x2D7D JUMP JUMPDEST JUMPDEST PUSH1 0x0 DUP3 ADD CALLDATALOAD PUSH8 0xFFFFFFFFFFFFFFFF DUP2 GT ISZERO PUSH2 0x1F9C JUMPI PUSH2 0x1F9B PUSH2 0x2D78 JUMP JUMPDEST JUMPDEST PUSH2 0x1FA8 DUP5 DUP3 DUP6 ADD PUSH2 0x1A73 JUMP JUMPDEST SWAP2 POP POP SWAP3 SWAP2 POP POP JUMP JUMPDEST PUSH1 0x0 PUSH1 0x20 DUP3 DUP5 SUB SLT ISZERO PUSH2 0x1FC7 JUMPI PUSH2 0x1FC6 PUSH2 0x2D7D JUMP JUMPDEST JUMPDEST PUSH1 0x0 PUSH2 0x1FD5 DUP5 DUP3 DUP6 ADD PUSH2 0x1AA1 JUMP JUMPDEST SWAP2 POP POP SWAP3 SWAP2 POP POP JUMP JUMPDEST PUSH2 0x1FE7 DUP2 PUSH2 0x2B22 JUMP JUMPDEST DUP3 MSTORE POP POP JUMP JUMPDEST PUSH2 0x1FF6 DUP2 PUSH2 0x2B10 JUMP JUMPDEST DUP3 MSTORE POP POP JUMP JUMPDEST PUSH2 0x2005 DUP2 PUSH2 0x2B10 JUMP JUMPDEST DUP3 MSTORE POP POP JUMP JUMPDEST PUSH2 0x201C PUSH2 0x2017 DUP3 PUSH2 0x2B10 JUMP JUMPDEST PUSH2 0x2C4B JUMP JUMPDEST DUP3 MSTORE POP POP JUMP JUMPDEST PUSH2 0x202B DUP2 PUSH2 0x2B34 JUMP JUMPDEST DUP3 MSTORE POP POP JUMP JUMPDEST PUSH2 0x203A DUP2 PUSH2 0x2B40 JUMP JUMPDEST DUP3 MSTORE POP POP JUMP JUMPDEST PUSH2 0x2051 PUSH2 0x204C DUP3 PUSH2 0x2B40 JUMP JUMPDEST PUSH2 0x2C5D JUMP JUMPDEST DUP3 MSTORE POP POP JUMP JUMPDEST PUSH2 0x2060 DUP2 PUSH2 0x2B94 JUMP JUMPDEST DUP3 MSTORE POP POP JUMP JUMPDEST PUSH1 0x0 PUSH2 0x2071 DUP3 PUSH2 0x29C9 JUMP JUMPDEST PUSH2 0x207B DUP2 DUP6 PUSH2 0x29DF JUMP JUMPDEST SWAP4 POP PUSH2 0x208B DUP2 DUP6 PUSH1 0x20 DUP7 ADD PUSH2 0x2BB5 JUMP JUMPDEST PUSH2 0x2094 DUP2 PUSH2 0x2D82 JUMP JUMPDEST DUP5 ADD SWAP2 POP POP SWAP3 SWAP2 POP POP JUMP JUMPDEST PUSH1 0x0 PUSH2 0x20AA DUP3 PUSH2 0x29C9 JUMP JUMPDEST PUSH2 0x20B4 DUP2 DUP6 PUSH2 0x29F0 JUMP JUMPDEST SWAP4 POP PUSH2 0x20C4 DUP2 DUP6 PUSH1 0x20 DUP7 ADD PUSH2 0x2BB5 JUMP JUMPDEST DUP1 DUP5 ADD SWAP2 POP POP SWAP3 SWAP2 POP POP JUMP JUMPDEST PUSH1 0x0 PUSH2 0x20DD PUSH1 0x17 DUP4 PUSH2 0x29DF JUMP JUMPDEST SWAP2 POP PUSH2 0x20E8 DUP3 PUSH2 0x2DA0 JUMP JUMPDEST PUSH1 0x20 DUP3 ADD SWAP1 POP SWAP2 SWAP1 POP JUMP JUMPDEST PUSH1 0x0 PUSH2 0x2100 PUSH1 0x17 DUP4 PUSH2 0x29DF JUMP JUMPDEST SWAP2 POP PUSH2 0x210B DUP3 PUSH2 0x2DC9 JUMP JUMPDEST PUSH1 0x20 DUP3 ADD SWAP1 POP SWAP2 SWAP1 POP JUMP JUMPDEST PUSH1 0x0 PUSH2 0x2123 PUSH1 0xC DUP4 PUSH2 0x29DF JUMP JUMPDEST SWAP2 POP PUSH2 0x212E DUP3 PUSH2 0x2DF2 JUMP JUMPDEST PUSH1 0x20 DUP3 ADD SWAP1 POP SWAP2 SWAP1 POP JUMP JUMPDEST PUSH1 0x0 PUSH2 0x2146 PUSH1 0x13 DUP4 PUSH2 0x29DF JUMP JUMPDEST SWAP2 POP PUSH2 0x2151 DUP3 PUSH2 0x2E1B JUMP JUMPDEST PUSH1 0x20 DUP3 ADD SWAP1 POP SWAP2 SWAP1 POP JUMP JUMPDEST PUSH1 0x0 PUSH2 0x2169 PUSH1 0x11 DUP4 PUSH2 0x29DF JUMP JUMPDEST SWAP2 POP PUSH2 0x2174 DUP3 PUSH2 0x2E44 JUMP JUMPDEST PUSH1 0x20 DUP3 ADD SWAP1 POP SWAP2 SWAP1 POP JUMP JUMPDEST PUSH1 0x0 PUSH2 0x218C PUSH1 0x1C DUP4 PUSH2 0x29F0 JUMP JUMPDEST SWAP2 POP PUSH2 0x2197 DUP3 PUSH2 0x2E6D JUMP JUMPDEST PUSH1 0x1C DUP3 ADD SWAP1 POP SWAP2 SWAP1 POP JUMP JUMPDEST PUSH1 0x0 PUSH2 0x21AF PUSH1 0x16 DUP4 PUSH2 0x29DF JUMP JUMPDEST SWAP2 POP PUSH2 0x21BA DUP3 PUSH2 0x2E96 JUMP JUMPDEST PUSH1 0x20 DUP3 ADD SWAP1 POP SWAP2 SWAP1 POP JUMP JUMPDEST PUSH1 0x0 PUSH2 0x21D2 PUSH1 0x26 DUP4 PUSH2 0x29DF JUMP JUMPDEST SWAP2 POP PUSH2 0x21DD DUP3 PUSH2 0x2EBF JUMP JUMPDEST PUSH1 0x40 DUP3 ADD SWAP1 POP SWAP2 SWAP1 POP JUMP JUMPDEST PUSH1 0x0 PUSH2 0x21F5 PUSH1 0xD DUP4 PUSH2 0x29DF JUMP JUMPDEST SWAP2 POP PUSH2 0x2200 DUP3 PUSH2 0x2F0E JUMP JUMPDEST PUSH1 0x20 DUP3 ADD SWAP1 POP SWAP2 SWAP1 POP JUMP JUMPDEST PUSH1 0x0 PUSH2 0x2218 PUSH1 0xF DUP4 PUSH2 0x29DF JUMP JUMPDEST SWAP2 POP PUSH2 0x2223 DUP3 PUSH2 0x2F37 JUMP JUMPDEST PUSH1 0x20 DUP3 ADD SWAP1 POP SWAP2 SWAP1 POP JUMP JUMPDEST PUSH1 0x0 PUSH2 0x223B PUSH1 0xC DUP4 PUSH2 0x29DF JUMP JUMPDEST SWAP2 POP PUSH2 0x2246 DUP3 PUSH2 0x2F60 JUMP JUMPDEST PUSH1 0x20 DUP3 ADD SWAP1 POP SWAP2 SWAP1 POP JUMP JUMPDEST PUSH1 0x0 PUSH2 0x225E PUSH1 0x14 DUP4 PUSH2 0x29DF JUMP JUMPDEST SWAP2 POP PUSH2 0x2269 DUP3 PUSH2 0x2F89 JUMP JUMPDEST PUSH1 0x20 DUP3 ADD SWAP1 POP SWAP2 SWAP1 POP JUMP JUMPDEST PUSH1 0x0 PUSH2 0x2281 PUSH1 0xF DUP4 PUSH2 0x29DF JUMP JUMPDEST SWAP2 POP PUSH2 0x228C DUP3 PUSH2 0x2FB2 JUMP JUMPDEST PUSH1 0x20 DUP3 ADD SWAP1 POP SWAP2 SWAP1 POP JUMP JUMPDEST PUSH1 0x0 PUSH2 0x22A4 PUSH1 0x11 DUP4 PUSH2 0x29DF JUMP JUMPDEST SWAP2 POP PUSH2 0x22AF DUP3 PUSH2 0x2FDB JUMP JUMPDEST PUSH1 0x20 DUP3 ADD SWAP1 POP SWAP2 SWAP1 POP JUMP JUMPDEST PUSH1 0x0 PUSH2 0x22C7 PUSH1 0x11 DUP4 PUSH2 0x29DF JUMP JUMPDEST SWAP2 POP PUSH2 0x22D2 DUP3 PUSH2 0x3004 JUMP JUMPDEST PUSH1 0x20 DUP3 ADD SWAP1 POP SWAP2 SWAP1 POP JUMP JUMPDEST PUSH1 0x0 PUSH2 0x22EA PUSH1 0x17 DUP4 PUSH2 0x29DF JUMP JUMPDEST SWAP2 POP PUSH2 0x22F5 DUP3 PUSH2 0x302D JUMP JUMPDEST PUSH1 0x20 DUP3 ADD SWAP1 POP SWAP2 SWAP1 POP JUMP JUMPDEST PUSH1 0x0 PUSH2 0x230D PUSH1 0xF DUP4 PUSH2 0x29DF JUMP JUMPDEST SWAP2 POP PUSH2 0x2318 DUP3 PUSH2 0x3056 JUMP JUMPDEST PUSH1 0x20 DUP3 ADD SWAP1 POP SWAP2 SWAP1 POP JUMP JUMPDEST PUSH1 0x0 PUSH2 0x2330 PUSH1 0x17 DUP4 PUSH2 0x29DF JUMP JUMPDEST SWAP2 POP PUSH2 0x233B DUP3 PUSH2 0x307F JUMP JUMPDEST PUSH1 0x20 DUP3 ADD SWAP1 POP SWAP2 SWAP1 POP JUMP JUMPDEST PUSH1 0x0 PUSH2 0x2353 PUSH1 0x1A DUP4 PUSH2 0x29DF JUMP JUMPDEST SWAP2 POP PUSH2 0x235E DUP3 PUSH2 0x30A8 JUMP JUMPDEST PUSH1 0x20 DUP3 ADD SWAP1 POP SWAP2 SWAP1 POP JUMP JUMPDEST PUSH1 0x0 PUSH2 0x2376 PUSH1 0x20 DUP4 PUSH2 0x29DF JUMP JUMPDEST SWAP2 POP PUSH2 0x2381 DUP3 PUSH2 0x30D1 JUMP JUMPDEST PUSH1 0x20 DUP3 ADD SWAP1 POP SWAP2 SWAP1 POP JUMP JUMPDEST PUSH1 0x0 PUSH2 0x2399 PUSH1 0x22 DUP4 PUSH2 0x29DF JUMP JUMPDEST SWAP2 POP PUSH2 0x23A4 DUP3 PUSH2 0x30FA JUMP JUMPDEST PUSH1 0x40 DUP3 ADD SWAP1 POP SWAP2 SWAP1 POP JUMP JUMPDEST PUSH1 0x0 PUSH2 0x23BC PUSH1 0x0 DUP4 PUSH2 0x29D4 JUMP JUMPDEST SWAP2 POP PUSH2 0x23C7 DUP3 PUSH2 0x3149 JUMP JUMPDEST PUSH1 0x0 DUP3 ADD SWAP1 POP SWAP2 SWAP1 POP JUMP JUMPDEST PUSH1 0x0 PUSH2 0x23DF PUSH1 0xE DUP4 PUSH2 0x29DF JUMP JUMPDEST SWAP2 POP PUSH2 0x23EA DUP3 PUSH2 0x314C JUMP JUMPDEST PUSH1 0x20 DUP3 ADD SWAP1 POP SWAP2 SWAP1 POP JUMP JUMPDEST PUSH1 0x0 PUSH2 0x2402 PUSH1 0x18 DUP4 PUSH2 0x29DF JUMP JUMPDEST SWAP2 POP PUSH2 0x240D DUP3 PUSH2 0x3175 JUMP JUMPDEST PUSH1 0x20 DUP3 ADD SWAP1 POP SWAP2 SWAP1 POP JUMP JUMPDEST PUSH1 0x0 PUSH2 0x2425 PUSH1 0x11 DUP4 PUSH2 0x29DF JUMP JUMPDEST SWAP2 POP PUSH2 0x2430 DUP3 PUSH2 0x319E JUMP JUMPDEST PUSH1 0x20 DUP3 ADD SWAP1 POP SWAP2 SWAP1 POP JUMP JUMPDEST PUSH1 0x40 DUP3 ADD PUSH1 0x0 DUP3 ADD MLOAD PUSH2 0x2451 PUSH1 0x0 DUP6 ADD DUP3 PUSH2 0x1FED JUMP JUMPDEST POP PUSH1 0x20 DUP3 ADD MLOAD PUSH2 0x2464 PUSH1 0x20 DUP6 ADD DUP3 PUSH2 0x1FED JUMP JUMPDEST POP POP POP POP JUMP JUMPDEST PUSH2 0x2473 DUP2 PUSH2 0x2B7D JUMP JUMPDEST DUP3 MSTORE POP POP JUMP JUMPDEST PUSH2 0x248A PUSH2 0x2485 DUP3 PUSH2 0x2B7D JUMP JUMPDEST PUSH2 0x2C79 JUMP JUMPDEST DUP3 MSTORE POP POP JUMP JUMPDEST PUSH2 0x2499 DUP2 PUSH2 0x2B87 JUMP JUMPDEST DUP3 MSTORE POP POP JUMP JUMPDEST PUSH1 0x0 PUSH2 0x24AB DUP3 DUP7 PUSH2 0x200B JUMP JUMPDEST PUSH1 0x14 DUP3 ADD SWAP2 POP PUSH2 0x24BB DUP3 DUP6 PUSH2 0x209F JUMP JUMPDEST SWAP2 POP PUSH2 0x24C7 DUP3 DUP5 PUSH2 0x2479 JUMP JUMPDEST PUSH1 0x20 DUP3 ADD SWAP2 POP DUP2 SWAP1 POP SWAP5 SWAP4 POP POP POP POP JUMP JUMPDEST PUSH1 0x0 PUSH2 0x24E3 DUP3 PUSH2 0x217F JUMP JUMPDEST SWAP2 POP PUSH2 0x24EF DUP3 DUP5 PUSH2 0x2040 JUMP JUMPDEST PUSH1 0x20 DUP3 ADD SWAP2 POP DUP2 SWAP1 POP SWAP3 SWAP2 POP POP JUMP JUMPDEST PUSH1 0x0 PUSH2 0x2509 DUP3 PUSH2 0x23AF JUMP JUMPDEST SWAP2 POP DUP2 SWAP1 POP SWAP2 SWAP1 POP JUMP JUMPDEST PUSH1 0x0 PUSH1 0x20 DUP3 ADD SWAP1 POP PUSH2 0x2528 PUSH1 0x0 DUP4 ADD DUP5 PUSH2 0x1FFC JUMP JUMPDEST SWAP3 SWAP2 POP POP JUMP JUMPDEST PUSH1 0x0 PUSH1 0x20 DUP3 ADD SWAP1 POP PUSH2 0x2543 PUSH1 0x0 DUP4 ADD DUP5 PUSH2 0x1FDE JUMP JUMPDEST SWAP3 SWAP2 POP POP JUMP JUMPDEST PUSH1 0x0 PUSH1 0x20 DUP3 ADD SWAP1 POP PUSH2 0x255E PUSH1 0x0 DUP4 ADD DUP5 PUSH2 0x2022 JUMP JUMPDEST SWAP3 SWAP2 POP POP JUMP JUMPDEST PUSH1 0x0 PUSH1 0x20 DUP3 ADD SWAP1 POP PUSH2 0x2579 PUSH1 0x0 DUP4 ADD DUP5 PUSH2 0x2031 JUMP JUMPDEST SWAP3 SWAP2 POP POP JUMP JUMPDEST PUSH1 0x0 PUSH1 0x60 DUP3 ADD SWAP1 POP PUSH2 0x2594 PUSH1 0x0 DUP4 ADD DUP7 PUSH2 0x2031 JUMP JUMPDEST PUSH2 0x25A1 PUSH1 0x20 DUP4 ADD DUP6 PUSH2 0x2031 JUMP JUMPDEST PUSH2 0x25AE PUSH1 0x40 DUP4 ADD DUP5 PUSH2 0x2490 JUMP JUMPDEST SWAP5 SWAP4 POP POP POP POP JUMP JUMPDEST PUSH1 0x0 PUSH1 0x80 DUP3 ADD SWAP1 POP PUSH2 0x25CB PUSH1 0x0 DUP4 ADD DUP8 PUSH2 0x2031 JUMP JUMPDEST PUSH2 0x25D8 PUSH1 0x20 DUP4 ADD DUP7 PUSH2 0x2490 JUMP JUMPDEST PUSH2 0x25E5 PUSH1 0x40 DUP4 ADD DUP6 PUSH2 0x2031 JUMP JUMPDEST PUSH2 0x25F2 PUSH1 0x60 DUP4 ADD DUP5 PUSH2 0x2031 JUMP JUMPDEST SWAP6 SWAP5 POP POP POP POP POP JUMP JUMPDEST PUSH1 0x0 PUSH1 0x20 DUP3 ADD SWAP1 POP DUP2 DUP2 SUB PUSH1 0x0 DUP4 ADD MSTORE PUSH2 0x2614 DUP2 PUSH2 0x20D0 JUMP JUMPDEST SWAP1 POP SWAP2 SWAP1 POP JUMP JUMPDEST PUSH1 0x0 PUSH1 0x20 DUP3 ADD SWAP1 POP DUP2 DUP2 SUB PUSH1 0x0 DUP4 ADD MSTORE PUSH2 0x2634 DUP2 PUSH2 0x20F3 JUMP JUMPDEST SWAP1 POP SWAP2 SWAP1 POP JUMP JUMPDEST PUSH1 0x0 PUSH1 0x20 DUP3 ADD SWAP1 POP DUP2 DUP2 SUB PUSH1 0x0 DUP4 ADD MSTORE PUSH2 0x2654 DUP2 PUSH2 0x2116 JUMP JUMPDEST SWAP1 POP SWAP2 SWAP1 POP JUMP JUMPDEST PUSH1 0x0 PUSH1 0x20 DUP3 ADD SWAP1 POP DUP2 DUP2 SUB PUSH1 0x0 DUP4 ADD MSTORE PUSH2 0x2674 DUP2 PUSH2 0x2139 JUMP JUMPDEST SWAP1 POP SWAP2 SWAP1 POP JUMP JUMPDEST PUSH1 0x0 PUSH1 0x20 DUP3 ADD SWAP1 POP DUP2 DUP2 SUB PUSH1 0x0 DUP4 ADD MSTORE PUSH2 0x2694 DUP2 PUSH2 0x215C JUMP JUMPDEST SWAP1 POP SWAP2 SWAP1 POP JUMP JUMPDEST PUSH1 0x0 PUSH1 0x20 DUP3 ADD SWAP1 POP DUP2 DUP2 SUB PUSH1 0x0 DUP4 ADD MSTORE PUSH2 0x26B4 DUP2 PUSH2 0x21A2 JUMP JUMPDEST SWAP1 POP SWAP2 SWAP1 POP JUMP JUMPDEST PUSH1 0x0 PUSH1 0x20 DUP3 ADD SWAP1 POP DUP2 DUP2 SUB PUSH1 0x0 DUP4 ADD MSTORE PUSH2 0x26D4 DUP2 PUSH2 0x21C5 JUMP JUMPDEST SWAP1 POP SWAP2 SWAP1 POP JUMP JUMPDEST PUSH1 0x0 PUSH1 0x20 DUP3 ADD SWAP1 POP DUP2 DUP2 SUB PUSH1 0x0 DUP4 ADD MSTORE PUSH2 0x26F4 DUP2 PUSH2 0x21E8 JUMP JUMPDEST SWAP1 POP SWAP2 SWAP1 POP JUMP JUMPDEST PUSH1 0x0 PUSH1 0x20 DUP3 ADD SWAP1 POP DUP2 DUP2 SUB PUSH1 0x0 DUP4 ADD MSTORE PUSH2 0x2714 DUP2 PUSH2 0x220B JUMP JUMPDEST SWAP1 POP SWAP2 SWAP1 POP JUMP JUMPDEST PUSH1 0x0 PUSH1 0x20 DUP3 ADD SWAP1 POP DUP2 DUP2 SUB PUSH1 0x0 DUP4 ADD MSTORE PUSH2 0x2734 DUP2 PUSH2 0x222E JUMP JUMPDEST SWAP1 POP SWAP2 SWAP1 POP JUMP JUMPDEST PUSH1 0x0 PUSH1 0x20 DUP3 ADD SWAP1 POP DUP2 DUP2 SUB PUSH1 0x0 DUP4 ADD MSTORE PUSH2 0x2754 DUP2 PUSH2 0x2251 JUMP JUMPDEST SWAP1 POP SWAP2 SWAP1 POP JUMP JUMPDEST PUSH1 0x0 PUSH1 0x20 DUP3 ADD SWAP1 POP DUP2 DUP2 SUB PUSH1 0x0 DUP4 ADD MSTORE PUSH2 0x2774 DUP2 PUSH2 0x2274 JUMP JUMPDEST SWAP1 POP SWAP2 SWAP1 POP JUMP JUMPDEST PUSH1 0x0 PUSH1 0x20 DUP3 ADD SWAP1 POP DUP2 DUP2 SUB PUSH1 0x0 DUP4 ADD MSTORE PUSH2 0x2794 DUP2 PUSH2 0x2297 JUMP JUMPDEST SWAP1 POP SWAP2 SWAP1 POP JUMP JUMPDEST PUSH1 0x0 PUSH1 0x20 DUP3 ADD SWAP1 POP DUP2 DUP2 SUB PUSH1 0x0 DUP4 ADD MSTORE PUSH2 0x27B4 DUP2 PUSH2 0x22BA JUMP JUMPDEST SWAP1 POP SWAP2 SWAP1 POP JUMP JUMPDEST PUSH1 0x0 PUSH1 0x20 DUP3 ADD SWAP1 POP DUP2 DUP2 SUB PUSH1 0x0 DUP4 ADD MSTORE PUSH2 0x27D4 DUP2 PUSH2 0x22DD JUMP JUMPDEST SWAP1 POP SWAP2 SWAP1 POP JUMP JUMPDEST PUSH1 0x0 PUSH1 0x20 DUP3 ADD SWAP1 POP DUP2 DUP2 SUB PUSH1 0x0 DUP4 ADD MSTORE PUSH2 0x27F4 DUP2 PUSH2 0x2300 JUMP JUMPDEST SWAP1 POP SWAP2 SWAP1 POP JUMP JUMPDEST PUSH1 0x0 PUSH1 0x20 DUP3 ADD SWAP1 POP DUP2 DUP2 SUB PUSH1 0x0 DUP4 ADD MSTORE PUSH2 0x2814 DUP2 PUSH2 0x2323 JUMP JUMPDEST SWAP1 POP SWAP2 SWAP1 POP JUMP JUMPDEST PUSH1 0x0 PUSH1 0x20 DUP3 ADD SWAP1 POP DUP2 DUP2 SUB PUSH1 0x0 DUP4 ADD MSTORE PUSH2 0x2834 DUP2 PUSH2 0x2346 JUMP JUMPDEST SWAP1 POP SWAP2 SWAP1 POP JUMP JUMPDEST PUSH1 0x0 PUSH1 0x20 DUP3 ADD SWAP1 POP DUP2 DUP2 SUB PUSH1 0x0 DUP4 ADD MSTORE PUSH2 0x2854 DUP2 PUSH2 0x2369 JUMP JUMPDEST SWAP1 POP SWAP2 SWAP1 POP JUMP JUMPDEST PUSH1 0x0 PUSH1 0x20 DUP3 ADD SWAP1 POP DUP2 DUP2 SUB PUSH1 0x0 DUP4 ADD MSTORE PUSH2 0x2874 DUP2 PUSH2 0x238C JUMP JUMPDEST SWAP1 POP SWAP2 SWAP1 POP JUMP JUMPDEST PUSH1 0x0 PUSH1 0x20 DUP3 ADD SWAP1 POP DUP2 DUP2 SUB PUSH1 0x0 DUP4 ADD MSTORE PUSH2 0x2894 DUP2 PUSH2 0x23D2 JUMP JUMPDEST SWAP1 POP SWAP2 SWAP1 POP JUMP JUMPDEST PUSH1 0x0 PUSH1 0x20 DUP3 ADD SWAP1 POP DUP2 DUP2 SUB PUSH1 0x0 DUP4 ADD MSTORE PUSH2 0x28B4 DUP2 PUSH2 0x23F5 JUMP JUMPDEST SWAP1 POP SWAP2 SWAP1 POP JUMP JUMPDEST PUSH1 0x0 PUSH1 0x20 DUP3 ADD SWAP1 POP DUP2 DUP2 SUB PUSH1 0x0 DUP4 ADD MSTORE PUSH2 0x28D4 DUP2 PUSH2 0x2418 JUMP JUMPDEST SWAP1 POP SWAP2 SWAP1 POP JUMP JUMPDEST PUSH1 0x0 PUSH1 0xA0 DUP3 ADD SWAP1 POP PUSH2 0x28F0 PUSH1 0x0 DUP4 ADD DUP8 PUSH2 0x243B JUMP JUMPDEST PUSH2 0x28FD PUSH1 0x40 DUP4 ADD DUP7 PUSH2 0x246A JUMP JUMPDEST DUP2 DUP2 SUB PUSH1 0x60 DUP4 ADD MSTORE PUSH2 0x290F DUP2 DUP6 PUSH2 0x2066 JUMP JUMPDEST SWAP1 POP PUSH2 0x291E PUSH1 0x80 DUP4 ADD DUP5 PUSH2 0x2057 JUMP JUMPDEST SWAP6 SWAP5 POP POP POP POP POP JUMP JUMPDEST PUSH1 0x0 PUSH1 0x20 DUP3 ADD SWAP1 POP PUSH2 0x293C PUSH1 0x0 DUP4 ADD DUP5 PUSH2 0x246A JUMP JUMPDEST SWAP3 SWAP2 POP POP JUMP JUMPDEST PUSH1 0x0 PUSH2 0x294C PUSH2 0x295D JUMP JUMPDEST SWAP1 POP PUSH2 0x2958 DUP3 DUP3 PUSH2 0x2C1A JUMP JUMPDEST SWAP2 SWAP1 POP JUMP JUMPDEST PUSH1 0x0 PUSH1 0x40 MLOAD SWAP1 POP SWAP1 JUMP JUMPDEST PUSH1 0x0 PUSH8 0xFFFFFFFFFFFFFFFF DUP3 GT ISZERO PUSH2 0x2982 JUMPI PUSH2 0x2981 PUSH2 0x2D3F JUMP JUMPDEST JUMPDEST PUSH2 0x298B DUP3 PUSH2 0x2D82 JUMP JUMPDEST SWAP1 POP PUSH1 0x20 DUP2 ADD SWAP1 POP SWAP2 SWAP1 POP JUMP JUMPDEST PUSH1 0x0 PUSH8 0xFFFFFFFFFFFFFFFF DUP3 GT ISZERO PUSH2 0x29B3 JUMPI PUSH2 0x29B2 PUSH2 0x2D3F JUMP JUMPDEST JUMPDEST PUSH2 0x29BC DUP3 PUSH2 0x2D82 JUMP JUMPDEST SWAP1 POP PUSH1 0x20 DUP2 ADD SWAP1 POP SWAP2 SWAP1 POP JUMP JUMPDEST PUSH1 0x0 DUP2 MLOAD SWAP1 POP SWAP2 SWAP1 POP JUMP JUMPDEST PUSH1 0x0 DUP2 SWAP1 POP SWAP3 SWAP2 POP POP JUMP JUMPDEST PUSH1 0x0 DUP3 DUP3 MSTORE PUSH1 0x20 DUP3 ADD SWAP1 POP SWAP3 SWAP2 POP POP JUMP JUMPDEST PUSH1 0x0 DUP2 SWAP1 POP SWAP3 SWAP2 POP POP JUMP JUMPDEST PUSH1 0x0 PUSH2 0x2A06 DUP3 PUSH2 0x2B7D JUMP JUMPDEST SWAP2 POP PUSH2 0x2A11 DUP4 PUSH2 0x2B7D JUMP JUMPDEST SWAP3 POP DUP3 PUSH32 0xFFFFFFFFFFFFFFFFFFFFFFFFFFFFFFFFFFFFFFFFFFFFFFFFFFFFFFFFFFFFFFFF SUB DUP3 GT ISZERO PUSH2 0x2A46 JUMPI PUSH2 0x2A45 PUSH2 0x2C83 JUMP JUMPDEST JUMPDEST DUP3 DUP3 ADD SWAP1 POP SWAP3 SWAP2 POP POP JUMP JUMPDEST PUSH1 0x0 PUSH2 0x2A5C DUP3 PUSH2 0x2B7D JUMP JUMPDEST SWAP2 POP PUSH2 0x2A67 DUP4 PUSH2 0x2B7D JUMP JUMPDEST SWAP3 POP DUP3 PUSH2 0x2A77 JUMPI PUSH2 0x2A76 PUSH2 0x2CB2 JUMP JUMPDEST JUMPDEST DUP3 DUP3 DIV SWAP1 POP SWAP3 SWAP2 POP POP JUMP JUMPDEST PUSH1 0x0 PUSH2 0x2A8D DUP3 PUSH2 0x2B7D JUMP JUMPDEST SWAP2 POP PUSH2 0x2A98 DUP4 PUSH2 0x2B7D JUMP JUMPDEST SWAP3 POP DUP2 PUSH32 0xFFFFFFFFFFFFFFFFFFFFFFFFFFFFFFFFFFFFFFFFFFFFFFFFFFFFFFFFFFFFFFFF DIV DUP4 GT DUP3 ISZERO ISZERO AND ISZERO PUSH2 0x2AD1 JUMPI PUSH2 0x2AD0 PUSH2 0x2C83 JUMP JUMPDEST JUMPDEST DUP3 DUP3 MUL SWAP1 POP SWAP3 SWAP2 POP POP JUMP JUMPDEST PUSH1 0x0 PUSH2 0x2AE7 DUP3 PUSH2 0x2B7D JUMP JUMPDEST SWAP2 POP PUSH2 0x2AF2 DUP4 PUSH2 0x2B7D JUMP JUMPDEST SWAP3 POP DUP3 DUP3 LT ISZERO PUSH2 0x2B05 JUMPI PUSH2 0x2B04 PUSH2 0x2C83 JUMP JUMPDEST JUMPDEST DUP3 DUP3 SUB SWAP1 POP SWAP3 SWAP2 POP POP JUMP JUMPDEST PUSH1 0x0 PUSH2 0x2B1B DUP3 PUSH2 0x2B5D JUMP JUMPDEST SWAP1 POP SWAP2 SWAP1 POP JUMP JUMPDEST PUSH1 0x0 PUSH2 0x2B2D DUP3 PUSH2 0x2B5D JUMP JUMPDEST SWAP1 POP SWAP2 SWAP1 POP JUMP JUMPDEST PUSH1 0x0 DUP2 ISZERO ISZERO SWAP1 POP SWAP2 SWAP1 POP JUMP JUMPDEST PUSH1 0x0 DUP2 SWAP1 POP SWAP2 SWAP1 POP JUMP JUMPDEST PUSH1 0x0 DUP2 SWAP1 POP PUSH2 0x2B58 DUP3 PUSH2 0x31C7 JUMP JUMPDEST SWAP2 SWAP1 POP JUMP JUMPDEST PUSH1 0x0 PUSH20 0xFFFFFFFFFFFFFFFFFFFFFFFFFFFFFFFFFFFFFFFF DUP3 AND SWAP1 POP SWAP2 SWAP1 POP JUMP JUMPDEST PUSH1 0x0 DUP2 SWAP1 POP SWAP2 SWAP1 POP JUMP JUMPDEST PUSH1 0x0 PUSH1 0xFF DUP3 AND SWAP1 POP SWAP2 SWAP1 POP JUMP JUMPDEST PUSH1 0x0 PUSH2 0x2B9F DUP3 PUSH2 0x2B4A JUMP JUMPDEST SWAP1 POP SWAP2 SWAP1 POP JUMP JUMPDEST DUP3 DUP2 DUP4 CALLDATACOPY PUSH1 0x0 DUP4 DUP4 ADD MSTORE POP POP POP JUMP JUMPDEST PUSH1 0x0 JUMPDEST DUP4 DUP2 LT ISZERO PUSH2 0x2BD3 JUMPI DUP1 DUP3 ADD MLOAD DUP2 DUP5 ADD MSTORE PUSH1 0x20 DUP2 ADD SWAP1 POP PUSH2 0x2BB8 JUMP JUMPDEST DUP4 DUP2 GT ISZERO PUSH2 0x2BE2 JUMPI PUSH1 0x0 DUP5 DUP5 ADD MSTORE JUMPDEST POP POP POP POP JUMP JUMPDEST PUSH1 0x0 PUSH1 0x2 DUP3 DIV SWAP1 POP PUSH1 0x1 DUP3 AND DUP1 PUSH2 0x2C00 JUMPI PUSH1 0x7F DUP3 AND SWAP2 POP JUMPDEST PUSH1 0x20 DUP3 LT DUP2 EQ ISZERO PUSH2 0x2C14 JUMPI PUSH2 0x2C13 PUSH2 0x2D10 JUMP JUMPDEST JUMPDEST POP SWAP2 SWAP1 POP JUMP JUMPDEST PUSH2 0x2C23 DUP3 PUSH2 0x2D82 JUMP JUMPDEST DUP2 ADD DUP2 DUP2 LT PUSH8 0xFFFFFFFFFFFFFFFF DUP3 GT OR ISZERO PUSH2 0x2C42 JUMPI PUSH2 0x2C41 PUSH2 0x2D3F JUMP JUMPDEST JUMPDEST DUP1 PUSH1 0x40 MSTORE POP POP POP JUMP JUMPDEST PUSH1 0x0 PUSH2 0x2C56 DUP3 PUSH2 0x2C67 JUMP JUMPDEST SWAP1 POP SWAP2 SWAP1 POP JUMP JUMPDEST PUSH1 0x0 DUP2 SWAP1 POP SWAP2 SWAP1 POP JUMP JUMPDEST PUSH1 0x0 PUSH2 0x2C72 DUP3 PUSH2 0x2D93 JUMP JUMPDEST SWAP1 POP SWAP2 SWAP1 POP JUMP JUMPDEST PUSH1 0x0 DUP2 SWAP1 POP SWAP2 SWAP1 POP JUMP JUMPDEST PUSH32 0x4E487B7100000000000000000000000000000000000000000000000000000000 PUSH1 0x0 MSTORE PUSH1 0x11 PUSH1 0x4 MSTORE PUSH1 0x24 PUSH1 0x0 REVERT JUMPDEST PUSH32 0x4E487B7100000000000000000000000000000000000000000000000000000000 PUSH1 0x0 MSTORE PUSH1 0x12 PUSH1 0x4 MSTORE PUSH1 0x24 PUSH1 0x0 REVERT JUMPDEST PUSH32 0x4E487B7100000000000000000000000000000000000000000000000000000000 PUSH1 0x0 MSTORE PUSH1 0x21 PUSH1 0x4 MSTORE PUSH1 0x24 PUSH1 0x0 REVERT JUMPDEST PUSH32 0x4E487B7100000000000000000000000000000000000000000000000000000000 PUSH1 0x0 MSTORE PUSH1 0x22 PUSH1 0x4 MSTORE PUSH1 0x24 PUSH1 0x0 REVERT JUMPDEST PUSH32 0x4E487B7100000000000000000000000000000000000000000000000000000000 PUSH1 0x0 MSTORE PUSH1 0x41 PUSH1 0x4 MSTORE PUSH1 0x24 PUSH1 0x0 REVERT JUMPDEST PUSH1 0x0 DUP1 REVERT JUMPDEST PUSH1 0x0 DUP1 REVERT JUMPDEST PUSH1 0x0 DUP1 REVERT JUMPDEST PUSH1 0x0 DUP1 REVERT JUMPDEST PUSH1 0x0 PUSH1 0x1F NOT PUSH1 0x1F DUP4 ADD AND SWAP1 POP SWAP2 SWAP1 POP JUMP JUMPDEST PUSH1 0x0 DUP2 PUSH1 0x60 SHL SWAP1 POP SWAP2 SWAP1 POP JUMP JUMPDEST PUSH32 0x616464726573732063616E27742062652073616D652021000000000000000000 PUSH1 0x0 DUP3 ADD MSTORE POP JUMP JUMPDEST PUSH32 0x6164647265737365732063616E2774206265207A65726F000000000000000000 PUSH1 0x0 DUP3 ADD MSTORE POP JUMP JUMPDEST PUSH32 0x6E6F742064697370757465720000000000000000000000000000000000000000 PUSH1 0x0 DUP3 ADD MSTORE POP JUMP JUMPDEST PUSH32 0x6E6F7420746865207265616C20636C69656E7400000000000000000000000000 PUSH1 0x0 DUP3 ADD MSTORE POP JUMP JUMPDEST PUSH32 0x4E6F7420612076616C6964207061727479000000000000000000000000000000 PUSH1 0x0 DUP3 ADD MSTORE POP JUMP JUMPDEST PUSH32 0x19457468657265756D205369676E6564204D6573736167653A0A333200000000 PUSH1 0x0 DUP3 ADD MSTORE POP JUMP JUMPDEST PUSH32 0x436C69656E74206973206E6F74206167726565696E6700000000000000000000 PUSH1 0x0 DUP3 ADD MSTORE POP JUMP JUMPDEST PUSH32 0x4F776E61626C653A206E6577206F776E657220697320746865207A65726F2061 PUSH1 0x0 DUP3 ADD MSTORE PUSH32 0x6464726573730000000000000000000000000000000000000000000000000000 PUSH1 0x20 DUP3 ADD MSTORE POP JUMP JUMPDEST PUSH32 0x63616E2774206265206C65737300000000000000000000000000000000000000 PUSH1 0x0 DUP3 ADD MSTORE POP JUMP JUMPDEST PUSH32 0x4E6F742076616C69642050617274790000000000000000000000000000000000 PUSH1 0x0 DUP3 ADD MSTORE POP JUMP JUMPDEST PUSH32 0x4E6F742044697370757465640000000000000000000000000000000000000000 PUSH1 0x0 DUP3 ADD MSTORE POP JUMP JUMPDEST PUSH32 0x4661696C656420746F2073656E64204574686572000000000000000000000000 PUSH1 0x0 DUP3 ADD MSTORE POP JUMP JUMPDEST PUSH32 0x4E6F74206D61726B656420646F6E650000000000000000000000000000000000 PUSH1 0x0 DUP3 ADD MSTORE POP JUMP JUMPDEST PUSH32 0x4D61726B65642064697370757465642021000000000000000000000000000000 PUSH1 0x0 DUP3 ADD MSTORE POP JUMP JUMPDEST PUSH32 0x4E6F742076616C696420416D6F756E7473000000000000000000000000000000 PUSH1 0x0 DUP3 ADD MSTORE POP JUMP JUMPDEST PUSH32 0x6E6F7420746865206F726967696E616C207369676E6572000000000000000000 PUSH1 0x0 DUP3 ADD MSTORE POP JUMP JUMPDEST PUSH32 0x616D6F756E742065786365656465640000000000000000000000000000000000 PUSH1 0x0 DUP3 ADD MSTORE POP JUMP JUMPDEST PUSH32 0x6E6F7420746865207265616C20667265656C616E636572000000000000000000 PUSH1 0x0 DUP3 ADD MSTORE POP JUMP JUMPDEST PUSH32 0x667265656C616E636572206973206E6F74206167726565696E67000000000000 PUSH1 0x0 DUP3 ADD MSTORE POP JUMP JUMPDEST PUSH32 0x4F776E61626C653A2063616C6C6572206973206E6F7420746865206F776E6572 PUSH1 0x0 DUP3 ADD MSTORE POP JUMP JUMPDEST PUSH32 0x6F6E6C7920636C69656E742063616E206D61726B2074686520776F726B20646F PUSH1 0x0 DUP3 ADD MSTORE PUSH32 0x6E65000000000000000000000000000000000000000000000000000000000000 PUSH1 0x20 DUP3 ADD MSTORE POP JUMP JUMPDEST POP JUMP JUMPDEST PUSH32 0x4E6F7420696E2064697370757465000000000000000000000000000000000000 PUSH1 0x0 DUP3 ADD MSTORE POP JUMP JUMPDEST PUSH32 0x696E76616C6964207369676E6174757265206C656E6774680000000000000000 PUSH1 0x0 DUP3 ADD MSTORE POP JUMP JUMPDEST PUSH32 0x7369676E61747572652065787069726564000000000000000000000000000000 PUSH1 0x0 DUP3 ADD MSTORE POP JUMP JUMPDEST PUSH1 0x3 DUP2 LT PUSH2 0x31D8 JUMPI PUSH2 0x31D7 PUSH2 0x2CE1 JUMP JUMPDEST JUMPDEST POP JUMP JUMPDEST PUSH2 0x31E4 DUP2 PUSH2 0x2B10 JUMP JUMPDEST DUP2 EQ PUSH2 0x31EF JUMPI PUSH1 0x0 DUP1 REVERT JUMPDEST POP JUMP JUMPDEST PUSH2 0x31FB DUP2 PUSH2 0x2B22 JUMP JUMPDEST DUP2 EQ PUSH2 0x3206 JUMPI PUSH1 0x0 DUP1 REVERT JUMPDEST POP JUMP JUMPDEST PUSH2 0x3212 DUP2 PUSH2 0x2B40 JUMP JUMPDEST DUP2 EQ PUSH2 0x321D JUMPI PUSH1 0x0 DUP1 REVERT JUMPDEST POP JUMP JUMPDEST PUSH1 0x3 DUP2 LT PUSH2 0x322D JUMPI PUSH1 0x0 DUP1 REVERT JUMPDEST POP JUMP JUMPDEST PUSH2 0x3239 DUP2 PUSH2 0x2B7D JUMP JUMPDEST DUP2 EQ PUSH2 0x3244 JUMPI PUSH1 0x0 DUP1 REVERT JUMPDEST POP JUMP INVALID LOG2 PUSH5 0x6970667358 0x22 SLT KECCAK256 0xD0 0xE1 SELFDESTRUCT 0x5E 0x4B 0xDE SWAP2 0xBF CALL 0xCA 0xFB SWAP8 PUSH5 0x1403549817 DUP12 SGT MLOAD ADDRESS 0x24 0xF MOD SWAP5 JUMP PUSH19 0x4ECE6B2A64736F6C6343000806003300000000 "},"methodIdentifiers":{"account_info()":"2d1d2418","disputer()":"6ac56103","getEthSignedMessageHash(bytes32)":"fa540801","getMessageHash(address,string,uint256)":"082d8f29","initialize(address,address,uint256,string,string,bytes,uint256,bytes,uint256)":"32d4b991","owner()":"8da5cb5b","recoverSigner(bytes32,bytes)":"97aba7f9","renounceOwnership()":"715018a6","set_disputer(address,address,address,string,bytes,uint256,bytes,uint256)":"cd4c6707","settle_dispute(address,uint256,address,uint256)":"1576f060","splitSignature(bytes)":"a7bb5803","transferOwnership(address)":"f2fde38b","update_work_status(uint8)":"9798b890","verify(address,string,uint256,bytes)":"07546f1a","withdraw()":"3ccfd60b"}}}}}