{
  "_format": "hh-sol-artifact-1",
  "contractName": "EscrowFactory",
  "sourceName": "contracts/factory.sol",
  "abi": [
    {
      "inputs": [
        {
          "internalType": "address",
          "name": "_implementationContract",
          "type": "address"
        }
      ],
      "stateMutability": "nonpayable",
      "type": "constructor"
    },
    {
      "anonymous": false,
      "inputs": [
        {
          "indexed": true,
          "internalType": "address",
          "name": "_from",
          "type": "address"
        },
        {
          "indexed": true,
          "internalType": "address",
          "name": "_to",
          "type": "address"
        },
        {
          "indexed": false,
          "internalType": "uint256",
          "name": "_amount",
          "type": "uint256"
        }
      ],
      "name": "ContractCreated",
      "type": "event"
    },
    {
      "anonymous": false,
      "inputs": [
        {
          "indexed": true,
          "internalType": "address",
          "name": "_to",
          "type": "address"
        }
      ],
      "name": "NewContractCreated",
      "type": "event"
    },
    {
      "anonymous": false,
      "inputs": [
        {
          "indexed": true,
          "internalType": "address",
          "name": "previousOwner",
          "type": "address"
        },
        {
          "indexed": true,
          "internalType": "address",
          "name": "newOwner",
          "type": "address"
        }
      ],
      "name": "OwnershipTransferred",
      "type": "event"
    },
    {
      "inputs": [],
      "name": "account_info",
      "outputs": [
        {
          "components": [
            {
              "internalType": "address",
              "name": "client",
              "type": "address"
            },
            {
              "internalType": "address",
              "name": "freelancer",
              "type": "address"
            }
          ],
          "internalType": "struct Escrow.Parties",
          "name": "parties",
          "type": "tuple"
        },
        {
          "internalType": "uint256",
          "name": "amount",
          "type": "uint256"
        },
        {
          "internalType": "string",
          "name": "content_id",
          "type": "string"
        },
        {
          "internalType": "enum Escrow.Status",
          "name": "status",
          "type": "uint8"
        }
      ],
      "stateMutability": "view",
      "type": "function"
    },
    {
      "inputs": [
        {
          "internalType": "address",
          "name": "_client",
          "type": "address"
        },
        {
          "internalType": "address",
          "name": "_freelancer",
          "type": "address"
        },
        {
          "internalType": "uint256",
          "name": "_amount",
          "type": "uint256"
        },
        {
          "internalType": "string",
          "name": "cid",
          "type": "string"
        },
        {
          "internalType": "string",
          "name": "_msg",
          "type": "string"
        },
        {
          "internalType": "bytes",
          "name": "_clientSig",
          "type": "bytes"
        },
        {
          "internalType": "uint256",
          "name": "_clientSigTimestamp",
          "type": "uint256"
        },
        {
          "internalType": "bytes",
          "name": "_freelancerSig",
          "type": "bytes"
        },
        {
          "internalType": "uint256",
          "name": "_freelancerSigTimestamp",
          "type": "uint256"
        }
      ],
      "name": "createContract",
      "outputs": [
        {
          "internalType": "address",
          "name": "clone",
          "type": "address"
        }
      ],
      "stateMutability": "payable",
      "type": "function"
    },
    {
      "inputs": [],
      "name": "disputer",
      "outputs": [
        {
          "internalType": "address payable",
          "name": "",
          "type": "address"
        }
      ],
      "stateMutability": "view",
      "type": "function"
    },
    {
      "inputs": [
        {
          "internalType": "bytes32",
          "name": "_messageHash",
          "type": "bytes32"
        }
      ],
      "name": "getEthSignedMessageHash",
      "outputs": [
        {
          "internalType": "bytes32",
          "name": "",
          "type": "bytes32"
        }
      ],
      "stateMutability": "pure",
      "type": "function"
    },
    {
      "inputs": [
        {
          "internalType": "address",
          "name": "_to",
          "type": "address"
        },
        {
          "internalType": "string",
          "name": "_msg",
          "type": "string"
        },
        {
          "internalType": "uint256",
          "name": "_timestamp",
          "type": "uint256"
        }
      ],
      "name": "getMessageHash",
      "outputs": [
        {
          "internalType": "bytes32",
          "name": "",
          "type": "bytes32"
        }
      ],
      "stateMutability": "view",
      "type": "function"
    },
    {
      "inputs": [],
      "name": "implementationContract",
      "outputs": [
        {
          "internalType": "address",
          "name": "",
          "type": "address"
        }
      ],
      "stateMutability": "view",
      "type": "function"
    },
    {
      "inputs": [
        {
          "internalType": "address",
          "name": "_client",
          "type": "address"
        },
        {
          "internalType": "address",
          "name": "_freelancer",
          "type": "address"
        },
        {
          "internalType": "uint256",
          "name": "_amount",
          "type": "uint256"
        },
        {
          "internalType": "string",
          "name": "cid",
          "type": "string"
        },
        {
          "internalType": "string",
          "name": "_msg",
          "type": "string"
        },
        {
          "internalType": "bytes",
          "name": "_clientSig",
          "type": "bytes"
        },
        {
          "internalType": "uint256",
          "name": "_clientSigTimestamp",
          "type": "uint256"
        },
        {
          "internalType": "bytes",
          "name": "_freelancerSig",
          "type": "bytes"
        },
        {
          "internalType": "uint256",
          "name": "_freelancerSigTimestamp",
          "type": "uint256"
        }
      ],
      "name": "initialize",
      "outputs": [],
      "stateMutability": "payable",
      "type": "function"
    },
    {
      "inputs": [],
      "name": "owner",
      "outputs": [
        {
          "internalType": "address",
          "name": "",
          "type": "address"
        }
      ],
      "stateMutability": "view",
      "type": "function"
    },
    {
      "inputs": [
        {
          "internalType": "bytes32",
          "name": "_ethSignedMessageHash",
          "type": "bytes32"
        },
        {
          "internalType": "bytes",
          "name": "_signature",
          "type": "bytes"
        }
      ],
      "name": "recoverSigner",
      "outputs": [
        {
          "internalType": "address",
          "name": "",
          "type": "address"
        }
      ],
      "stateMutability": "pure",
      "type": "function"
    },
    {
      "inputs": [],
      "name": "renounceOwnership",
      "outputs": [],
      "stateMutability": "nonpayable",
      "type": "function"
    },
    {
      "inputs": [
        {
          "internalType": "address",
          "name": "_client",
          "type": "address"
        },
        {
          "internalType": "address",
          "name": "_freelancer",
          "type": "address"
        },
        {
          "internalType": "address payable",
          "name": "_disputer",
          "type": "address"
        },
        {
          "internalType": "string",
          "name": "_msg",
          "type": "string"
        },
        {
          "internalType": "bytes",
          "name": "_clientSig",
          "type": "bytes"
        },
        {
          "internalType": "uint256",
          "name": "_clientSigTimestamp",
          "type": "uint256"
        },
        {
          "internalType": "bytes",
          "name": "_freelancerSig",
          "type": "bytes"
        },
        {
          "internalType": "uint256",
          "name": "_freelancerSigTimestamp",
          "type": "uint256"
        }
      ],
      "name": "set_disputer",
      "outputs": [],
      "stateMutability": "nonpayable",
      "type": "function"
    },
    {
      "inputs": [
        {
          "internalType": "address",
          "name": "_addr1",
          "type": "address"
        },
        {
          "internalType": "uint256",
          "name": "_amount1",
          "type": "uint256"
        },
        {
          "internalType": "address",
          "name": "_addr2",
          "type": "address"
        },
        {
          "internalType": "uint256",
          "name": "_amount2",
          "type": "uint256"
        }
      ],
      "name": "settle_dispute",
      "outputs": [],
      "stateMutability": "nonpayable",
      "type": "function"
    },
    {
      "inputs": [
        {
          "internalType": "bytes",
          "name": "sig",
          "type": "bytes"
        }
      ],
      "name": "splitSignature",
      "outputs": [
        {
          "internalType": "bytes32",
          "name": "r",
          "type": "bytes32"
        },
        {
          "internalType": "bytes32",
          "name": "s",
          "type": "bytes32"
        },
        {
          "internalType": "uint8",
          "name": "v",
          "type": "uint8"
        }
      ],
      "stateMutability": "pure",
      "type": "function"
    },
    {
      "inputs": [
        {
          "internalType": "address",
          "name": "newOwner",
          "type": "address"
        }
      ],
      "name": "transferOwnership",
      "outputs": [],
      "stateMutability": "nonpayable",
      "type": "function"
    },
    {
      "inputs": [
        {
          "internalType": "enum Escrow.Status",
          "name": "_status",
          "type": "uint8"
        }
      ],
      "name": "update_work_status",
      "outputs": [],
      "stateMutability": "nonpayable",
      "type": "function"
    },
    {
      "inputs": [
        {
          "internalType": "address",
          "name": "_to",
          "type": "address"
        },
        {
          "internalType": "string",
          "name": "_msg",
          "type": "string"
        },
        {
          "internalType": "uint256",
          "name": "_timestamp",
          "type": "uint256"
        },
        {
          "internalType": "bytes",
          "name": "_signature",
          "type": "bytes"
        }
      ],
      "name": "verify",
      "outputs": [
        {
          "internalType": "bool",
          "name": "",
          "type": "bool"
        }
      ],
      "stateMutability": "view",
      "type": "function"
    },
    {
      "inputs": [],
      "name": "withdraw",
      "outputs": [],
      "stateMutability": "nonpayable",
      "type": "function"
    }
  ],
  "bytecode": "0x60806040523480156200001157600080fd5b506040516200397138038062003971833981810160405281019062000037919062000184565b620000576200004b6200009f60201b60201c565b620000a760201b60201c565b80603a60006101000a81548173ffffffffffffffffffffffffffffffffffffffff021916908373ffffffffffffffffffffffffffffffffffffffff1602179055505062000209565b600033905090565b6000603360009054906101000a900473ffffffffffffffffffffffffffffffffffffffff16905081603360006101000a81548173ffffffffffffffffffffffffffffffffffffffff021916908373ffffffffffffffffffffffffffffffffffffffff1602179055508173ffffffffffffffffffffffffffffffffffffffff168173ffffffffffffffffffffffffffffffffffffffff167f8be0079c531659141344cd1fd0a4f28419497f9722a3daafe3b4186f6b6457e060405160405180910390a35050565b6000815190506200017e81620001ef565b92915050565b6000602082840312156200019d576200019c620001ea565b5b6000620001ad848285016200016d565b91505092915050565b6000620001c382620001ca565b9050919050565b600073ffffffffffffffffffffffffffffffffffffffff82169050919050565b600080fd5b620001fa81620001b6565b81146200020657600080fd5b50565b61375880620002196000396000f3fe6080604052600436106100fe5760003560e01c80638da5cb5b11610095578063a7bb580311610064578063a7bb580314610305578063b1e3f12914610344578063cd4c670714610374578063f2fde38b1461039d578063fa540801146103c6576100fe565b80638da5cb5b146102495780639798b8901461027457806397aba7f91461029d57806399e7d056146102da576100fe565b806332d4b991116100d157806332d4b991146101d45780633ccfd60b146101f05780636ac5610314610207578063715018a614610232576100fe565b806307546f1a14610103578063082d8f29146101405780631576f0601461017d5780632d1d2418146101a6575b600080fd5b34801561010f57600080fd5b5061012a60048036038101906101259190612128565b610403565b604051610137919061299d565b60405180910390f35b34801561014c57600080fd5b50610167600480360381019061016291906120b9565b6104e8565b60405161017491906129b8565b60405180910390f35b34801561018957600080fd5b506101a4600480360381019061019f91906121c7565b61051e565b005b3480156101b257600080fd5b506101bb610b1c565b6040516101cb9493929190612d71565b60405180910390f35b6101ee60048036038101906101e99190611f7f565b610c85565b005b3480156101fc57600080fd5b50610205610fd2565b005b34801561021357600080fd5b5061021c61112a565b60405161022991906128d9565b60405180910390f35b34801561023e57600080fd5b50610247611150565b005b34801561025557600080fd5b5061025e611164565b60405161026b91906128be565b60405180910390f35b34801561028057600080fd5b5061029b60048036038101906102969190612300565b61118e565b005b3480156102a957600080fd5b506102c460048036038101906102bf919061225b565b611422565b6040516102d191906128be565b60405180910390f35b3480156102e657600080fd5b506102ef611491565b6040516102fc91906128be565b60405180910390f35b34801561031157600080fd5b5061032c600480360381019061032791906122b7565b6114b7565b60405161033b939291906129d3565b60405180910390f35b61035e60048036038101906103599190611f7f565b61151f565b60405161036b91906128be565b60405180910390f35b34801561038057600080fd5b5061039b60048036038101906103969190611e75565b61165a565b005b3480156103a957600080fd5b506103c460048036038101906103bf9190611e48565b6118df565b005b3480156103d257600080fd5b506103ed60048036038101906103e8919061222e565b611963565b6040516103fa91906129b8565b60405180910390f35b6000806104118686866104e8565b9050600061041e82611963565b90508673ffffffffffffffffffffffffffffffffffffffff166104418286611422565b73ffffffffffffffffffffffffffffffffffffffff1614610497576040517f08c379a000000000000000000000000000000000000000000000000000000000815260040161048e90612c51565b60405180910390fd5b428510156104da576040517f08c379a00000000000000000000000000000000000000000000000000000000081526004016104d190612d51565b60405180910390fd5b600192505050949350505050565b60008383836040516020016104ff9392919061284a565b6040516020818303038152906040528051906020012090509392505050565b603460009054906101000a900473ffffffffffffffffffffffffffffffffffffffff1673ffffffffffffffffffffffffffffffffffffffff163373ffffffffffffffffffffffffffffffffffffffff16146105ae576040517f08c379a00000000000000000000000000000000000000000000000000000000081526004016105a590612ab1565b60405180910390fd5b6002808111156105c1576105c0613193565b5b603560040160009054906101000a900460ff1660028111156105e6576105e5613193565b5b14610626576040517f08c379a000000000000000000000000000000000000000000000000000000000815260040161061d90612d11565b60405180910390fd5b603560000160000160009054906101000a900473ffffffffffffffffffffffffffffffffffffffff1673ffffffffffffffffffffffffffffffffffffffff168473ffffffffffffffffffffffffffffffffffffffff1614806106db5750603560000160010160009054906101000a900473ffffffffffffffffffffffffffffffffffffffff1673ffffffffffffffffffffffffffffffffffffffff168473ffffffffffffffffffffffffffffffffffffffff16145b61071a576040517f08c379a000000000000000000000000000000000000000000000000000000000815260040161071190612b71565b60405180910390fd5b603560000160000160009054906101000a900473ffffffffffffffffffffffffffffffffffffffff1673ffffffffffffffffffffffffffffffffffffffff168273ffffffffffffffffffffffffffffffffffffffff1614806107cf5750603560000160010160009054906101000a900473ffffffffffffffffffffffffffffffffffffffff1673ffffffffffffffffffffffffffffffffffffffff168273ffffffffffffffffffffffffffffffffffffffff16145b61080e576040517f08c379a000000000000000000000000000000000000000000000000000000000815260040161080590612b71565b60405180910390fd5b60356002015481846108209190612ead565b14610860576040517f08c379a000000000000000000000000000000000000000000000000000000000815260040161085790612c71565b60405180910390fd5b600060646003856108719190612f34565b61087b9190612f03565b90506000606460038661088e9190612f34565b6108989190612f03565b905060356002015483866108ac9190612ead565b146108ec576040517f08c379a00000000000000000000000000000000000000000000000000000000081526004016108e390612c11565b60405180910390fd5b60008673ffffffffffffffffffffffffffffffffffffffff1683876109119190612f8e565b60405161091d906128a9565b60006040518083038185875af1925050503d806000811461095a576040519150601f19603f3d011682016040523d82523d6000602084013e61095f565b606091505b50509050806109a3576040517f08c379a000000000000000000000000000000000000000000000000000000000815260040161099a90612bb1565b60405180910390fd5b60008573ffffffffffffffffffffffffffffffffffffffff1683866109c89190612f8e565b6040516109d4906128a9565b60006040518083038185875af1925050503d8060008114610a11576040519150601f19603f3d011682016040523d82523d6000602084013e610a16565b606091505b5050905080610a5a576040517f08c379a0000000000000000000000000000000000000000000000000000000008152600401610a5190612bb1565b60405180910390fd5b60003373ffffffffffffffffffffffffffffffffffffffff168486610a7f9190612ead565b604051610a8b906128a9565b60006040518083038185875af1925050503d8060008114610ac8576040519150601f19603f3d011682016040523d82523d6000602084013e610acd565b606091505b5050905080610b11576040517f08c379a0000000000000000000000000000000000000000000000000000000008152600401610b0890612bb1565b60405180910390fd5b505050505050505050565b6035806000016040518060400160405290816000820160009054906101000a900473ffffffffffffffffffffffffffffffffffffffff1673ffffffffffffffffffffffffffffffffffffffff1673ffffffffffffffffffffffffffffffffffffffff1681526020016001820160009054906101000a900473ffffffffffffffffffffffffffffffffffffffff1673ffffffffffffffffffffffffffffffffffffffff1673ffffffffffffffffffffffffffffffffffffffff168152505090806002015490806003018054610bef9061309a565b80601f0160208091040260200160405190810160405280929190818152602001828054610c1b9061309a565b8015610c685780601f10610c3d57610100808354040283529160200191610c68565b820191906000526020600020905b815481529060010190602001808311610c4b57829003601f168201915b5050505050908060040160009054906101000a900460ff16905084565b610c9189868587610403565b610cd0576040517f08c379a0000000000000000000000000000000000000000000000000000000008152600401610cc790612b11565b60405180910390fd5b610cdc88868385610403565b610d1b576040517f08c379a0000000000000000000000000000000000000000000000000000000008152600401610d1290612cb1565b60405180910390fd5b8773ffffffffffffffffffffffffffffffffffffffff168973ffffffffffffffffffffffffffffffffffffffff161415610d8a576040517f08c379a0000000000000000000000000000000000000000000000000000000008152600401610d8190612a71565b60405180910390fd5b600073ffffffffffffffffffffffffffffffffffffffff168973ffffffffffffffffffffffffffffffffffffffff1614158015610df45750600073ffffffffffffffffffffffffffffffffffffffff168873ffffffffffffffffffffffffffffffffffffffff1614155b610e33576040517f08c379a0000000000000000000000000000000000000000000000000000000008152600401610e2a90612a91565b60405180910390fd5b863410158015610e435750600087115b610e82576040517f08c379a0000000000000000000000000000000000000000000000000000000008152600401610e7990612b51565b60405180910390fd5b88603560000160000160006101000a81548173ffffffffffffffffffffffffffffffffffffffff021916908373ffffffffffffffffffffffffffffffffffffffff16021790555087603560000160010160006101000a81548173ffffffffffffffffffffffffffffffffffffffff021916908373ffffffffffffffffffffffffffffffffffffffff1602179055508560356003019080519060200190610f29929190611c5c565b50346035600201819055506000603560040160006101000a81548160ff02191690836002811115610f5d57610f5c613193565b5b02179055508773ffffffffffffffffffffffffffffffffffffffff168973ffffffffffffffffffffffffffffffffffffffff167f77594c7fa34419efb1eaaabf29a576f56c88a9b7877b9c55a53c74da44ad609e34604051610fbf9190612dbd565b60405180910390a3505050505050505050565b60016002811115610fe657610fe5613193565b5b603560040160009054906101000a900460ff16600281111561100b5761100a613193565b5b1461104b576040517f08c379a000000000000000000000000000000000000000000000000000000000815260040161104290612bd1565b60405180910390fd5b600080603560000160010160009054906101000a900473ffffffffffffffffffffffffffffffffffffffff1673ffffffffffffffffffffffffffffffffffffffff1660356002015460405161109f906128a9565b60006040518083038185875af1925050503d80600081146110dc576040519150601f19603f3d011682016040523d82523d6000602084013e6110e1565b606091505b509150915081611126576040517f08c379a000000000000000000000000000000000000000000000000000000000815260040161111d90612bb1565b60405180910390fd5b5050565b603460009054906101000a900473ffffffffffffffffffffffffffffffffffffffff1681565b611158611993565b6111626000611a11565b565b6000603360009054906101000a900473ffffffffffffffffffffffffffffffffffffffff16905090565b603560000160000160009054906101000a900473ffffffffffffffffffffffffffffffffffffffff1673ffffffffffffffffffffffffffffffffffffffff163373ffffffffffffffffffffffffffffffffffffffff1614806112435750603560000160010160009054906101000a900473ffffffffffffffffffffffffffffffffffffffff1673ffffffffffffffffffffffffffffffffffffffff163373ffffffffffffffffffffffffffffffffffffffff16145b611282576040517f08c379a000000000000000000000000000000000000000000000000000000000815260040161127990612af1565b60405180910390fd5b60028081111561129557611294613193565b5b603560040160009054906101000a900460ff1660028111156112ba576112b9613193565b5b14156112fb576040517f08c379a00000000000000000000000000000000000000000000000000000000081526004016112f290612bf1565b60405180910390fd5b3373ffffffffffffffffffffffffffffffffffffffff16603560000160000160009054906101000a900473ffffffffffffffffffffffffffffffffffffffff1673ffffffffffffffffffffffffffffffffffffffff1614156113895780603560040160006101000a81548160ff0219169083600281111561137f5761137e613193565b5b021790555061141f565b6001600281111561139d5761139c613193565b5b8160028111156113b0576113af613193565b5b14156113f1576040517f08c379a00000000000000000000000000000000000000000000000000000000081526004016113e890612cf1565b60405180910390fd5b80603560040160006101000a81548160ff0219169083600281111561141957611418613193565b5b02179055505b50565b600080600080611431856114b7565b9250925092506001868285856040516000815260200160405260405161145a9493929190612a0a565b6020604051602081039080840390855afa15801561147c573d6000803e3d6000fd5b50505060206040510351935050505092915050565b603a60009054906101000a900473ffffffffffffffffffffffffffffffffffffffff1681565b60008060006041845114611500576040517f08c379a00000000000000000000000000000000000000000000000000000000081526004016114f790612d31565b60405180910390fd5b6020840151925060408401519150606084015160001a90509193909250565b60008061154d603a60009054906101000a900473ffffffffffffffffffffffffffffffffffffffff16611ad7565b90508073ffffffffffffffffffffffffffffffffffffffff166332d4b991348d8d8d8d8d8d8d8d8d6040518b63ffffffff1660e01b8152600401611599999897969594939291906128f4565b6000604051808303818588803b1580156115b257600080fd5b505af11580156115c6573d6000803e3d6000fd5b50505050506116096040518060400160405280601181526020017f6163636f756e7420696e697469616c6564000000000000000000000000000000815250611b92565b8073ffffffffffffffffffffffffffffffffffffffff167fda8571e58c4cf9dcae24580090e9dcfc82718f76bc81df86f8f18cfd0d6ad26060405160405180910390a2509998505050505050505050565b8773ffffffffffffffffffffffffffffffffffffffff16603560000160000160009054906101000a900473ffffffffffffffffffffffffffffffffffffffff1673ffffffffffffffffffffffffffffffffffffffff16146116f0576040517f08c379a00000000000000000000000000000000000000000000000000000000081526004016116e790612ad1565b60405180910390fd5b6116fc88868587610403565b61173b576040517f08c379a000000000000000000000000000000000000000000000000000000000815260040161173290612b11565b60405180910390fd5b8673ffffffffffffffffffffffffffffffffffffffff16603560000160010160009054906101000a900473ffffffffffffffffffffffffffffffffffffffff1673ffffffffffffffffffffffffffffffffffffffff16146117d1576040517f08c379a00000000000000000000000000000000000000000000000000000000081526004016117c890612c91565b60405180910390fd5b6117dd87868385610403565b61181c576040517f08c379a000000000000000000000000000000000000000000000000000000000815260040161181390612cb1565b60405180910390fd5b60028081111561182f5761182e613193565b5b603560040160009054906101000a900460ff16600281111561185457611853613193565b5b14611894576040517f08c379a000000000000000000000000000000000000000000000000000000000815260040161188b90612b91565b60405180910390fd5b85603460006101000a81548173ffffffffffffffffffffffffffffffffffffffff021916908373ffffffffffffffffffffffffffffffffffffffff1602179055505050505050505050565b6118e7611993565b600073ffffffffffffffffffffffffffffffffffffffff168173ffffffffffffffffffffffffffffffffffffffff161415611957576040517f08c379a000000000000000000000000000000000000000000000000000000000815260040161194e90612b31565b60405180910390fd5b61196081611a11565b50565b6000816040516020016119769190612883565b604051602081830303815290604052805190602001209050919050565b61199b611c2b565b73ffffffffffffffffffffffffffffffffffffffff166119b9611164565b73ffffffffffffffffffffffffffffffffffffffff1614611a0f576040517f08c379a0000000000000000000000000000000000000000000000000000000008152600401611a0690612cd1565b60405180910390fd5b565b6000603360009054906101000a900473ffffffffffffffffffffffffffffffffffffffff16905081603360006101000a81548173ffffffffffffffffffffffffffffffffffffffff021916908373ffffffffffffffffffffffffffffffffffffffff1602179055508173ffffffffffffffffffffffffffffffffffffffff168173ffffffffffffffffffffffffffffffffffffffff167f8be0079c531659141344cd1fd0a4f28419497f9722a3daafe3b4186f6b6457e060405160405180910390a35050565b6000763d602d80600a3d3981f3363d3d373d3d3d363d730000008260601b60e81c176000526e5af43d82803e903d91602b57fd5bf38260781b17602052603760096000f09050600073ffffffffffffffffffffffffffffffffffffffff168173ffffffffffffffffffffffffffffffffffffffff161415611b8d576040517f08c379a0000000000000000000000000000000000000000000000000000000008152600401611b8490612c31565b60405180910390fd5b919050565b611c2881604051602401611ba69190612a4f565b6040516020818303038152906040527f41304fac000000000000000000000000000000000000000000000000000000007bffffffffffffffffffffffffffffffffffffffffffffffffffffffff19166020820180517bffffffffffffffffffffffffffffffffffffffffffffffffffffffff8381831617835250505050611c33565b50565b600033905090565b60008151905060006a636f6e736f6c652e6c6f679050602083016000808483855afa5050505050565b828054611c689061309a565b90600052602060002090601f016020900481019282611c8a5760008555611cd1565b82601f10611ca357805160ff1916838001178555611cd1565b82800160010185558215611cd1579182015b82811115611cd0578251825591602001919060010190611cb5565b5b509050611cde9190611ce2565b5090565b5b80821115611cfb576000816000905550600101611ce3565b5090565b6000611d12611d0d84612dfd565b612dd8565b905082815260208101848484011115611d2e57611d2d613225565b5b611d39848285613058565b509392505050565b6000611d54611d4f84612e2e565b612dd8565b905082815260208101848484011115611d7057611d6f613225565b5b611d7b848285613058565b509392505050565b600081359050611d92816136b6565b92915050565b600081359050611da7816136cd565b92915050565b600081359050611dbc816136e4565b92915050565b600082601f830112611dd757611dd6613220565b5b8135611de7848260208601611cff565b91505092915050565b600081359050611dff816136fb565b92915050565b600082601f830112611e1a57611e19613220565b5b8135611e2a848260208601611d41565b91505092915050565b600081359050611e428161370b565b92915050565b600060208284031215611e5e57611e5d61322f565b5b6000611e6c84828501611d83565b91505092915050565b600080600080600080600080610100898b031215611e9657611e9561322f565b5b6000611ea48b828c01611d83565b9850506020611eb58b828c01611d83565b9750506040611ec68b828c01611d98565b965050606089013567ffffffffffffffff811115611ee757611ee661322a565b5b611ef38b828c01611e05565b955050608089013567ffffffffffffffff811115611f1457611f1361322a565b5b611f208b828c01611dc2565b94505060a0611f318b828c01611e33565b93505060c089013567ffffffffffffffff811115611f5257611f5161322a565b5b611f5e8b828c01611dc2565b92505060e0611f6f8b828c01611e33565b9150509295985092959890939650565b60008060008060008060008060006101208a8c031215611fa257611fa161322f565b5b6000611fb08c828d01611d83565b9950506020611fc18c828d01611d83565b9850506040611fd28c828d01611e33565b97505060608a013567ffffffffffffffff811115611ff357611ff261322a565b5b611fff8c828d01611e05565b96505060808a013567ffffffffffffffff8111156120205761201f61322a565b5b61202c8c828d01611e05565b95505060a08a013567ffffffffffffffff81111561204d5761204c61322a565b5b6120598c828d01611dc2565b94505060c061206a8c828d01611e33565b93505060e08a013567ffffffffffffffff81111561208b5761208a61322a565b5b6120978c828d01611dc2565b9250506101006120a98c828d01611e33565b9150509295985092959850929598565b6000806000606084860312156120d2576120d161322f565b5b60006120e086828701611d83565b935050602084013567ffffffffffffffff8111156121015761210061322a565b5b61210d86828701611e05565b925050604061211e86828701611e33565b9150509250925092565b600080600080608085870312156121425761214161322f565b5b600061215087828801611d83565b945050602085013567ffffffffffffffff8111156121715761217061322a565b5b61217d87828801611e05565b935050604061218e87828801611e33565b925050606085013567ffffffffffffffff8111156121af576121ae61322a565b5b6121bb87828801611dc2565b91505092959194509250565b600080600080608085870312156121e1576121e061322f565b5b60006121ef87828801611d83565b945050602061220087828801611e33565b935050604061221187828801611d83565b925050606061222287828801611e33565b91505092959194509250565b6000602082840312156122445761224361322f565b5b600061225284828501611dad565b91505092915050565b600080604083850312156122725761227161322f565b5b600061228085828601611dad565b925050602083013567ffffffffffffffff8111156122a1576122a061322a565b5b6122ad85828601611dc2565b9150509250929050565b6000602082840312156122cd576122cc61322f565b5b600082013567ffffffffffffffff8111156122eb576122ea61322a565b5b6122f784828501611dc2565b91505092915050565b6000602082840312156123165761231561322f565b5b600061232484828501611df0565b91505092915050565b61233681612fd4565b82525050565b61234581612fc2565b82525050565b61235481612fc2565b82525050565b61236b61236682612fc2565b6130fd565b82525050565b61237a81612fe6565b82525050565b61238981612ff2565b82525050565b6123a061239b82612ff2565b61310f565b82525050565b60006123b182612e5f565b6123bb8185612e75565b93506123cb818560208601613067565b6123d481613234565b840191505092915050565b6123e881613046565b82525050565b60006123f982612e6a565b6124038185612e91565b9350612413818560208601613067565b61241c81613234565b840191505092915050565b600061243282612e6a565b61243c8185612ea2565b935061244c818560208601613067565b80840191505092915050565b6000612465601783612e91565b915061247082613252565b602082019050919050565b6000612488601783612e91565b91506124938261327b565b602082019050919050565b60006124ab600c83612e91565b91506124b6826132a4565b602082019050919050565b60006124ce601383612e91565b91506124d9826132cd565b602082019050919050565b60006124f1601183612e91565b91506124fc826132f6565b602082019050919050565b6000612514601c83612ea2565b915061251f8261331f565b601c82019050919050565b6000612537601683612e91565b915061254282613348565b602082019050919050565b600061255a602683612e91565b915061256582613371565b604082019050919050565b600061257d600d83612e91565b9150612588826133c0565b602082019050919050565b60006125a0600f83612e91565b91506125ab826133e9565b602082019050919050565b60006125c3600c83612e91565b91506125ce82613412565b602082019050919050565b60006125e6601483612e91565b91506125f18261343b565b602082019050919050565b6000612609600f83612e91565b915061261482613464565b602082019050919050565b600061262c601183612e91565b91506126378261348d565b602082019050919050565b600061264f601183612e91565b915061265a826134b6565b602082019050919050565b6000612672601683612e91565b915061267d826134df565b602082019050919050565b6000612695601783612e91565b91506126a082613508565b602082019050919050565b60006126b8600f83612e91565b91506126c382613531565b602082019050919050565b60006126db601783612e91565b91506126e68261355a565b602082019050919050565b60006126fe601a83612e91565b915061270982613583565b602082019050919050565b6000612721602083612e91565b915061272c826135ac565b602082019050919050565b6000612744602283612e91565b915061274f826135d5565b604082019050919050565b6000612767600083612e86565b915061277282613624565b600082019050919050565b600061278a600e83612e91565b915061279582613627565b602082019050919050565b60006127ad601883612e91565b91506127b882613650565b602082019050919050565b60006127d0601183612e91565b91506127db82613679565b602082019050919050565b6040820160008201516127fc600085018261233c565b50602082015161280f602085018261233c565b50505050565b61281e8161302f565b82525050565b6128356128308261302f565b61312b565b82525050565b61284481613039565b82525050565b6000612856828661235a565b6014820191506128668285612427565b91506128728284612824565b602082019150819050949350505050565b600061288e82612507565b915061289a828461238f565b60208201915081905092915050565b60006128b48261275a565b9150819050919050565b60006020820190506128d3600083018461234b565b92915050565b60006020820190506128ee600083018461232d565b92915050565b60006101208201905061290a600083018c61234b565b612917602083018b61234b565b612924604083018a612815565b818103606083015261293681896123ee565b9050818103608083015261294a81886123ee565b905081810360a083015261295e81876123a6565b905061296d60c0830186612815565b81810360e083015261297f81856123a6565b905061298f610100830184612815565b9a9950505050505050505050565b60006020820190506129b26000830184612371565b92915050565b60006020820190506129cd6000830184612380565b92915050565b60006060820190506129e86000830186612380565b6129f56020830185612380565b612a02604083018461283b565b949350505050565b6000608082019050612a1f6000830187612380565b612a2c602083018661283b565b612a396040830185612380565b612a466060830184612380565b95945050505050565b60006020820190508181036000830152612a6981846123ee565b905092915050565b60006020820190508181036000830152612a8a81612458565b9050919050565b60006020820190508181036000830152612aaa8161247b565b9050919050565b60006020820190508181036000830152612aca8161249e565b9050919050565b60006020820190508181036000830152612aea816124c1565b9050919050565b60006020820190508181036000830152612b0a816124e4565b9050919050565b60006020820190508181036000830152612b2a8161252a565b9050919050565b60006020820190508181036000830152612b4a8161254d565b9050919050565b60006020820190508181036000830152612b6a81612570565b9050919050565b60006020820190508181036000830152612b8a81612593565b9050919050565b60006020820190508181036000830152612baa816125b6565b9050919050565b60006020820190508181036000830152612bca816125d9565b9050919050565b60006020820190508181036000830152612bea816125fc565b9050919050565b60006020820190508181036000830152612c0a8161261f565b9050919050565b60006020820190508181036000830152612c2a81612642565b9050919050565b60006020820190508181036000830152612c4a81612665565b9050919050565b60006020820190508181036000830152612c6a81612688565b9050919050565b60006020820190508181036000830152612c8a816126ab565b9050919050565b60006020820190508181036000830152612caa816126ce565b9050919050565b60006020820190508181036000830152612cca816126f1565b9050919050565b60006020820190508181036000830152612cea81612714565b9050919050565b60006020820190508181036000830152612d0a81612737565b9050919050565b60006020820190508181036000830152612d2a8161277d565b9050919050565b60006020820190508181036000830152612d4a816127a0565b9050919050565b60006020820190508181036000830152612d6a816127c3565b9050919050565b600060a082019050612d8660008301876127e6565b612d936040830186612815565b8181036060830152612da581856123ee565b9050612db460808301846123df565b95945050505050565b6000602082019050612dd26000830184612815565b92915050565b6000612de2612df3565b9050612dee82826130cc565b919050565b6000604051905090565b600067ffffffffffffffff821115612e1857612e176131f1565b5b612e2182613234565b9050602081019050919050565b600067ffffffffffffffff821115612e4957612e486131f1565b5b612e5282613234565b9050602081019050919050565b600081519050919050565b600081519050919050565b600082825260208201905092915050565b600081905092915050565b600082825260208201905092915050565b600081905092915050565b6000612eb88261302f565b9150612ec38361302f565b9250827fffffffffffffffffffffffffffffffffffffffffffffffffffffffffffffffff03821115612ef857612ef7613135565b5b828201905092915050565b6000612f0e8261302f565b9150612f198361302f565b925082612f2957612f28613164565b5b828204905092915050565b6000612f3f8261302f565b9150612f4a8361302f565b9250817fffffffffffffffffffffffffffffffffffffffffffffffffffffffffffffffff0483118215151615612f8357612f82613135565b5b828202905092915050565b6000612f998261302f565b9150612fa48361302f565b925082821015612fb757612fb6613135565b5b828203905092915050565b6000612fcd8261300f565b9050919050565b6000612fdf8261300f565b9050919050565b60008115159050919050565b6000819050919050565b600081905061300a826136a2565b919050565b600073ffffffffffffffffffffffffffffffffffffffff82169050919050565b6000819050919050565b600060ff82169050919050565b600061305182612ffc565b9050919050565b82818337600083830152505050565b60005b8381101561308557808201518184015260208101905061306a565b83811115613094576000848401525b50505050565b600060028204905060018216806130b257607f821691505b602082108114156130c6576130c56131c2565b5b50919050565b6130d582613234565b810181811067ffffffffffffffff821117156130f4576130f36131f1565b5b80604052505050565b600061310882613119565b9050919050565b6000819050919050565b600061312482613245565b9050919050565b6000819050919050565b7f4e487b7100000000000000000000000000000000000000000000000000000000600052601160045260246000fd5b7f4e487b7100000000000000000000000000000000000000000000000000000000600052601260045260246000fd5b7f4e487b7100000000000000000000000000000000000000000000000000000000600052602160045260246000fd5b7f4e487b7100000000000000000000000000000000000000000000000000000000600052602260045260246000fd5b7f4e487b7100000000000000000000000000000000000000000000000000000000600052604160045260246000fd5b600080fd5b600080fd5b600080fd5b600080fd5b6000601f19601f8301169050919050565b60008160601b9050919050565b7f616464726573732063616e27742062652073616d652021000000000000000000600082015250565b7f6164647265737365732063616e2774206265207a65726f000000000000000000600082015250565b7f6e6f742064697370757465720000000000000000000000000000000000000000600082015250565b7f6e6f7420746865207265616c20636c69656e7400000000000000000000000000600082015250565b7f4e6f7420612076616c6964207061727479000000000000000000000000000000600082015250565b7f19457468657265756d205369676e6564204d6573736167653a0a333200000000600082015250565b7f436c69656e74206973206e6f74206167726565696e6700000000000000000000600082015250565b7f4f776e61626c653a206e6577206f776e657220697320746865207a65726f206160008201527f6464726573730000000000000000000000000000000000000000000000000000602082015250565b7f63616e2774206265206c65737300000000000000000000000000000000000000600082015250565b7f4e6f742076616c69642050617274790000000000000000000000000000000000600082015250565b7f4e6f742044697370757465640000000000000000000000000000000000000000600082015250565b7f4661696c656420746f2073656e64204574686572000000000000000000000000600082015250565b7f4e6f74206d61726b656420646f6e650000000000000000000000000000000000600082015250565b7f4d61726b65642064697370757465642021000000000000000000000000000000600082015250565b7f4e6f742076616c696420416d6f756e7473000000000000000000000000000000600082015250565b7f455243313136373a20637265617465206661696c656400000000000000000000600082015250565b7f6e6f7420746865206f726967696e616c207369676e6572000000000000000000600082015250565b7f616d6f756e742065786365656465640000000000000000000000000000000000600082015250565b7f6e6f7420746865207265616c20667265656c616e636572000000000000000000600082015250565b7f667265656c616e636572206973206e6f74206167726565696e67000000000000600082015250565b7f4f776e61626c653a2063616c6c6572206973206e6f7420746865206f776e6572600082015250565b7f6f6e6c7920636c69656e742063616e206d61726b2074686520776f726b20646f60008201527f6e65000000000000000000000000000000000000000000000000000000000000602082015250565b50565b7f4e6f7420696e2064697370757465000000000000000000000000000000000000600082015250565b7f696e76616c6964207369676e6174757265206c656e6774680000000000000000600082015250565b7f7369676e61747572652065787069726564000000000000000000000000000000600082015250565b600381106136b3576136b2613193565b5b50565b6136bf81612fc2565b81146136ca57600080fd5b50565b6136d681612fd4565b81146136e157600080fd5b50565b6136ed81612ff2565b81146136f857600080fd5b50565b6003811061370857600080fd5b50565b6137148161302f565b811461371f57600080fd5b5056fea264697066735822122052aa3d6dd94f10dce5fe72c360cdc8425be0a6d9c925db2285f5b7a8d231b82b64736f6c63430008060033",
  "linkReferences": {},
  "deployedLinkReferences": {}
}