{
  "_format": "hh-sol-artifact-1",
  "contractName": "Signature",
  "sourceName": "contracts/Signature.sol",
  "abi": [
    {
      "inputs": [
        {
          "internalType": "bytes32",
          "name": "_messageHash",
          "type": "bytes32"
        }
      ],
      "name": "getEthSignedMessageHash",
      "outputs": [
        {
          "internalType": "bytes32",
          "name": "",
          "type": "bytes32"
        }
      ],
      "stateMutability": "pure",
      "type": "function"
    },
    {
      "inputs": [
        {
          "internalType": "address",
          "name": "_to",
          "type": "address"
        },
        {
          "internalType": "string",
          "name": "_msg",
          "type": "string"
        },
        {
          "internalType": "uint256",
          "name": "_timestamp",
          "type": "uint256"
        }
      ],
      "name": "getMessageHash",
      "outputs": [
        {
          "internalType": "bytes32",
          "name": "",
          "type": "bytes32"
        }
      ],
      "stateMutability": "view",
      "type": "function"
    },
    {
      "inputs": [
        {
          "internalType": "bytes32",
          "name": "_ethSignedMessageHash",
          "type": "bytes32"
        },
        {
          "internalType": "bytes",
          "name": "_signature",
          "type": "bytes"
        }
      ],
      "name": "recoverSigner",
      "outputs": [
        {
          "internalType": "address",
          "name": "",
          "type": "address"
        }
      ],
      "stateMutability": "pure",
      "type": "function"
    },
    {
      "inputs": [
        {
          "internalType": "bytes",
          "name": "sig",
          "type": "bytes"
        }
      ],
      "name": "splitSignature",
      "outputs": [
        {
          "internalType": "bytes32",
          "name": "r",
          "type": "bytes32"
        },
        {
          "internalType": "bytes32",
          "name": "s",
          "type": "bytes32"
        },
        {
          "internalType": "uint8",
          "name": "v",
          "type": "uint8"
        }
      ],
      "stateMutability": "pure",
      "type": "function"
    },
    {
      "inputs": [
        {
          "internalType": "address",
          "name": "_to",
          "type": "address"
        },
        {
          "internalType": "string",
          "name": "_msg",
          "type": "string"
        },
        {
          "internalType": "uint256",
          "name": "_timestamp",
          "type": "uint256"
        },
        {
          "internalType": "bytes",
          "name": "_signature",
          "type": "bytes"
        }
      ],
      "name": "verify",
      "outputs": [
        {
          "internalType": "bool",
          "name": "",
          "type": "bool"
        }
      ],
      "stateMutability": "view",
      "type": "function"
    }
  ],
  "bytecode": "0x608060405234801561001057600080fd5b50610c71806100206000396000f3fe608060405234801561001057600080fd5b50600436106100575760003560e01c806307546f1a1461005c578063082d8f291461008c57806397aba7f9146100bc578063a7bb5803146100ec578063fa5408011461011e575b600080fd5b610076600480360381019061007191906104fe565b61014e565b6040516100839190610827565b60405180910390f35b6100a660048036038101906100a1919061048f565b610233565b6040516100b39190610842565b60405180910390f35b6100d660048036038101906100d191906105ca565b610269565b6040516100e3919061080c565b60405180910390f35b61010660048036038101906101019190610626565b6102d8565b6040516101159392919061085d565b60405180910390f35b6101386004803603810190610133919061059d565b610340565b6040516101459190610842565b60405180910390f35b60008061015c868686610233565b9050600061016982610340565b90508673ffffffffffffffffffffffffffffffffffffffff1661018c8286610269565b73ffffffffffffffffffffffffffffffffffffffff16146101e2576040517f08c379a00000000000000000000000000000000000000000000000000000000081526004016101d9906108d9565b60405180910390fd5b42851015610225576040517f08c379a000000000000000000000000000000000000000000000000000000000815260040161021c90610919565b60405180910390fd5b600192505050949350505050565b600083838360405160200161024a939291906107ad565b6040516020818303038152906040528051906020012090509392505050565b600080600080610278856102d8565b925092509250600186828585604051600081526020016040526040516102a19493929190610894565b6020604051602081039080840390855afa1580156102c3573d6000803e3d6000fd5b50505060206040510351935050505092915050565b60008060006041845114610321576040517f08c379a0000000000000000000000000000000000000000000000000000000008152600401610318906108f9565b60405180910390fd5b6020840151925060408401519150606084015160001a90509193909250565b60008160405160200161035391906107e6565b604051602081830303815290604052805190602001209050919050565b600061038361037e8461095e565b610939565b90508281526020810184848401111561039f5761039e610b25565b5b6103aa848285610a46565b509392505050565b60006103c56103c08461098f565b610939565b9050828152602081018484840111156103e1576103e0610b25565b5b6103ec848285610a46565b509392505050565b60008135905061040381610bf6565b92915050565b60008135905061041881610c0d565b92915050565b600082601f83011261043357610432610b20565b5b8135610443848260208601610370565b91505092915050565b600082601f83011261046157610460610b20565b5b81356104718482602086016103b2565b91505092915050565b60008135905061048981610c24565b92915050565b6000806000606084860312156104a8576104a7610b2f565b5b60006104b6868287016103f4565b935050602084013567ffffffffffffffff8111156104d7576104d6610b2a565b5b6104e38682870161044c565b92505060406104f48682870161047a565b9150509250925092565b6000806000806080858703121561051857610517610b2f565b5b6000610526878288016103f4565b945050602085013567ffffffffffffffff81111561054757610546610b2a565b5b6105538782880161044c565b93505060406105648782880161047a565b925050606085013567ffffffffffffffff81111561058557610584610b2a565b5b6105918782880161041e565b91505092959194509250565b6000602082840312156105b3576105b2610b2f565b5b60006105c184828501610409565b91505092915050565b600080604083850312156105e1576105e0610b2f565b5b60006105ef85828601610409565b925050602083013567ffffffffffffffff8111156106105761060f610b2a565b5b61061c8582860161041e565b9150509250929050565b60006020828403121561063c5761063b610b2f565b5b600082013567ffffffffffffffff81111561065a57610659610b2a565b5b6106668482850161041e565b91505092915050565b610678816109e7565b82525050565b61068f61068a826109e7565b610ab9565b82525050565b61069e816109f9565b82525050565b6106ad81610a05565b82525050565b6106c46106bf82610a05565b610acb565b82525050565b60006106d5826109c0565b6106df81856109dc565b93506106ef818560208601610a55565b80840191505092915050565b6000610708601c836109dc565b915061071382610b52565b601c82019050919050565b600061072b6017836109cb565b915061073682610b7b565b602082019050919050565b600061074e6018836109cb565b915061075982610ba4565b602082019050919050565b60006107716011836109cb565b915061077c82610bcd565b602082019050919050565b61079861079382610a2f565b610ae7565b82525050565b6107a781610a39565b82525050565b60006107b9828661067e565b6014820191506107c982856106ca565b91506107d58284610787565b602082019150819050949350505050565b60006107f1826106fb565b91506107fd82846106b3565b60208201915081905092915050565b6000602082019050610821600083018461066f565b92915050565b600060208201905061083c6000830184610695565b92915050565b600060208201905061085760008301846106a4565b92915050565b600060608201905061087260008301866106a4565b61087f60208301856106a4565b61088c604083018461079e565b949350505050565b60006080820190506108a960008301876106a4565b6108b6602083018661079e565b6108c360408301856106a4565b6108d060608301846106a4565b95945050505050565b600060208201905081810360008301526108f28161071e565b9050919050565b6000602082019050818103600083015261091281610741565b9050919050565b6000602082019050818103600083015261093281610764565b9050919050565b6000610943610954565b905061094f8282610a88565b919050565b6000604051905090565b600067ffffffffffffffff82111561097957610978610af1565b5b61098282610b34565b9050602081019050919050565b600067ffffffffffffffff8211156109aa576109a9610af1565b5b6109b382610b34565b9050602081019050919050565b600081519050919050565b600082825260208201905092915050565b600081905092915050565b60006109f282610a0f565b9050919050565b60008115159050919050565b6000819050919050565b600073ffffffffffffffffffffffffffffffffffffffff82169050919050565b6000819050919050565b600060ff82169050919050565b82818337600083830152505050565b60005b83811015610a73578082015181840152602081019050610a58565b83811115610a82576000848401525b50505050565b610a9182610b34565b810181811067ffffffffffffffff82111715610ab057610aaf610af1565b5b80604052505050565b6000610ac482610ad5565b9050919050565b6000819050919050565b6000610ae082610b45565b9050919050565b6000819050919050565b7f4e487b7100000000000000000000000000000000000000000000000000000000600052604160045260246000fd5b600080fd5b600080fd5b600080fd5b600080fd5b6000601f19601f8301169050919050565b60008160601b9050919050565b7f19457468657265756d205369676e6564204d6573736167653a0a333200000000600082015250565b7f6e6f7420746865206f726967696e616c207369676e6572000000000000000000600082015250565b7f696e76616c6964207369676e6174757265206c656e6774680000000000000000600082015250565b7f7369676e61747572652065787069726564000000000000000000000000000000600082015250565b610bff816109e7565b8114610c0a57600080fd5b50565b610c1681610a05565b8114610c2157600080fd5b50565b610c2d81610a2f565b8114610c3857600080fd5b5056fea26469706673582212204ab45c9ea1939c27f1b08b78b03c0386634cd2057025eb63b5e02115afc3588764736f6c63430008060033",
  "linkReferences": {},
  "deployedLinkReferences": {}
}