{
  "_format": "hh-sol-artifact-1",
  "contractName": "Escrow",
  "sourceName": "contracts/Escrow.sol",
  "abi": [
    {
      "anonymous": false,
      "inputs": [
        {
          "indexed": true,
          "internalType": "address",
          "name": "_from",
          "type": "address"
        },
        {
          "indexed": true,
          "internalType": "address",
          "name": "_to",
          "type": "address"
        },
        {
          "indexed": false,
          "internalType": "uint256",
          "name": "_amount",
          "type": "uint256"
        }
      ],
      "name": "ContractCreated",
      "type": "event"
    },
    {
      "anonymous": false,
      "inputs": [
        {
          "indexed": true,
          "internalType": "address",
          "name": "previousOwner",
          "type": "address"
        },
        {
          "indexed": true,
          "internalType": "address",
          "name": "newOwner",
          "type": "address"
        }
      ],
      "name": "OwnershipTransferred",
      "type": "event"
    },
    {
      "inputs": [],
      "name": "account_info",
      "outputs": [
        {
          "components": [
            {
              "internalType": "address",
              "name": "client",
              "type": "address"
            },
            {
              "internalType": "address",
              "name": "freelancer",
              "type": "address"
            }
          ],
          "internalType": "struct Escrow.Parties",
          "name": "parties",
          "type": "tuple"
        },
        {
          "internalType": "uint256",
          "name": "amount",
          "type": "uint256"
        },
        {
          "internalType": "string",
          "name": "content_id",
          "type": "string"
        },
        {
          "internalType": "enum Escrow.Status",
          "name": "status",
          "type": "uint8"
        }
      ],
      "stateMutability": "view",
      "type": "function"
    },
    {
      "inputs": [],
      "name": "disputer",
      "outputs": [
        {
          "internalType": "address payable",
          "name": "",
          "type": "address"
        }
      ],
      "stateMutability": "view",
      "type": "function"
    },
    {
      "inputs": [
        {
          "internalType": "bytes32",
          "name": "_messageHash",
          "type": "bytes32"
        }
      ],
      "name": "getEthSignedMessageHash",
      "outputs": [
        {
          "internalType": "bytes32",
          "name": "",
          "type": "bytes32"
        }
      ],
      "stateMutability": "pure",
      "type": "function"
    },
    {
      "inputs": [
        {
          "internalType": "address",
          "name": "_to",
          "type": "address"
        },
        {
          "internalType": "string",
          "name": "_msg",
          "type": "string"
        },
        {
          "internalType": "uint256",
          "name": "_timestamp",
          "type": "uint256"
        }
      ],
      "name": "getMessageHash",
      "outputs": [
        {
          "internalType": "bytes32",
          "name": "",
          "type": "bytes32"
        }
      ],
      "stateMutability": "view",
      "type": "function"
    },
    {
      "inputs": [
        {
          "internalType": "address",
          "name": "_client",
          "type": "address"
        },
        {
          "internalType": "address",
          "name": "_freelancer",
          "type": "address"
        },
        {
          "internalType": "uint256",
          "name": "_amount",
          "type": "uint256"
        },
        {
          "internalType": "string",
          "name": "cid",
          "type": "string"
        },
        {
          "internalType": "string",
          "name": "_msg",
          "type": "string"
        },
        {
          "internalType": "bytes",
          "name": "_clientSig",
          "type": "bytes"
        },
        {
          "internalType": "uint256",
          "name": "_clientSigTimestamp",
          "type": "uint256"
        },
        {
          "internalType": "bytes",
          "name": "_freelancerSig",
          "type": "bytes"
        },
        {
          "internalType": "uint256",
          "name": "_freelancerSigTimestamp",
          "type": "uint256"
        }
      ],
      "name": "initialize",
      "outputs": [],
      "stateMutability": "payable",
      "type": "function"
    },
    {
      "inputs": [],
      "name": "owner",
      "outputs": [
        {
          "internalType": "address",
          "name": "",
          "type": "address"
        }
      ],
      "stateMutability": "view",
      "type": "function"
    },
    {
      "inputs": [
        {
          "internalType": "bytes32",
          "name": "_ethSignedMessageHash",
          "type": "bytes32"
        },
        {
          "internalType": "bytes",
          "name": "_signature",
          "type": "bytes"
        }
      ],
      "name": "recoverSigner",
      "outputs": [
        {
          "internalType": "address",
          "name": "",
          "type": "address"
        }
      ],
      "stateMutability": "pure",
      "type": "function"
    },
    {
      "inputs": [],
      "name": "renounceOwnership",
      "outputs": [],
      "stateMutability": "nonpayable",
      "type": "function"
    },
    {
      "inputs": [
        {
          "internalType": "address",
          "name": "_client",
          "type": "address"
        },
        {
          "internalType": "address",
          "name": "_freelancer",
          "type": "address"
        },
        {
          "internalType": "address payable",
          "name": "_disputer",
          "type": "address"
        },
        {
          "internalType": "string",
          "name": "_msg",
          "type": "string"
        },
        {
          "internalType": "bytes",
          "name": "_clientSig",
          "type": "bytes"
        },
        {
          "internalType": "uint256",
          "name": "_clientSigTimestamp",
          "type": "uint256"
        },
        {
          "internalType": "bytes",
          "name": "_freelancerSig",
          "type": "bytes"
        },
        {
          "internalType": "uint256",
          "name": "_freelancerSigTimestamp",
          "type": "uint256"
        }
      ],
      "name": "set_disputer",
      "outputs": [],
      "stateMutability": "nonpayable",
      "type": "function"
    },
    {
      "inputs": [
        {
          "internalType": "address",
          "name": "_addr1",
          "type": "address"
        },
        {
          "internalType": "uint256",
          "name": "_amount1",
          "type": "uint256"
        },
        {
          "internalType": "address",
          "name": "_addr2",
          "type": "address"
        },
        {
          "internalType": "uint256",
          "name": "_amount2",
          "type": "uint256"
        }
      ],
      "name": "settle_dispute",
      "outputs": [],
      "stateMutability": "nonpayable",
      "type": "function"
    },
    {
      "inputs": [
        {
          "internalType": "bytes",
          "name": "sig",
          "type": "bytes"
        }
      ],
      "name": "splitSignature",
      "outputs": [
        {
          "internalType": "bytes32",
          "name": "r",
          "type": "bytes32"
        },
        {
          "internalType": "bytes32",
          "name": "s",
          "type": "bytes32"
        },
        {
          "internalType": "uint8",
          "name": "v",
          "type": "uint8"
        }
      ],
      "stateMutability": "pure",
      "type": "function"
    },
    {
      "inputs": [
        {
          "internalType": "address",
          "name": "newOwner",
          "type": "address"
        }
      ],
      "name": "transferOwnership",
      "outputs": [],
      "stateMutability": "nonpayable",
      "type": "function"
    },
    {
      "inputs": [
        {
          "internalType": "enum Escrow.Status",
          "name": "_status",
          "type": "uint8"
        }
      ],
      "name": "update_work_status",
      "outputs": [],
      "stateMutability": "nonpayable",
      "type": "function"
    },
    {
      "inputs": [
        {
          "internalType": "address",
          "name": "_to",
          "type": "address"
        },
        {
          "internalType": "string",
          "name": "_msg",
          "type": "string"
        },
        {
          "internalType": "uint256",
          "name": "_timestamp",
          "type": "uint256"
        },
        {
          "internalType": "bytes",
          "name": "_signature",
          "type": "bytes"
        }
      ],
      "name": "verify",
      "outputs": [
        {
          "internalType": "bool",
          "name": "",
          "type": "bool"
        }
      ],
      "stateMutability": "view",
      "type": "function"
    },
    {
      "inputs": [],
      "name": "withdraw",
      "outputs": [],
      "stateMutability": "nonpayable",
      "type": "function"
    }
  ],
  "bytecode": "0x60806040523480156200001157600080fd5b5062000032620000266200003860201b60201c565b6200004060201b60201c565b62000106565b600033905090565b6000603360009054906101000a900473ffffffffffffffffffffffffffffffffffffffff16905081603360006101000a81548173ffffffffffffffffffffffffffffffffffffffff021916908373ffffffffffffffffffffffffffffffffffffffff1602179055508173ffffffffffffffffffffffffffffffffffffffff168173ffffffffffffffffffffffffffffffffffffffff167f8be0079c531659141344cd1fd0a4f28419497f9722a3daafe3b4186f6b6457e060405160405180910390a35050565b61327d80620001166000396000f3fe6080604052600436106100e85760003560e01c8063715018a61161008a578063a7bb580311610059578063a7bb5803146102c4578063cd4c670714610303578063f2fde38b1461032c578063fa54080114610355576100e8565b8063715018a61461021c5780638da5cb5b146102335780639798b8901461025e57806397aba7f914610287576100e8565b80632d1d2418116100c65780632d1d24181461019057806332d4b991146101be5780633ccfd60b146101da5780636ac56103146101f1576100e8565b806307546f1a146100ed578063082d8f291461012a5780631576f06014610167575b600080fd5b3480156100f957600080fd5b50610114600480360381019061010f9190611dd9565b610392565b6040516101219190612549565b60405180910390f35b34801561013657600080fd5b50610151600480360381019061014c9190611d6a565b610477565b60405161015e9190612564565b60405180910390f35b34801561017357600080fd5b5061018e60048036038101906101899190611e78565b6104ad565b005b34801561019c57600080fd5b506101a5610aab565b6040516101b594939291906128db565b60405180910390f35b6101d860048036038101906101d39190611c30565b610c14565b005b3480156101e657600080fd5b506101ef610f61565b005b3480156101fd57600080fd5b506102066110b9565b604051610213919061252e565b60405180910390f35b34801561022857600080fd5b506102316110df565b005b34801561023f57600080fd5b506102486110f3565b6040516102559190612513565b60405180910390f35b34801561026a57600080fd5b5061028560048036038101906102809190611fb1565b61111d565b005b34801561029357600080fd5b506102ae60048036038101906102a99190611f0c565b6113b1565b6040516102bb9190612513565b60405180910390f35b3480156102d057600080fd5b506102eb60048036038101906102e69190611f68565b611420565b6040516102fa9392919061257f565b60405180910390f35b34801561030f57600080fd5b5061032a60048036038101906103259190611b26565b611488565b005b34801561033857600080fd5b50610353600480360381019061034e9190611af9565b61170d565b005b34801561036157600080fd5b5061037c60048036038101906103779190611edf565b611791565b6040516103899190612564565b60405180910390f35b6000806103a0868686610477565b905060006103ad82611791565b90508673ffffffffffffffffffffffffffffffffffffffff166103d082866113b1565b73ffffffffffffffffffffffffffffffffffffffff1614610426576040517f08c379a000000000000000000000000000000000000000000000000000000000815260040161041d906127bb565b60405180910390fd5b42851015610469576040517f08c379a0000000000000000000000000000000000000000000000000000000008152600401610460906128bb565b60405180910390fd5b600192505050949350505050565b600083838360405160200161048e9392919061249f565b6040516020818303038152906040528051906020012090509392505050565b603460009054906101000a900473ffffffffffffffffffffffffffffffffffffffff1673ffffffffffffffffffffffffffffffffffffffff163373ffffffffffffffffffffffffffffffffffffffff161461053d576040517f08c379a00000000000000000000000000000000000000000000000000000000081526004016105349061263b565b60405180910390fd5b6002808111156105505761054f612ce1565b5b603560040160009054906101000a900460ff16600281111561057557610574612ce1565b5b146105b5576040517f08c379a00000000000000000000000000000000000000000000000000000000081526004016105ac9061287b565b60405180910390fd5b603560000160000160009054906101000a900473ffffffffffffffffffffffffffffffffffffffff1673ffffffffffffffffffffffffffffffffffffffff168473ffffffffffffffffffffffffffffffffffffffff16148061066a5750603560000160010160009054906101000a900473ffffffffffffffffffffffffffffffffffffffff1673ffffffffffffffffffffffffffffffffffffffff168473ffffffffffffffffffffffffffffffffffffffff16145b6106a9576040517f08c379a00000000000000000000000000000000000000000000000000000000081526004016106a0906126fb565b60405180910390fd5b603560000160000160009054906101000a900473ffffffffffffffffffffffffffffffffffffffff1673ffffffffffffffffffffffffffffffffffffffff168273ffffffffffffffffffffffffffffffffffffffff16148061075e5750603560000160010160009054906101000a900473ffffffffffffffffffffffffffffffffffffffff1673ffffffffffffffffffffffffffffffffffffffff168273ffffffffffffffffffffffffffffffffffffffff16145b61079d576040517f08c379a0000000000000000000000000000000000000000000000000000000008152600401610794906126fb565b60405180910390fd5b60356002015481846107af91906129fb565b146107ef576040517f08c379a00000000000000000000000000000000000000000000000000000000081526004016107e6906127db565b60405180910390fd5b600060646003856108009190612a82565b61080a9190612a51565b90506000606460038661081d9190612a82565b6108279190612a51565b9050603560020154838661083b91906129fb565b1461087b576040517f08c379a00000000000000000000000000000000000000000000000000000000081526004016108729061279b565b60405180910390fd5b60008673ffffffffffffffffffffffffffffffffffffffff1683876108a09190612adc565b6040516108ac906124fe565b60006040518083038185875af1925050503d80600081146108e9576040519150601f19603f3d011682016040523d82523d6000602084013e6108ee565b606091505b5050905080610932576040517f08c379a00000000000000000000000000000000000000000000000000000000081526004016109299061273b565b60405180910390fd5b60008573ffffffffffffffffffffffffffffffffffffffff1683866109579190612adc565b604051610963906124fe565b60006040518083038185875af1925050503d80600081146109a0576040519150601f19603f3d011682016040523d82523d6000602084013e6109a5565b606091505b50509050806109e9576040517f08c379a00000000000000000000000000000000000000000000000000000000081526004016109e09061273b565b60405180910390fd5b60003373ffffffffffffffffffffffffffffffffffffffff168486610a0e91906129fb565b604051610a1a906124fe565b60006040518083038185875af1925050503d8060008114610a57576040519150601f19603f3d011682016040523d82523d6000602084013e610a5c565b606091505b5050905080610aa0576040517f08c379a0000000000000000000000000000000000000000000000000000000008152600401610a979061273b565b60405180910390fd5b505050505050505050565b6035806000016040518060400160405290816000820160009054906101000a900473ffffffffffffffffffffffffffffffffffffffff1673ffffffffffffffffffffffffffffffffffffffff1673ffffffffffffffffffffffffffffffffffffffff1681526020016001820160009054906101000a900473ffffffffffffffffffffffffffffffffffffffff1673ffffffffffffffffffffffffffffffffffffffff1673ffffffffffffffffffffffffffffffffffffffff168152505090806002015490806003018054610b7e90612be8565b80601f0160208091040260200160405190810160405280929190818152602001828054610baa90612be8565b8015610bf75780601f10610bcc57610100808354040283529160200191610bf7565b820191906000526020600020905b815481529060010190602001808311610bda57829003601f168201915b5050505050908060040160009054906101000a900460ff16905084565b610c2089868587610392565b610c5f576040517f08c379a0000000000000000000000000000000000000000000000000000000008152600401610c569061269b565b60405180910390fd5b610c6b88868385610392565b610caa576040517f08c379a0000000000000000000000000000000000000000000000000000000008152600401610ca19061281b565b60405180910390fd5b8773ffffffffffffffffffffffffffffffffffffffff168973ffffffffffffffffffffffffffffffffffffffff161415610d19576040517f08c379a0000000000000000000000000000000000000000000000000000000008152600401610d10906125fb565b60405180910390fd5b600073ffffffffffffffffffffffffffffffffffffffff168973ffffffffffffffffffffffffffffffffffffffff1614158015610d835750600073ffffffffffffffffffffffffffffffffffffffff168873ffffffffffffffffffffffffffffffffffffffff1614155b610dc2576040517f08c379a0000000000000000000000000000000000000000000000000000000008152600401610db99061261b565b60405180910390fd5b863410158015610dd25750600087115b610e11576040517f08c379a0000000000000000000000000000000000000000000000000000000008152600401610e08906126db565b60405180910390fd5b88603560000160000160006101000a81548173ffffffffffffffffffffffffffffffffffffffff021916908373ffffffffffffffffffffffffffffffffffffffff16021790555087603560000160010160006101000a81548173ffffffffffffffffffffffffffffffffffffffff021916908373ffffffffffffffffffffffffffffffffffffffff1602179055508560356003019080519060200190610eb892919061190d565b50346035600201819055506000603560040160006101000a81548160ff02191690836002811115610eec57610eeb612ce1565b5b02179055508773ffffffffffffffffffffffffffffffffffffffff168973ffffffffffffffffffffffffffffffffffffffff167f77594c7fa34419efb1eaaabf29a576f56c88a9b7877b9c55a53c74da44ad609e34604051610f4e9190612927565b60405180910390a3505050505050505050565b60016002811115610f7557610f74612ce1565b5b603560040160009054906101000a900460ff166002811115610f9a57610f99612ce1565b5b14610fda576040517f08c379a0000000000000000000000000000000000000000000000000000000008152600401610fd19061275b565b60405180910390fd5b600080603560000160010160009054906101000a900473ffffffffffffffffffffffffffffffffffffffff1673ffffffffffffffffffffffffffffffffffffffff1660356002015460405161102e906124fe565b60006040518083038185875af1925050503d806000811461106b576040519150601f19603f3d011682016040523d82523d6000602084013e611070565b606091505b5091509150816110b5576040517f08c379a00000000000000000000000000000000000000000000000000000000081526004016110ac9061273b565b60405180910390fd5b5050565b603460009054906101000a900473ffffffffffffffffffffffffffffffffffffffff1681565b6110e76117c1565b6110f1600061183f565b565b6000603360009054906101000a900473ffffffffffffffffffffffffffffffffffffffff16905090565b603560000160000160009054906101000a900473ffffffffffffffffffffffffffffffffffffffff1673ffffffffffffffffffffffffffffffffffffffff163373ffffffffffffffffffffffffffffffffffffffff1614806111d25750603560000160010160009054906101000a900473ffffffffffffffffffffffffffffffffffffffff1673ffffffffffffffffffffffffffffffffffffffff163373ffffffffffffffffffffffffffffffffffffffff16145b611211576040517f08c379a00000000000000000000000000000000000000000000000000000000081526004016112089061267b565b60405180910390fd5b60028081111561122457611223612ce1565b5b603560040160009054906101000a900460ff16600281111561124957611248612ce1565b5b141561128a576040517f08c379a00000000000000000000000000000000000000000000000000000000081526004016112819061277b565b60405180910390fd5b3373ffffffffffffffffffffffffffffffffffffffff16603560000160000160009054906101000a900473ffffffffffffffffffffffffffffffffffffffff1673ffffffffffffffffffffffffffffffffffffffff1614156113185780603560040160006101000a81548160ff0219169083600281111561130e5761130d612ce1565b5b02179055506113ae565b6001600281111561132c5761132b612ce1565b5b81600281111561133f5761133e612ce1565b5b1415611380576040517f08c379a00000000000000000000000000000000000000000000000000000000081526004016113779061285b565b60405180910390fd5b80603560040160006101000a81548160ff021916908360028111156113a8576113a7612ce1565b5b02179055505b50565b6000806000806113c085611420565b925092509250600186828585604051600081526020016040526040516113e994939291906125b6565b6020604051602081039080840390855afa15801561140b573d6000803e3d6000fd5b50505060206040510351935050505092915050565b60008060006041845114611469576040517f08c379a00000000000000000000000000000000000000000000000000000000081526004016114609061289b565b60405180910390fd5b6020840151925060408401519150606084015160001a90509193909250565b8773ffffffffffffffffffffffffffffffffffffffff16603560000160000160009054906101000a900473ffffffffffffffffffffffffffffffffffffffff1673ffffffffffffffffffffffffffffffffffffffff161461151e576040517f08c379a00000000000000000000000000000000000000000000000000000000081526004016115159061265b565b60405180910390fd5b61152a88868587610392565b611569576040517f08c379a00000000000000000000000000000000000000000000000000000000081526004016115609061269b565b60405180910390fd5b8673ffffffffffffffffffffffffffffffffffffffff16603560000160010160009054906101000a900473ffffffffffffffffffffffffffffffffffffffff1673ffffffffffffffffffffffffffffffffffffffff16146115ff576040517f08c379a00000000000000000000000000000000000000000000000000000000081526004016115f6906127fb565b60405180910390fd5b61160b87868385610392565b61164a576040517f08c379a00000000000000000000000000000000000000000000000000000000081526004016116419061281b565b60405180910390fd5b60028081111561165d5761165c612ce1565b5b603560040160009054906101000a900460ff16600281111561168257611681612ce1565b5b146116c2576040517f08c379a00000000000000000000000000000000000000000000000000000000081526004016116b99061271b565b60405180910390fd5b85603460006101000a81548173ffffffffffffffffffffffffffffffffffffffff021916908373ffffffffffffffffffffffffffffffffffffffff1602179055505050505050505050565b6117156117c1565b600073ffffffffffffffffffffffffffffffffffffffff168173ffffffffffffffffffffffffffffffffffffffff161415611785576040517f08c379a000000000000000000000000000000000000000000000000000000000815260040161177c906126bb565b60405180910390fd5b61178e8161183f565b50565b6000816040516020016117a491906124d8565b604051602081830303815290604052805190602001209050919050565b6117c9611905565b73ffffffffffffffffffffffffffffffffffffffff166117e76110f3565b73ffffffffffffffffffffffffffffffffffffffff161461183d576040517f08c379a00000000000000000000000000000000000000000000000000000000081526004016118349061283b565b60405180910390fd5b565b6000603360009054906101000a900473ffffffffffffffffffffffffffffffffffffffff16905081603360006101000a81548173ffffffffffffffffffffffffffffffffffffffff021916908373ffffffffffffffffffffffffffffffffffffffff1602179055508173ffffffffffffffffffffffffffffffffffffffff168173ffffffffffffffffffffffffffffffffffffffff167f8be0079c531659141344cd1fd0a4f28419497f9722a3daafe3b4186f6b6457e060405160405180910390a35050565b600033905090565b82805461191990612be8565b90600052602060002090601f01602090048101928261193b5760008555611982565b82601f1061195457805160ff1916838001178555611982565b82800160010185558215611982579182015b82811115611981578251825591602001919060010190611966565b5b50905061198f9190611993565b5090565b5b808211156119ac576000816000905550600101611994565b5090565b60006119c36119be84612967565b612942565b9050828152602081018484840111156119df576119de612d73565b5b6119ea848285612ba6565b509392505050565b6000611a05611a0084612998565b612942565b905082815260208101848484011115611a2157611a20612d73565b5b611a2c848285612ba6565b509392505050565b600081359050611a43816131db565b92915050565b600081359050611a58816131f2565b92915050565b600081359050611a6d81613209565b92915050565b600082601f830112611a8857611a87612d6e565b5b8135611a988482602086016119b0565b91505092915050565b600081359050611ab081613220565b92915050565b600082601f830112611acb57611aca612d6e565b5b8135611adb8482602086016119f2565b91505092915050565b600081359050611af381613230565b92915050565b600060208284031215611b0f57611b0e612d7d565b5b6000611b1d84828501611a34565b91505092915050565b600080600080600080600080610100898b031215611b4757611b46612d7d565b5b6000611b558b828c01611a34565b9850506020611b668b828c01611a34565b9750506040611b778b828c01611a49565b965050606089013567ffffffffffffffff811115611b9857611b97612d78565b5b611ba48b828c01611ab6565b955050608089013567ffffffffffffffff811115611bc557611bc4612d78565b5b611bd18b828c01611a73565b94505060a0611be28b828c01611ae4565b93505060c089013567ffffffffffffffff811115611c0357611c02612d78565b5b611c0f8b828c01611a73565b92505060e0611c208b828c01611ae4565b9150509295985092959890939650565b60008060008060008060008060006101208a8c031215611c5357611c52612d7d565b5b6000611c618c828d01611a34565b9950506020611c728c828d01611a34565b9850506040611c838c828d01611ae4565b97505060608a013567ffffffffffffffff811115611ca457611ca3612d78565b5b611cb08c828d01611ab6565b96505060808a013567ffffffffffffffff811115611cd157611cd0612d78565b5b611cdd8c828d01611ab6565b95505060a08a013567ffffffffffffffff811115611cfe57611cfd612d78565b5b611d0a8c828d01611a73565b94505060c0611d1b8c828d01611ae4565b93505060e08a013567ffffffffffffffff811115611d3c57611d3b612d78565b5b611d488c828d01611a73565b925050610100611d5a8c828d01611ae4565b9150509295985092959850929598565b600080600060608486031215611d8357611d82612d7d565b5b6000611d9186828701611a34565b935050602084013567ffffffffffffffff811115611db257611db1612d78565b5b611dbe86828701611ab6565b9250506040611dcf86828701611ae4565b9150509250925092565b60008060008060808587031215611df357611df2612d7d565b5b6000611e0187828801611a34565b945050602085013567ffffffffffffffff811115611e2257611e21612d78565b5b611e2e87828801611ab6565b9350506040611e3f87828801611ae4565b925050606085013567ffffffffffffffff811115611e6057611e5f612d78565b5b611e6c87828801611a73565b91505092959194509250565b60008060008060808587031215611e9257611e91612d7d565b5b6000611ea087828801611a34565b9450506020611eb187828801611ae4565b9350506040611ec287828801611a34565b9250506060611ed387828801611ae4565b91505092959194509250565b600060208284031215611ef557611ef4612d7d565b5b6000611f0384828501611a5e565b91505092915050565b60008060408385031215611f2357611f22612d7d565b5b6000611f3185828601611a5e565b925050602083013567ffffffffffffffff811115611f5257611f51612d78565b5b611f5e85828601611a73565b9150509250929050565b600060208284031215611f7e57611f7d612d7d565b5b600082013567ffffffffffffffff811115611f9c57611f9b612d78565b5b611fa884828501611a73565b91505092915050565b600060208284031215611fc757611fc6612d7d565b5b6000611fd584828501611aa1565b91505092915050565b611fe781612b22565b82525050565b611ff681612b10565b82525050565b61200581612b10565b82525050565b61201c61201782612b10565b612c4b565b82525050565b61202b81612b34565b82525050565b61203a81612b40565b82525050565b61205161204c82612b40565b612c5d565b82525050565b61206081612b94565b82525050565b6000612071826129c9565b61207b81856129df565b935061208b818560208601612bb5565b61209481612d82565b840191505092915050565b60006120aa826129c9565b6120b481856129f0565b93506120c4818560208601612bb5565b80840191505092915050565b60006120dd6017836129df565b91506120e882612da0565b602082019050919050565b60006121006017836129df565b915061210b82612dc9565b602082019050919050565b6000612123600c836129df565b915061212e82612df2565b602082019050919050565b60006121466013836129df565b915061215182612e1b565b602082019050919050565b60006121696011836129df565b915061217482612e44565b602082019050919050565b600061218c601c836129f0565b915061219782612e6d565b601c82019050919050565b60006121af6016836129df565b91506121ba82612e96565b602082019050919050565b60006121d26026836129df565b91506121dd82612ebf565b604082019050919050565b60006121f5600d836129df565b915061220082612f0e565b602082019050919050565b6000612218600f836129df565b915061222382612f37565b602082019050919050565b600061223b600c836129df565b915061224682612f60565b602082019050919050565b600061225e6014836129df565b915061226982612f89565b602082019050919050565b6000612281600f836129df565b915061228c82612fb2565b602082019050919050565b60006122a46011836129df565b91506122af82612fdb565b602082019050919050565b60006122c76011836129df565b91506122d282613004565b602082019050919050565b60006122ea6017836129df565b91506122f58261302d565b602082019050919050565b600061230d600f836129df565b915061231882613056565b602082019050919050565b60006123306017836129df565b915061233b8261307f565b602082019050919050565b6000612353601a836129df565b915061235e826130a8565b602082019050919050565b60006123766020836129df565b9150612381826130d1565b602082019050919050565b60006123996022836129df565b91506123a4826130fa565b604082019050919050565b60006123bc6000836129d4565b91506123c782613149565b600082019050919050565b60006123df600e836129df565b91506123ea8261314c565b602082019050919050565b60006124026018836129df565b915061240d82613175565b602082019050919050565b60006124256011836129df565b91506124308261319e565b602082019050919050565b6040820160008201516124516000850182611fed565b5060208201516124646020850182611fed565b50505050565b61247381612b7d565b82525050565b61248a61248582612b7d565b612c79565b82525050565b61249981612b87565b82525050565b60006124ab828661200b565b6014820191506124bb828561209f565b91506124c78284612479565b602082019150819050949350505050565b60006124e38261217f565b91506124ef8284612040565b60208201915081905092915050565b6000612509826123af565b9150819050919050565b60006020820190506125286000830184611ffc565b92915050565b60006020820190506125436000830184611fde565b92915050565b600060208201905061255e6000830184612022565b92915050565b60006020820190506125796000830184612031565b92915050565b60006060820190506125946000830186612031565b6125a16020830185612031565b6125ae6040830184612490565b949350505050565b60006080820190506125cb6000830187612031565b6125d86020830186612490565b6125e56040830185612031565b6125f26060830184612031565b95945050505050565b60006020820190508181036000830152612614816120d0565b9050919050565b60006020820190508181036000830152612634816120f3565b9050919050565b6000602082019050818103600083015261265481612116565b9050919050565b6000602082019050818103600083015261267481612139565b9050919050565b600060208201905081810360008301526126948161215c565b9050919050565b600060208201905081810360008301526126b4816121a2565b9050919050565b600060208201905081810360008301526126d4816121c5565b9050919050565b600060208201905081810360008301526126f4816121e8565b9050919050565b600060208201905081810360008301526127148161220b565b9050919050565b600060208201905081810360008301526127348161222e565b9050919050565b6000602082019050818103600083015261275481612251565b9050919050565b6000602082019050818103600083015261277481612274565b9050919050565b6000602082019050818103600083015261279481612297565b9050919050565b600060208201905081810360008301526127b4816122ba565b9050919050565b600060208201905081810360008301526127d4816122dd565b9050919050565b600060208201905081810360008301526127f481612300565b9050919050565b6000602082019050818103600083015261281481612323565b9050919050565b6000602082019050818103600083015261283481612346565b9050919050565b6000602082019050818103600083015261285481612369565b9050919050565b600060208201905081810360008301526128748161238c565b9050919050565b60006020820190508181036000830152612894816123d2565b9050919050565b600060208201905081810360008301526128b4816123f5565b9050919050565b600060208201905081810360008301526128d481612418565b9050919050565b600060a0820190506128f0600083018761243b565b6128fd604083018661246a565b818103606083015261290f8185612066565b905061291e6080830184612057565b95945050505050565b600060208201905061293c600083018461246a565b92915050565b600061294c61295d565b90506129588282612c1a565b919050565b6000604051905090565b600067ffffffffffffffff82111561298257612981612d3f565b5b61298b82612d82565b9050602081019050919050565b600067ffffffffffffffff8211156129b3576129b2612d3f565b5b6129bc82612d82565b9050602081019050919050565b600081519050919050565b600081905092915050565b600082825260208201905092915050565b600081905092915050565b6000612a0682612b7d565b9150612a1183612b7d565b9250827fffffffffffffffffffffffffffffffffffffffffffffffffffffffffffffffff03821115612a4657612a45612c83565b5b828201905092915050565b6000612a5c82612b7d565b9150612a6783612b7d565b925082612a7757612a76612cb2565b5b828204905092915050565b6000612a8d82612b7d565b9150612a9883612b7d565b9250817fffffffffffffffffffffffffffffffffffffffffffffffffffffffffffffffff0483118215151615612ad157612ad0612c83565b5b828202905092915050565b6000612ae782612b7d565b9150612af283612b7d565b925082821015612b0557612b04612c83565b5b828203905092915050565b6000612b1b82612b5d565b9050919050565b6000612b2d82612b5d565b9050919050565b60008115159050919050565b6000819050919050565b6000819050612b58826131c7565b919050565b600073ffffffffffffffffffffffffffffffffffffffff82169050919050565b6000819050919050565b600060ff82169050919050565b6000612b9f82612b4a565b9050919050565b82818337600083830152505050565b60005b83811015612bd3578082015181840152602081019050612bb8565b83811115612be2576000848401525b50505050565b60006002820490506001821680612c0057607f821691505b60208210811415612c1457612c13612d10565b5b50919050565b612c2382612d82565b810181811067ffffffffffffffff82111715612c4257612c41612d3f565b5b80604052505050565b6000612c5682612c67565b9050919050565b6000819050919050565b6000612c7282612d93565b9050919050565b6000819050919050565b7f4e487b7100000000000000000000000000000000000000000000000000000000600052601160045260246000fd5b7f4e487b7100000000000000000000000000000000000000000000000000000000600052601260045260246000fd5b7f4e487b7100000000000000000000000000000000000000000000000000000000600052602160045260246000fd5b7f4e487b7100000000000000000000000000000000000000000000000000000000600052602260045260246000fd5b7f4e487b7100000000000000000000000000000000000000000000000000000000600052604160045260246000fd5b600080fd5b600080fd5b600080fd5b600080fd5b6000601f19601f8301169050919050565b60008160601b9050919050565b7f616464726573732063616e27742062652073616d652021000000000000000000600082015250565b7f6164647265737365732063616e2774206265207a65726f000000000000000000600082015250565b7f6e6f742064697370757465720000000000000000000000000000000000000000600082015250565b7f6e6f7420746865207265616c20636c69656e7400000000000000000000000000600082015250565b7f4e6f7420612076616c6964207061727479000000000000000000000000000000600082015250565b7f19457468657265756d205369676e6564204d6573736167653a0a333200000000600082015250565b7f436c69656e74206973206e6f74206167726565696e6700000000000000000000600082015250565b7f4f776e61626c653a206e6577206f776e657220697320746865207a65726f206160008201527f6464726573730000000000000000000000000000000000000000000000000000602082015250565b7f63616e2774206265206c65737300000000000000000000000000000000000000600082015250565b7f4e6f742076616c69642050617274790000000000000000000000000000000000600082015250565b7f4e6f742044697370757465640000000000000000000000000000000000000000600082015250565b7f4661696c656420746f2073656e64204574686572000000000000000000000000600082015250565b7f4e6f74206d61726b656420646f6e650000000000000000000000000000000000600082015250565b7f4d61726b65642064697370757465642021000000000000000000000000000000600082015250565b7f4e6f742076616c696420416d6f756e7473000000000000000000000000000000600082015250565b7f6e6f7420746865206f726967696e616c207369676e6572000000000000000000600082015250565b7f616d6f756e742065786365656465640000000000000000000000000000000000600082015250565b7f6e6f7420746865207265616c20667265656c616e636572000000000000000000600082015250565b7f667265656c616e636572206973206e6f74206167726565696e67000000000000600082015250565b7f4f776e61626c653a2063616c6c6572206973206e6f7420746865206f776e6572600082015250565b7f6f6e6c7920636c69656e742063616e206d61726b2074686520776f726b20646f60008201527f6e65000000000000000000000000000000000000000000000000000000000000602082015250565b50565b7f4e6f7420696e2064697370757465000000000000000000000000000000000000600082015250565b7f696e76616c6964207369676e6174757265206c656e6774680000000000000000600082015250565b7f7369676e61747572652065787069726564000000000000000000000000000000600082015250565b600381106131d8576131d7612ce1565b5b50565b6131e481612b10565b81146131ef57600080fd5b50565b6131fb81612b22565b811461320657600080fd5b50565b61321281612b40565b811461321d57600080fd5b50565b6003811061322d57600080fd5b50565b61323981612b7d565b811461324457600080fd5b5056fea2646970667358221220d0e1ff5e4bde91bff1cafb976414035498178b135130240f069456724ece6b2a64736f6c63430008060033",
  "linkReferences": {},
  "deployedLinkReferences": {}
}